{
  "_format": "hh-sol-artifact-1",
  "contractName": "PriceConsumerV3",
  "sourceName": "contracts/PriceConsumerV3.sol",
  "abi": [
    {
      "inputs": [
        {
          "internalType": "address",
          "name": "_priceFeed",
          "type": "address"
        }
      ],
      "stateMutability": "nonpayable",
      "type": "constructor"
    },
    {
      "inputs": [],
      "name": "getLatestPrice",
      "outputs": [
        {
          "internalType": "int256",
          "name": "",
          "type": "int256"
        }
      ],
      "stateMutability": "view",
      "type": "function"
    },
    {
      "inputs": [],
      "name": "getPriceFeed",
      "outputs": [
        {
          "internalType": "contract AggregatorV3Interface",
          "name": "",
          "type": "address"
        }
      ],
      "stateMutability": "view",
      "type": "function"
    }
  ],
  "bytecode": "0x60a060405234801561001057600080fd5b5060405161048c38038061048c83398181016040528101906100329190610084565b8073ffffffffffffffffffffffffffffffffffffffff1660808173ffffffffffffffffffffffffffffffffffffffff1660601b81525050506100ff565b60008151905061007e816100e8565b92915050565b60006020828403121561009a576100996100e3565b5b60006100a88482850161006f565b91505092915050565b60006100bc826100c3565b9050919050565b600073ffffffffffffffffffffffffffffffffffffffff82169050919050565b600080fd5b6100f1816100b1565b81146100fc57600080fd5b50565b60805160601c610369610123600039600081816082015261013701526103696000f3fe608060405234801561001057600080fd5b50600436106100365760003560e01c80638e15f4731461003b5780639e87a5cd14610059575b600080fd5b610043610077565b604051610050919061024e565b60405180910390f35b610061610133565b60405161006e9190610233565b60405180910390f35b6000806000806000807f000000000000000000000000000000000000000000000000000000000000000073ffffffffffffffffffffffffffffffffffffffff1663feaf968c6040518163ffffffff1660e01b815260040160a06040518083038186803b1580156100e657600080fd5b505afa1580156100fa573d6000803e3d6000fd5b505050506040513d601f19601f8201168201806040525081019061011e919061019a565b94509450945094509450839550505050505090565b60007f0000000000000000000000000000000000000000000000000000000000000000905090565b60008151905061016a816102ee565b92915050565b60008151905061017f81610305565b92915050565b6000815190506101948161031c565b92915050565b600080600080600060a086880312156101b6576101b56102e9565b5b60006101c488828901610185565b95505060206101d58882890161015b565b94505060406101e688828901610170565b93505060606101f788828901610170565b925050608061020888828901610185565b9150509295509295909350565b61021e816102b3565b82525050565b61022d81610269565b82525050565b60006020820190506102486000830184610215565b92915050565b60006020820190506102636000830184610224565b92915050565b6000819050919050565b600073ffffffffffffffffffffffffffffffffffffffff82169050919050565b6000819050919050565b600069ffffffffffffffffffff82169050919050565b60006102be826102c5565b9050919050565b60006102d0826102d7565b9050919050565b60006102e282610273565b9050919050565b600080fd5b6102f781610269565b811461030257600080fd5b50565b61030e81610293565b811461031957600080fd5b50565b6103258161029d565b811461033057600080fd5b5056fea26469706673582212209683e912754c3751d789d14f9e833afc37af451385c60a8b3c889619901950ba64736f6c63430008070033",
  "linkReferences": {},
  "deployedLinkReferences": {}
}