{"@chainlink/contracts/src/v0.8/VRFV2Wrapper.sol":{"VRFV2Wrapper":{"abi":[{"inputs":[{"internalType":"address","name":"_link","type":"address"},{"internalType":"address","name":"_linkEthFeed","type":"address"},{"internalType":"address","name":"_coordinator","type":"address"}],"stateMutability":"nonpayable","type":"constructor"},{"inputs":[{"internalType":"address","name":"have","type":"address"},{"internalType":"address","name":"want","type":"address"}],"name":"OnlyCoordinatorCanFulfill","type":"error"},{"anonymous":false,"inputs":[{"indexed":true,"internalType":"address","name":"from","type":"address"},{"indexed":true,"internalType":"address","name":"to","type":"address"}],"name":"OwnershipTransferRequested","type":"event"},{"anonymous":false,"inputs":[{"indexed":true,"internalType":"address","name":"from","type":"address"},{"indexed":true,"internalType":"address","name":"to","type":"address"}],"name":"OwnershipTransferred","type":"event"},{"anonymous":false,"inputs":[{"indexed":true,"internalType":"uint256","name":"requestId","type":"uint256"},{"indexed":true,"internalType":"address","name":"consumer","type":"address"}],"name":"WrapperFulfillmentFailed","type":"event"},{"inputs":[],"name":"COORDINATOR","outputs":[{"internalType":"contract ExtendedVRFCoordinatorV2Interface","name":"","type":"address"}],"stateMutability":"view","type":"function"},{"inputs":[],"name":"LINK","outputs":[{"internalType":"contract LinkTokenInterface","name":"","type":"address"}],"stateMutability":"view","type":"function"},{"inputs":[],"name":"LINK_ETH_FEED","outputs":[{"internalType":"contract AggregatorV3Interface","name":"","type":"address"}],"stateMutability":"view","type":"function"},{"inputs":[],"name":"SUBSCRIPTION_ID","outputs":[{"internalType":"uint64","name":"","type":"uint64"}],"stateMutability":"view","type":"function"},{"inputs":[],"name":"acceptOwnership","outputs":[],"stateMutability":"nonpayable","type":"function"},{"inputs":[{"internalType":"uint32","name":"_callbackGasLimit","type":"uint32"}],"name":"calculateRequestPrice","outputs":[{"internalType":"uint256","name":"","type":"uint256"}],"stateMutability":"view","type":"function"},{"inputs":[],"name":"disable","outputs":[],"stateMutability":"nonpayable","type":"function"},{"inputs":[],"name":"enable","outputs":[],"stateMutability":"nonpayable","type":"function"},{"inputs":[{"internalType":"uint32","name":"_callbackGasLimit","type":"uint32"},{"internalType":"uint256","name":"_requestGasPriceWei","type":"uint256"}],"name":"estimateRequestPrice","outputs":[{"internalType":"uint256","name":"","type":"uint256"}],"stateMutability":"view","type":"function"},{"inputs":[],"name":"getConfig","outputs":[{"internalType":"int256","name":"fallbackWeiPerUnitLink","type":"int256"},{"internalType":"uint32","name":"stalenessSeconds","type":"uint32"},{"internalType":"uint32","name":"fulfillmentFlatFeeLinkPPM","type":"uint32"},{"internalType":"uint32","name":"wrapperGasOverhead","type":"uint32"},{"internalType":"uint32","name":"coordinatorGasOverhead","type":"uint32"},{"internalType":"uint8","name":"wrapperPremiumPercentage","type":"uint8"},{"internalType":"bytes32","name":"keyHash","type":"bytes32"},{"internalType":"uint8","name":"maxNumWords","type":"uint8"}],"stateMutability":"view","type":"function"},{"inputs":[],"name":"lastRequestId","outputs":[{"internalType":"uint256","name":"","type":"uint256"}],"stateMutability":"view","type":"function"},{"inputs":[{"internalType":"address","name":"_sender","type":"address"},{"internalType":"uint256","name":"_amount","type":"uint256"},{"internalType":"bytes","name":"_data","type":"bytes"}],"name":"onTokenTransfer","outputs":[],"stateMutability":"nonpayable","type":"function"},{"inputs":[],"name":"owner","outputs":[{"internalType":"address","name":"","type":"address"}],"stateMutability":"view","type":"function"},{"inputs":[{"internalType":"uint256","name":"requestId","type":"uint256"},{"internalType":"uint256[]","name":"randomWords","type":"uint256[]"}],"name":"rawFulfillRandomWords","outputs":[],"stateMutability":"nonpayable","type":"function"},{"inputs":[{"internalType":"uint256","name":"","type":"uint256"}],"name":"s_callbacks","outputs":[{"internalType":"address","name":"callbackAddress","type":"address"},{"internalType":"uint32","name":"callbackGasLimit","type":"uint32"},{"internalType":"uint256","name":"requestGasPrice","type":"uint256"},{"internalType":"int256","name":"requestWeiPerUnitLink","type":"int256"},{"internalType":"uint256","name":"juelsPaid","type":"uint256"}],"stateMutability":"view","type":"function"},{"inputs":[],"name":"s_configured","outputs":[{"internalType":"bool","name":"","type":"bool"}],"stateMutability":"view","type":"function"},{"inputs":[],"name":"s_disabled","outputs":[{"internalType":"bool","name":"","type":"bool"}],"stateMutability":"view","type":"function"},{"inputs":[{"internalType":"uint32","name":"_wrapperGasOverhead","type":"uint32"},{"internalType":"uint32","name":"_coordinatorGasOverhead","type":"uint32"},{"internalType":"uint8","name":"_wrapperPremiumPercentage","type":"uint8"},{"internalType":"bytes32","name":"_keyHash","type":"bytes32"},{"internalType":"uint8","name":"_maxNumWords","type":"uint8"}],"name":"setConfig","outputs":[],"stateMutability":"nonpayable","type":"function"},{"inputs":[{"internalType":"address","name":"to","type":"address"}],"name":"transferOwnership","outputs":[],"stateMutability":"nonpayable","type":"function"},{"inputs":[],"name":"typeAndVersion","outputs":[{"internalType":"string","name":"","type":"string"}],"stateMutability":"pure","type":"function"},{"inputs":[{"internalType":"address","name":"_recipient","type":"address"},{"internalType":"uint256","name":"_amount","type":"uint256"}],"name":"withdraw","outputs":[],"stateMutability":"nonpayable","type":"function"}],"evm":{"bytecode":{"linkReferences":{},"object":"6101206040523480156200001257600080fd5b506040516200350e3803806200350e833981810160405281019062000038919062000497565b80338060008073ffffffffffffffffffffffffffffffffffffffff168273ffffffffffffffffffffffffffffffffffffffff161415620000af576040517f08c379a0000000000000000000000000000000000000000000000000000000008152600401620000a69062000595565b60405180910390fd5b816000806101000a81548173ffffffffffffffffffffffffffffffffffffffff021916908373ffffffffffffffffffffffffffffffffffffffff160217905550600073ffffffffffffffffffffffffffffffffffffffff168173ffffffffffffffffffffffffffffffffffffffff1614620001365762000135816200033960201b60201c565b5b5050508073ffffffffffffffffffffffffffffffffffffffff1660808173ffffffffffffffffffffffffffffffffffffffff1660601b81525050508273ffffffffffffffffffffffffffffffffffffffff1660a08173ffffffffffffffffffffffffffffffffffffffff1660601b815250508173ffffffffffffffffffffffffffffffffffffffff1660c08173ffffffffffffffffffffffffffffffffffffffff1660601b815250508073ffffffffffffffffffffffffffffffffffffffff1660e08173ffffffffffffffffffffffffffffffffffffffff1660601b8152505060008173ffffffffffffffffffffffffffffffffffffffff1663a21a23e46040518163ffffffff1660e01b8152600401602060405180830381600087803b1580156200026157600080fd5b505af115801562000276573d6000803e3d6000fd5b505050506040513d601f19601f820116820180604052508101906200029c9190620004f3565b90508067ffffffffffffffff166101008167ffffffffffffffff1660c01b815250508173ffffffffffffffffffffffffffffffffffffffff16637341c10c82306040518363ffffffff1660e01b8152600401620002fb929190620005d9565b600060405180830381600087803b1580156200031657600080fd5b505af11580156200032b573d6000803e3d6000fd5b5050505050505050620006ea565b3373ffffffffffffffffffffffffffffffffffffffff168173ffffffffffffffffffffffffffffffffffffffff161415620003ab576040517f08c379a0000000000000000000000000000000000000000000000000000000008152600401620003a290620005b7565b60405180910390fd5b80600160006101000a81548173ffffffffffffffffffffffffffffffffffffffff021916908373ffffffffffffffffffffffffffffffffffffffff1602179055508073ffffffffffffffffffffffffffffffffffffffff1660008054906101000a900473ffffffffffffffffffffffffffffffffffffffff1673ffffffffffffffffffffffffffffffffffffffff167fed8889f560326eb138920d842192f0eb3dd22b4f139c87a2c57538e05bae127860405160405180910390a350565b6000815190506200047a81620006b6565b92915050565b6000815190506200049181620006d0565b92915050565b600080600060608486031215620004b357620004b26200065f565b5b6000620004c38682870162000469565b9350506020620004d68682870162000469565b9250506040620004e98682870162000469565b9150509250925092565b6000602082840312156200050c576200050b6200065f565b5b60006200051c8482850162000480565b91505092915050565b620005308162000617565b82525050565b60006200054560188362000606565b9150620005528262000664565b602082019050919050565b60006200056c60178362000606565b915062000579826200068d565b602082019050919050565b6200058f816200064b565b82525050565b60006020820190508181036000830152620005b08162000536565b9050919050565b60006020820190508181036000830152620005d2816200055d565b9050919050565b6000604082019050620005f0600083018562000584565b620005ff602083018462000525565b9392505050565b600082825260208201905092915050565b600062000624826200062b565b9050919050565b600073ffffffffffffffffffffffffffffffffffffffff82169050919050565b600067ffffffffffffffff82169050919050565b600080fd5b7f43616e6e6f7420736574206f776e657220746f207a65726f0000000000000000600082015250565b7f43616e6e6f74207472616e7366657220746f2073656c66000000000000000000600082015250565b620006c18162000617565b8114620006cd57600080fd5b50565b620006db816200064b565b8114620006e757600080fd5b50565b60805160601c60a05160601c60c05160601c60e05160601c6101005160c01c612d916200077d600039600081816103af0152610b7a01526000818161051901528181610b3b01528181610e0c01528181610ed60152610f7a015260008181610d460152611514015260008181610410015281816109c5015261111c01526000818161043401526104880152612d916000f3fe608060405234801561001057600080fd5b50600436106101375760003560e01c80637fb5d19d116100b8578063ad1783611161007c578063ad178361146102f8578063c15ce4d714610316578063c3f909d414610332578063f2fde38b14610357578063f3fef3a314610373578063fc2a88c31461038f57610137565b80637fb5d19d146102665780638da5cb5b14610296578063a3907d71146102b4578063a4c0ed36146102be578063a608a1e1146102da57610137565b80633b2bcbf1116100ff5780633b2bcbf1146101bc5780634306d354146101da57806348baa1c51461020a57806357a8070a1461023e57806379ba50971461025c57610137565b8063030932bb1461013c578063181f5a771461015a5780631b6b6d23146101785780631fe543e3146101965780632f2770db146101b2575b600080fd5b6101446103ad565b604051610151919061262e565b60405180910390f35b6101626103d1565b60405161016f9190612481565b60405180910390f35b61018061040e565b60405161018d91906123e8565b60405180910390f35b6101b060048036038101906101ab9190611cd8565b610432565b005b6101ba6104f2565b005b6101c4610517565b6040516101d191906123cd565b60405180910390f35b6101f460048036038101906101ef9190611d34565b61053b565b60405161020191906125e3565b60405180910390f35b610224600480360381019061021f9190611c7e565b610601565b6040516102359594939291906122f1565b60405180910390f35b610246610667565b6040516102539190612344565b60405180910390f35b61026461067a565b005b610280600480360381019061027b9190611db4565b61080f565b60405161028d91906125e3565b60405180910390f35b61029e6108d6565b6040516102ab9190612284565b60405180910390f35b6102bc6108ff565b005b6102d860048036038101906102d39190611b49565b610924565b005b6102e2610d31565b6040516102ef9190612344565b60405180910390f35b610300610d44565b60405161030d91906123b2565b60405180910390f35b610330600480360381019061032b9190611ebe565b610d68565b005b61033a611066565b60405161034e989796959493929190612403565b60405180910390f35b610371600480360381019061036c9190611adc565b6110fe565b005b61038d60048036038101906103889190611b09565b611112565b005b6103976111cc565b6040516103a491906125e3565b60405180910390f35b7f000000000000000000000000000000000000000000000000000000000000000081565b60606040518060400160405280601281526020017f56524656325772617070657220312e302e300000000000000000000000000000815250905090565b7f000000000000000000000000000000000000000000000000000000000000000081565b7f000000000000000000000000000000000000000000000000000000000000000073ffffffffffffffffffffffffffffffffffffffff163373ffffffffffffffffffffffffffffffffffffffff16146104e457337f00000000000000000000000000000000000000000000000000000000000000006040517f1cf993f40000000000000000000000000000000000000000000000000000000081526004016104db92919061229f565b60405180910390fd5b6104ee82826111d2565b5050565b6104fa61145e565b6001600360016101000a81548160ff021916908315150217905550565b7f000000000000000000000000000000000000000000000000000000000000000081565b6000600360009054906101000a900460ff1661058c576040517f08c379a0000000000000000000000000000000000000000000000000000000008152600401610583906124c3565b60405180910390fd5b600360019054906101000a900460ff16156105dc576040517f08c379a00000000000000000000000000000000000000000000000000000000081526004016105d3906125c3565b60405180910390fd5b60006105e66114ee565b90506105f98363ffffffff163a83611648565b915050919050565b60086020528060005260406000206000915090508060000160009054906101000a900473ffffffffffffffffffffffffffffffffffffffff16908060000160149054906101000a900463ffffffff16908060010154908060020154908060030154905085565b600360009054906101000a900460ff1681565b600160009054906101000a900473ffffffffffffffffffffffffffffffffffffffff1673ffffffffffffffffffffffffffffffffffffffff163373ffffffffffffffffffffffffffffffffffffffff161461070a576040517f08c379a0000000000000000000000000000000000000000000000000000000008152600401610701906124e3565b60405180910390fd5b60008060009054906101000a900473ffffffffffffffffffffffffffffffffffffffff169050336000806101000a81548173ffffffffffffffffffffffffffffffffffffffff021916908373ffffffffffffffffffffffffffffffffffffffff1602179055506000600160006101000a81548173ffffffffffffffffffffffffffffffffffffffff021916908373ffffffffffffffffffffffffffffffffffffffff1602179055503373ffffffffffffffffffffffffffffffffffffffff168173ffffffffffffffffffffffffffffffffffffffff167f8be0079c531659141344cd1fd0a4f28419497f9722a3daafe3b4186f6b6457e060405160405180910390a350565b6000600360009054906101000a900460ff16610860576040517f08c379a0000000000000000000000000000000000000000000000000000000008152600401610857906124c3565b60405180910390fd5b600360019054906101000a900460ff16156108b0576040517f08c379a00000000000000000000000000000000000000000000000000000000081526004016108a7906125c3565b60405180910390fd5b60006108ba6114ee565b90506108cd8463ffffffff168483611648565b91505092915050565b60008060009054906101000a900473ffffffffffffffffffffffffffffffffffffffff16905090565b61090761145e565b6000600360016101000a81548160ff021916908315150217905550565b600360009054906101000a900460ff16610973576040517f08c379a000000000000000000000000000000000000000000000000000000000815260040161096a906124c3565b60405180910390fd5b600360019054906101000a900460ff16156109c3576040517f08c379a00000000000000000000000000000000000000000000000000000000081526004016109ba906125c3565b60405180910390fd5b7f000000000000000000000000000000000000000000000000000000000000000073ffffffffffffffffffffffffffffffffffffffff163373ffffffffffffffffffffffffffffffffffffffff1614610a51576040517f08c379a0000000000000000000000000000000000000000000000000000000008152600401610a4890612583565b60405180910390fd5b60008060008484810190610a659190611d61565b9250925092506000610a768461173b565b90506000610a826114ee565b90506000610a978663ffffffff163a84611648565b905080891015610adc576040517f08c379a0000000000000000000000000000000000000000000000000000000008152600401610ad390612543565b60405180910390fd5b600760009054906101000a900460ff1660ff168463ffffffff161115610b37576040517f08c379a0000000000000000000000000000000000000000000000000000000008152600401610b2e906125a3565b60405180910390fd5b60007f000000000000000000000000000000000000000000000000000000000000000073ffffffffffffffffffffffffffffffffffffffff16635d3b1d306006547f000000000000000000000000000000000000000000000000000000000000000089600560089054906101000a900463ffffffff16898d610bb99190612745565b610bc39190612745565b8a6040518663ffffffff1660e01b8152600401610be495949392919061235f565b602060405180830381600087803b158015610bfe57600080fd5b505af1158015610c12573d6000803e3d6000fd5b505050506040513d601f19601f82011682018060405250810190610c369190611cab565b90506040518060a001604052808c73ffffffffffffffffffffffffffffffffffffffff1681526020018863ffffffff1681526020013a81526020018481526020018b8152506008600083815260200190815260200160002060008201518160000160006101000a81548173ffffffffffffffffffffffffffffffffffffffff021916908373ffffffffffffffffffffffffffffffffffffffff16021790555060208201518160000160146101000a81548163ffffffff021916908363ffffffff160217905550604082015181600101556060820151816002015560808201518160030155905050806002819055505050505050505050505050565b600360019054906101000a900460ff1681565b7f000000000000000000000000000000000000000000000000000000000000000081565b610d7061145e565b84600560086101000a81548163ffffffff021916908363ffffffff160217905550836005600c6101000a81548163ffffffff021916908363ffffffff16021790555082600560106101000a81548160ff021916908360ff1602179055508160068190555080600760006101000a81548160ff021916908360ff1602179055506001600360006101000a81548160ff0219169083151502179055507f000000000000000000000000000000000000000000000000000000000000000073ffffffffffffffffffffffffffffffffffffffff1663c3f909d46040518163ffffffff1660e01b815260040160806040518083038186803b158015610e7057600080fd5b505afa158015610e84573d6000803e3d6000fd5b505050506040513d601f19601f82011682018060405250810190610ea89190611c17565b9091925090915050600560008291906101000a81548163ffffffff021916908363ffffffff160217905550507f000000000000000000000000000000000000000000000000000000000000000073ffffffffffffffffffffffffffffffffffffffff1663356dac716040518163ffffffff1660e01b815260040160206040518083038186803b158015610f3a57600080fd5b505afa158015610f4e573d6000803e3d6000fd5b505050506040513d601f19601f82011682018060405250810190610f729190611bea565b6004819055507f000000000000000000000000000000000000000000000000000000000000000073ffffffffffffffffffffffffffffffffffffffff16635fbbc0d26040518163ffffffff1660e01b81526004016101206040518083038186803b158015610fdf57600080fd5b505afa158015610ff3573d6000803e3d6000fd5b505050506040513d601f19601f820116820180604052508101906110179190611df4565b909192939495965090919293949550909192939450909192935090919250909150905050600560048291906101000a81548163ffffffff021916908363ffffffff160217905550505050505050565b600080600080600080600080600454600560009054906101000a900463ffffffff16600560049054906101000a900463ffffffff16600560089054906101000a900463ffffffff166005600c9054906101000a900463ffffffff16600560109054906101000a900460ff16600654600760009054906101000a900460ff16975097509750975097509750975097509091929394959697565b61110661145e565b61110f8161175d565b50565b61111a61145e565b7f000000000000000000000000000000000000000000000000000000000000000073ffffffffffffffffffffffffffffffffffffffff1663a9059cbb83836040518363ffffffff1660e01b81526004016111759291906122c8565b602060405180830381600087803b15801561118f57600080fd5b505af11580156111a3573d6000803e3d6000fd5b505050506040513d601f19601f820116820180604052508101906111c79190611bbd565b505050565b60025481565b6000600860008481526020019081526020016000206040518060a00160405290816000820160009054906101000a900473ffffffffffffffffffffffffffffffffffffffff1673ffffffffffffffffffffffffffffffffffffffff1673ffffffffffffffffffffffffffffffffffffffff1681526020016000820160149054906101000a900463ffffffff1663ffffffff1663ffffffff1681526020016001820154815260200160028201548152602001600382015481525050905060086000848152602001908152602001600020600080820160006101000a81549073ffffffffffffffffffffffffffffffffffffffff02191690556000820160146101000a81549063ffffffff02191690556001820160009055600282016000905560038201600090555050600073ffffffffffffffffffffffffffffffffffffffff16816000015173ffffffffffffffffffffffffffffffffffffffff16141561136e576040517f08c379a0000000000000000000000000000000000000000000000000000000008152600401611365906124a3565b60405180910390fd5b600080631fe543e360e01b858560405160240161138c9291906125fe565b604051602081830303815290604052907bffffffffffffffffffffffffffffffffffffffffffffffffffffffff19166020820180517bffffffffffffffffffffffffffffffffffffffffffffffffffffffff838183161783525050505090506000611406846020015163ffffffff1685600001518461188a565b90508061145657836000015173ffffffffffffffffffffffffffffffffffffffff16867fc551b83c151f2d1c7eeb938ac59008e0409f1c1dc1e2f112449d4d79b458902260405160405180910390a35b505050505050565b60008054906101000a900473ffffffffffffffffffffffffffffffffffffffff1673ffffffffffffffffffffffffffffffffffffffff163373ffffffffffffffffffffffffffffffffffffffff16146114ec576040517f08c379a00000000000000000000000000000000000000000000000000000000081526004016114e390612503565b60405180910390fd5b565b6000806000600560009054906101000a900463ffffffff1663ffffffff161190506000807f000000000000000000000000000000000000000000000000000000000000000073ffffffffffffffffffffffffffffffffffffffff1663feaf968c6040518163ffffffff1660e01b815260040160a06040518083038186803b15801561157857600080fd5b505afa15801561158c573d6000803e3d6000fd5b505050506040513d601f19601f820116820180604052508101906115b09190611f39565b90919293509091505080935081925050508280156115f0575081426115d59190612872565b600560009054906101000a900463ffffffff1663ffffffff16105b156115fb5760045490505b600081121561163f576040517f08c379a000000000000000000000000000000000000000000000000000000000815260040161163690612523565b60405180910390fd5b80935050505090565b600080826005600c9054906101000a900463ffffffff1663ffffffff16600560089054906101000a900463ffffffff1663ffffffff168761168991906126ef565b61169391906126ef565b85670de0b6b3a76400006116a79190612818565b6116b19190612818565b6116bb91906127b6565b90506000606480600560109054906101000a900460ff166116dc919061277f565b60ff16836116ea9190612818565b6116f491906127b6565b90506000600560049054906101000a900463ffffffff1663ffffffff1664e8d4a510006117219190612818565b8261172c91906126ef565b90508093505050509392505050565b60006001603f8361174c91906127e7565b6117569190612745565b9050919050565b3373ffffffffffffffffffffffffffffffffffffffff168173ffffffffffffffffffffffffffffffffffffffff1614156117cc576040517f08c379a00000000000000000000000000000000000000000000000000000000081526004016117c390612563565b60405180910390fd5b80600160006101000a81548173ffffffffffffffffffffffffffffffffffffffff021916908373ffffffffffffffffffffffffffffffffffffffff1602179055508073ffffffffffffffffffffffffffffffffffffffff1660008054906101000a900473ffffffffffffffffffffffffffffffffffffffff1673ffffffffffffffffffffffffffffffffffffffff167fed8889f560326eb138920d842192f0eb3dd22b4f139c87a2c57538e05bae127860405160405180910390a350565b60005a61138881101561189c57600080fd5b6113888103905084604082048203116118b457600080fd5b833b6118bf57600080fd5b6000808451602086016000888af19150509392505050565b60006118ea6118e58461266e565b612649565b9050808382526020820190508285602086028201111561190d5761190c612abb565b5b60005b8581101561193d57816119238882611a5e565b845260208401935060208301925050600181019050611910565b5050509392505050565b60008135905061195681612c75565b92915050565b600082601f83011261197157611970612ab6565b5b81356119818482602086016118d7565b91505092915050565b60008151905061199981612c8c565b92915050565b6000813590506119ae81612ca3565b92915050565b60008083601f8401126119ca576119c9612ab6565b5b8235905067ffffffffffffffff8111156119e7576119e6612ab1565b5b602083019150836001820283011115611a0357611a02612abb565b5b9250929050565b600081519050611a1981612cba565b92915050565b600081359050611a2e81612cd1565b92915050565b600081519050611a4381612cd1565b92915050565b600081519050611a5881612ce8565b92915050565b600081359050611a6d81612cff565b92915050565b600081519050611a8281612cff565b92915050565b600081359050611a9781612d16565b92915050565b600081519050611aac81612d16565b92915050565b600081359050611ac181612d2d565b92915050565b600081519050611ad681612d44565b92915050565b600060208284031215611af257611af1612ac5565b5b6000611b0084828501611947565b91505092915050565b60008060408385031215611b2057611b1f612ac5565b5b6000611b2e85828601611947565b9250506020611b3f85828601611a5e565b9150509250929050565b60008060008060608587031215611b6357611b62612ac5565b5b6000611b7187828801611947565b9450506020611b8287828801611a5e565b935050604085013567ffffffffffffffff811115611ba357611ba2612ac0565b5b611baf878288016119b4565b925092505092959194509250565b600060208284031215611bd357611bd2612ac5565b5b6000611be18482850161198a565b91505092915050565b600060208284031215611c0057611bff612ac5565b5b6000611c0e84828501611a0a565b91505092915050565b60008060008060808587031215611c3157611c30612ac5565b5b6000611c3f87828801611a34565b9450506020611c5087828801611a9d565b9350506040611c6187828801611a9d565b9250506060611c7287828801611a9d565b91505092959194509250565b600060208284031215611c9457611c93612ac5565b5b6000611ca284828501611a5e565b91505092915050565b600060208284031215611cc157611cc0612ac5565b5b6000611ccf84828501611a73565b91505092915050565b60008060408385031215611cef57611cee612ac5565b5b6000611cfd85828601611a5e565b925050602083013567ffffffffffffffff811115611d1e57611d1d612ac0565b5b611d2a8582860161195c565b9150509250929050565b600060208284031215611d4a57611d49612ac5565b5b6000611d5884828501611a88565b91505092915050565b600080600060608486031215611d7a57611d79612ac5565b5b6000611d8886828701611a88565b9350506020611d9986828701611a1f565b9250506040611daa86828701611a88565b9150509250925092565b60008060408385031215611dcb57611dca612ac5565b5b6000611dd985828601611a88565b9250506020611dea85828601611a5e565b9150509250929050565b60008060008060008060008060006101208a8c031215611e1757611e16612ac5565b5b6000611e258c828d01611a9d565b9950506020611e368c828d01611a9d565b9850506040611e478c828d01611a9d565b9750506060611e588c828d01611a9d565b9650506080611e698c828d01611a9d565b95505060a0611e7a8c828d01611a49565b94505060c0611e8b8c828d01611a49565b93505060e0611e9c8c828d01611a49565b925050610100611eae8c828d01611a49565b9150509295985092959850929598565b600080600080600060a08688031215611eda57611ed9612ac5565b5b6000611ee888828901611a88565b9550506020611ef988828901611a88565b9450506040611f0a88828901611ab2565b9350506060611f1b8882890161199f565b9250506080611f2c88828901611ab2565b9150509295509295909350565b600080600080600060a08688031215611f5557611f54612ac5565b5b6000611f6388828901611ac7565b9550506020611f7488828901611a0a565b9450506040611f8588828901611a73565b9350506060611f9688828901611a73565b9250506080611fa788828901611ac7565b9150509295509295909350565b6000611fc08383612239565b60208301905092915050565b611fd5816128a6565b82525050565b6000611fe6826126aa565b611ff081856126cd565b9350611ffb8361269a565b8060005b8381101561202c5781516120138882611fb4565b975061201e836126c0565b925050600181019050611fff565b5085935050505092915050565b612042816128b8565b82525050565b612051816128c4565b82525050565b61206081612966565b82525050565b61206f81612978565b82525050565b61207e8161298a565b82525050565b61208d816128ce565b82525050565b600061209e826126b5565b6120a881856126de565b93506120b88185602086016129c0565b6120c181612aca565b840191505092915050565b60006120d96011836126de565b91506120e482612adb565b602082019050919050565b60006120fc6019836126de565b915061210782612b04565b602082019050919050565b600061211f6016836126de565b915061212a82612b2d565b602082019050919050565b60006121426016836126de565b915061214d82612b56565b602082019050919050565b60006121656016836126de565b915061217082612b7f565b602082019050919050565b6000612188600b836126de565b915061219382612ba8565b602082019050919050565b60006121ab6017836126de565b91506121b682612bd1565b602082019050919050565b60006121ce6017836126de565b91506121d982612bfa565b602082019050919050565b60006121f16011836126de565b91506121fc82612c23565b602082019050919050565b60006122146013836126de565b915061221f82612c4c565b602082019050919050565b612233816128d8565b82525050565b61224281612915565b82525050565b61225181612915565b82525050565b6122608161291f565b82525050565b61226f8161292f565b82525050565b61227e81612943565b82525050565b60006020820190506122996000830184611fcc565b92915050565b60006040820190506122b46000830185611fcc565b6122c16020830184611fcc565b9392505050565b60006040820190506122dd6000830185611fcc565b6122ea6020830184612248565b9392505050565b600060a0820190506123066000830188611fcc565b6123136020830187612257565b6123206040830186612248565b61232d6060830185612084565b61233a6080830184612248565b9695505050505050565b60006020820190506123596000830184612039565b92915050565b600060a0820190506123746000830188612048565b6123816020830187612266565b61238e604083018661222a565b61239b6060830185612257565b6123a86080830184612257565b9695505050505050565b60006020820190506123c76000830184612057565b92915050565b60006020820190506123e26000830184612066565b92915050565b60006020820190506123fd6000830184612075565b92915050565b600061010082019050612419600083018b612084565b612426602083018a612257565b6124336040830189612257565b6124406060830188612257565b61244d6080830187612257565b61245a60a0830186612275565b61246760c0830185612048565b61247460e0830184612275565b9998505050505050505050565b6000602082019050818103600083015261249b8184612093565b905092915050565b600060208201905081810360008301526124bc816120cc565b9050919050565b600060208201905081810360008301526124dc816120ef565b9050919050565b600060208201905081810360008301526124fc81612112565b9050919050565b6000602082019050818103600083015261251c81612135565b9050919050565b6000602082019050818103600083015261253c81612158565b9050919050565b6000602082019050818103600083015261255c8161217b565b9050919050565b6000602082019050818103600083015261257c8161219e565b9050919050565b6000602082019050818103600083015261259c816121c1565b9050919050565b600060208201905081810360008301526125bc816121e4565b9050919050565b600060208201905081810360008301526125dc81612207565b9050919050565b60006020820190506125f86000830184612248565b92915050565b60006040820190506126136000830185612248565b81810360208301526126258184611fdb565b90509392505050565b60006020820190506126436000830184612266565b92915050565b6000612653612664565b905061265f82826129f3565b919050565b6000604051905090565b600067ffffffffffffffff82111561268957612688612a82565b5b602082029050602081019050919050565b6000819050602082019050919050565b600081519050919050565b600081519050919050565b6000602082019050919050565b600082825260208201905092915050565b600082825260208201905092915050565b60006126fa82612915565b915061270583612915565b9250827fffffffffffffffffffffffffffffffffffffffffffffffffffffffffffffffff0382111561273a57612739612a24565b5b828201905092915050565b60006127508261291f565b915061275b8361291f565b92508263ffffffff0382111561277457612773612a24565b5b828201905092915050565b600061278a82612943565b915061279583612943565b92508260ff038211156127ab576127aa612a24565b5b828201905092915050565b60006127c182612915565b91506127cc83612915565b9250826127dc576127db612a53565b5b828204905092915050565b60006127f28261291f565b91506127fd8361291f565b92508261280d5761280c612a53565b5b828204905092915050565b600061282382612915565b915061282e83612915565b9250817fffffffffffffffffffffffffffffffffffffffffffffffffffffffffffffffff048311821515161561286757612866612a24565b5b828202905092915050565b600061287d82612915565b915061288883612915565b92508282101561289b5761289a612a24565b5b828203905092915050565b60006128b1826128e6565b9050919050565b60008115159050919050565b6000819050919050565b6000819050919050565b600061ffff82169050919050565b600073ffffffffffffffffffffffffffffffffffffffff82169050919050565b600062ffffff82169050919050565b6000819050919050565b600063ffffffff82169050919050565b600067ffffffffffffffff82169050919050565b600060ff82169050919050565b600069ffffffffffffffffffff82169050919050565b60006129718261299c565b9050919050565b60006129838261299c565b9050919050565b60006129958261299c565b9050919050565b60006129a7826129ae565b9050919050565b60006129b9826128e6565b9050919050565b60005b838110156129de5780820151818401526020810190506129c3565b838111156129ed576000848401525b50505050565b6129fc82612aca565b810181811067ffffffffffffffff82111715612a1b57612a1a612a82565b5b80604052505050565b7f4e487b7100000000000000000000000000000000000000000000000000000000600052601160045260246000fd5b7f4e487b7100000000000000000000000000000000000000000000000000000000600052601260045260246000fd5b7f4e487b7100000000000000000000000000000000000000000000000000000000600052604160045260246000fd5b600080fd5b600080fd5b600080fd5b600080fd5b600080fd5b6000601f19601f8301169050919050565b7f72657175657374206e6f7420666f756e64000000000000000000000000000000600082015250565b7f77726170706572206973206e6f7420636f6e6669677572656400000000000000600082015250565b7f4d7573742062652070726f706f736564206f776e657200000000000000000000600082015250565b7f4f6e6c792063616c6c61626c65206279206f776e657200000000000000000000600082015250565b7f496e76616c6964204c494e4b2077656920707269636500000000000000000000600082015250565b7f66656520746f6f206c6f77000000000000000000000000000000000000000000600082015250565b7f43616e6e6f74207472616e7366657220746f2073656c66000000000000000000600082015250565b7f6f6e6c792063616c6c61626c652066726f6d204c494e4b000000000000000000600082015250565b7f6e756d576f72647320746f6f2068696768000000000000000000000000000000600082015250565b7f777261707065722069732064697361626c656400000000000000000000000000600082015250565b612c7e816128a6565b8114612c8957600080fd5b50565b612c95816128b8565b8114612ca057600080fd5b50565b612cac816128c4565b8114612cb757600080fd5b50565b612cc3816128ce565b8114612cce57600080fd5b50565b612cda816128d8565b8114612ce557600080fd5b50565b612cf181612906565b8114612cfc57600080fd5b50565b612d0881612915565b8114612d1357600080fd5b50565b612d1f8161291f565b8114612d2a57600080fd5b50565b612d3681612943565b8114612d4157600080fd5b50565b612d4d81612950565b8114612d5857600080fd5b5056fea2646970667358221220ffa83b76ebbdac90a97e8df40491b0ccf326baa2a2414e79fa7a84bfb82c148964736f6c63430008070033","opcodes":"PUSH2 0x120 PUSH1 0x40 MSTORE CALLVALUE DUP1 ISZERO PUSH3 0x12 JUMPI PUSH1 0x0 DUP1 REVERT JUMPDEST POP PUSH1 0x40 MLOAD PUSH3 0x350E CODESIZE SUB DUP1 PUSH3 0x350E DUP4 CODECOPY DUP2 DUP2 ADD PUSH1 0x40 MSTORE DUP2 ADD SWAP1 PUSH3 0x38 SWAP2 SWAP1 PUSH3 0x497 JUMP JUMPDEST DUP1 CALLER DUP1 PUSH1 0x0 DUP1 PUSH20 0xFFFFFFFFFFFFFFFFFFFFFFFFFFFFFFFFFFFFFFFF AND DUP3 PUSH20 0xFFFFFFFFFFFFFFFFFFFFFFFFFFFFFFFFFFFFFFFF AND EQ ISZERO PUSH3 0xAF JUMPI PUSH1 0x40 MLOAD PUSH32 0x8C379A000000000000000000000000000000000000000000000000000000000 DUP2 MSTORE PUSH1 0x4 ADD PUSH3 0xA6 SWAP1 PUSH3 0x595 JUMP JUMPDEST PUSH1 0x40 MLOAD DUP1 SWAP2 SUB SWAP1 REVERT JUMPDEST DUP2 PUSH1 0x0 DUP1 PUSH2 0x100 EXP DUP2 SLOAD DUP2 PUSH20 0xFFFFFFFFFFFFFFFFFFFFFFFFFFFFFFFFFFFFFFFF MUL NOT AND SWAP1 DUP4 PUSH20 0xFFFFFFFFFFFFFFFFFFFFFFFFFFFFFFFFFFFFFFFF AND MUL OR SWAP1 SSTORE POP PUSH1 0x0 PUSH20 0xFFFFFFFFFFFFFFFFFFFFFFFFFFFFFFFFFFFFFFFF AND DUP2 PUSH20 0xFFFFFFFFFFFFFFFFFFFFFFFFFFFFFFFFFFFFFFFF AND EQ PUSH3 0x136 JUMPI PUSH3 0x135 DUP2 PUSH3 0x339 PUSH1 0x20 SHL PUSH1 0x20 SHR JUMP JUMPDEST JUMPDEST POP POP POP DUP1 PUSH20 0xFFFFFFFFFFFFFFFFFFFFFFFFFFFFFFFFFFFFFFFF AND PUSH1 0x80 DUP2 PUSH20 0xFFFFFFFFFFFFFFFFFFFFFFFFFFFFFFFFFFFFFFFF AND PUSH1 0x60 SHL DUP2 MSTORE POP POP POP DUP3 PUSH20 0xFFFFFFFFFFFFFFFFFFFFFFFFFFFFFFFFFFFFFFFF AND PUSH1 0xA0 DUP2 PUSH20 0xFFFFFFFFFFFFFFFFFFFFFFFFFFFFFFFFFFFFFFFF AND PUSH1 0x60 SHL DUP2 MSTORE POP POP DUP2 PUSH20 0xFFFFFFFFFFFFFFFFFFFFFFFFFFFFFFFFFFFFFFFF AND PUSH1 0xC0 DUP2 PUSH20 0xFFFFFFFFFFFFFFFFFFFFFFFFFFFFFFFFFFFFFFFF AND PUSH1 0x60 SHL DUP2 MSTORE POP POP DUP1 PUSH20 0xFFFFFFFFFFFFFFFFFFFFFFFFFFFFFFFFFFFFFFFF AND PUSH1 0xE0 DUP2 PUSH20 0xFFFFFFFFFFFFFFFFFFFFFFFFFFFFFFFFFFFFFFFF AND PUSH1 0x60 SHL DUP2 MSTORE POP POP PUSH1 0x0 DUP2 PUSH20 0xFFFFFFFFFFFFFFFFFFFFFFFFFFFFFFFFFFFFFFFF AND PUSH4 0xA21A23E4 PUSH1 0x40 MLOAD DUP2 PUSH4 0xFFFFFFFF AND PUSH1 0xE0 SHL DUP2 MSTORE PUSH1 0x4 ADD PUSH1 0x20 PUSH1 0x40 MLOAD DUP1 DUP4 SUB DUP2 PUSH1 0x0 DUP8 DUP1 EXTCODESIZE ISZERO DUP1 ISZERO PUSH3 0x261 JUMPI PUSH1 0x0 DUP1 REVERT JUMPDEST POP GAS CALL ISZERO DUP1 ISZERO PUSH3 0x276 JUMPI RETURNDATASIZE PUSH1 0x0 DUP1 RETURNDATACOPY RETURNDATASIZE PUSH1 0x0 REVERT JUMPDEST POP POP POP POP PUSH1 0x40 MLOAD RETURNDATASIZE PUSH1 0x1F NOT PUSH1 0x1F DUP3 ADD AND DUP3 ADD DUP1 PUSH1 0x40 MSTORE POP DUP2 ADD SWAP1 PUSH3 0x29C SWAP2 SWAP1 PUSH3 0x4F3 JUMP JUMPDEST SWAP1 POP DUP1 PUSH8 0xFFFFFFFFFFFFFFFF AND PUSH2 0x100 DUP2 PUSH8 0xFFFFFFFFFFFFFFFF AND PUSH1 0xC0 SHL DUP2 MSTORE POP POP DUP2 PUSH20 0xFFFFFFFFFFFFFFFFFFFFFFFFFFFFFFFFFFFFFFFF AND PUSH4 0x7341C10C DUP3 ADDRESS PUSH1 0x40 MLOAD DUP4 PUSH4 0xFFFFFFFF AND PUSH1 0xE0 SHL DUP2 MSTORE PUSH1 0x4 ADD PUSH3 0x2FB SWAP3 SWAP2 SWAP1 PUSH3 0x5D9 JUMP JUMPDEST PUSH1 0x0 PUSH1 0x40 MLOAD DUP1 DUP4 SUB DUP2 PUSH1 0x0 DUP8 DUP1 EXTCODESIZE ISZERO DUP1 ISZERO PUSH3 0x316 JUMPI PUSH1 0x0 DUP1 REVERT JUMPDEST POP GAS CALL ISZERO DUP1 ISZERO PUSH3 0x32B JUMPI RETURNDATASIZE PUSH1 0x0 DUP1 RETURNDATACOPY RETURNDATASIZE PUSH1 0x0 REVERT JUMPDEST POP POP POP POP POP POP POP POP PUSH3 0x6EA JUMP JUMPDEST CALLER PUSH20 0xFFFFFFFFFFFFFFFFFFFFFFFFFFFFFFFFFFFFFFFF AND DUP2 PUSH20 0xFFFFFFFFFFFFFFFFFFFFFFFFFFFFFFFFFFFFFFFF AND EQ ISZERO PUSH3 0x3AB JUMPI PUSH1 0x40 MLOAD PUSH32 0x8C379A000000000000000000000000000000000000000000000000000000000 DUP2 MSTORE PUSH1 0x4 ADD PUSH3 0x3A2 SWAP1 PUSH3 0x5B7 JUMP JUMPDEST PUSH1 0x40 MLOAD DUP1 SWAP2 SUB SWAP1 REVERT JUMPDEST DUP1 PUSH1 0x1 PUSH1 0x0 PUSH2 0x100 EXP DUP2 SLOAD DUP2 PUSH20 0xFFFFFFFFFFFFFFFFFFFFFFFFFFFFFFFFFFFFFFFF MUL NOT AND SWAP1 DUP4 PUSH20 0xFFFFFFFFFFFFFFFFFFFFFFFFFFFFFFFFFFFFFFFF AND MUL OR SWAP1 SSTORE POP DUP1 PUSH20 0xFFFFFFFFFFFFFFFFFFFFFFFFFFFFFFFFFFFFFFFF AND PUSH1 0x0 DUP1 SLOAD SWAP1 PUSH2 0x100 EXP SWAP1 DIV PUSH20 0xFFFFFFFFFFFFFFFFFFFFFFFFFFFFFFFFFFFFFFFF AND PUSH20 0xFFFFFFFFFFFFFFFFFFFFFFFFFFFFFFFFFFFFFFFF AND PUSH32 0xED8889F560326EB138920D842192F0EB3DD22B4F139C87A2C57538E05BAE1278 PUSH1 0x40 MLOAD PUSH1 0x40 MLOAD DUP1 SWAP2 SUB SWAP1 LOG3 POP JUMP JUMPDEST PUSH1 0x0 DUP2 MLOAD SWAP1 POP PUSH3 0x47A DUP2 PUSH3 0x6B6 JUMP JUMPDEST SWAP3 SWAP2 POP POP JUMP JUMPDEST PUSH1 0x0 DUP2 MLOAD SWAP1 POP PUSH3 0x491 DUP2 PUSH3 0x6D0 JUMP JUMPDEST SWAP3 SWAP2 POP POP JUMP JUMPDEST PUSH1 0x0 DUP1 PUSH1 0x0 PUSH1 0x60 DUP5 DUP7 SUB SLT ISZERO PUSH3 0x4B3 JUMPI PUSH3 0x4B2 PUSH3 0x65F JUMP JUMPDEST JUMPDEST PUSH1 0x0 PUSH3 0x4C3 DUP7 DUP3 DUP8 ADD PUSH3 0x469 JUMP JUMPDEST SWAP4 POP POP PUSH1 0x20 PUSH3 0x4D6 DUP7 DUP3 DUP8 ADD PUSH3 0x469 JUMP JUMPDEST SWAP3 POP POP PUSH1 0x40 PUSH3 0x4E9 DUP7 DUP3 DUP8 ADD PUSH3 0x469 JUMP JUMPDEST SWAP2 POP POP SWAP3 POP SWAP3 POP SWAP3 JUMP JUMPDEST PUSH1 0x0 PUSH1 0x20 DUP3 DUP5 SUB SLT ISZERO PUSH3 0x50C JUMPI PUSH3 0x50B PUSH3 0x65F JUMP JUMPDEST JUMPDEST PUSH1 0x0 PUSH3 0x51C DUP5 DUP3 DUP6 ADD PUSH3 0x480 JUMP JUMPDEST SWAP2 POP POP SWAP3 SWAP2 POP POP JUMP JUMPDEST PUSH3 0x530 DUP2 PUSH3 0x617 JUMP JUMPDEST DUP3 MSTORE POP POP JUMP JUMPDEST PUSH1 0x0 PUSH3 0x545 PUSH1 0x18 DUP4 PUSH3 0x606 JUMP JUMPDEST SWAP2 POP PUSH3 0x552 DUP3 PUSH3 0x664 JUMP JUMPDEST PUSH1 0x20 DUP3 ADD SWAP1 POP SWAP2 SWAP1 POP JUMP JUMPDEST PUSH1 0x0 PUSH3 0x56C PUSH1 0x17 DUP4 PUSH3 0x606 JUMP JUMPDEST SWAP2 POP PUSH3 0x579 DUP3 PUSH3 0x68D JUMP JUMPDEST PUSH1 0x20 DUP3 ADD SWAP1 POP SWAP2 SWAP1 POP JUMP JUMPDEST PUSH3 0x58F DUP2 PUSH3 0x64B JUMP JUMPDEST DUP3 MSTORE POP POP JUMP JUMPDEST PUSH1 0x0 PUSH1 0x20 DUP3 ADD SWAP1 POP DUP2 DUP2 SUB PUSH1 0x0 DUP4 ADD MSTORE PUSH3 0x5B0 DUP2 PUSH3 0x536 JUMP JUMPDEST SWAP1 POP SWAP2 SWAP1 POP JUMP JUMPDEST PUSH1 0x0 PUSH1 0x20 DUP3 ADD SWAP1 POP DUP2 DUP2 SUB PUSH1 0x0 DUP4 ADD MSTORE PUSH3 0x5D2 DUP2 PUSH3 0x55D JUMP JUMPDEST SWAP1 POP SWAP2 SWAP1 POP JUMP JUMPDEST PUSH1 0x0 PUSH1 0x40 DUP3 ADD SWAP1 POP PUSH3 0x5F0 PUSH1 0x0 DUP4 ADD DUP6 PUSH3 0x584 JUMP JUMPDEST PUSH3 0x5FF PUSH1 0x20 DUP4 ADD DUP5 PUSH3 0x525 JUMP JUMPDEST SWAP4 SWAP3 POP POP POP JUMP JUMPDEST PUSH1 0x0 DUP3 DUP3 MSTORE PUSH1 0x20 DUP3 ADD SWAP1 POP SWAP3 SWAP2 POP POP JUMP JUMPDEST PUSH1 0x0 PUSH3 0x624 DUP3 PUSH3 0x62B JUMP JUMPDEST SWAP1 POP SWAP2 SWAP1 POP JUMP JUMPDEST PUSH1 0x0 PUSH20 0xFFFFFFFFFFFFFFFFFFFFFFFFFFFFFFFFFFFFFFFF DUP3 AND SWAP1 POP SWAP2 SWAP1 POP JUMP JUMPDEST PUSH1 0x0 PUSH8 0xFFFFFFFFFFFFFFFF DUP3 AND SWAP1 POP SWAP2 SWAP1 POP JUMP JUMPDEST PUSH1 0x0 DUP1 REVERT JUMPDEST PUSH32 0x43616E6E6F7420736574206F776E657220746F207A65726F0000000000000000 PUSH1 0x0 DUP3 ADD MSTORE POP JUMP JUMPDEST PUSH32 0x43616E6E6F74207472616E7366657220746F2073656C66000000000000000000 PUSH1 0x0 DUP3 ADD MSTORE POP JUMP JUMPDEST PUSH3 0x6C1 DUP2 PUSH3 0x617 JUMP JUMPDEST DUP2 EQ PUSH3 0x6CD JUMPI PUSH1 0x0 DUP1 REVERT JUMPDEST POP JUMP JUMPDEST PUSH3 0x6DB DUP2 PUSH3 0x64B JUMP JUMPDEST DUP2 EQ PUSH3 0x6E7 JUMPI PUSH1 0x0 DUP1 REVERT JUMPDEST POP JUMP JUMPDEST PUSH1 0x80 MLOAD PUSH1 0x60 SHR PUSH1 0xA0 MLOAD PUSH1 0x60 SHR PUSH1 0xC0 MLOAD PUSH1 0x60 SHR PUSH1 0xE0 MLOAD PUSH1 0x60 SHR PUSH2 0x100 MLOAD PUSH1 0xC0 SHR PUSH2 0x2D91 PUSH3 0x77D PUSH1 0x0 CODECOPY PUSH1 0x0 DUP2 DUP2 PUSH2 0x3AF ADD MSTORE PUSH2 0xB7A ADD MSTORE PUSH1 0x0 DUP2 DUP2 PUSH2 0x519 ADD MSTORE DUP2 DUP2 PUSH2 0xB3B ADD MSTORE DUP2 DUP2 PUSH2 0xE0C ADD MSTORE DUP2 DUP2 PUSH2 0xED6 ADD MSTORE PUSH2 0xF7A ADD MSTORE PUSH1 0x0 DUP2 DUP2 PUSH2 0xD46 ADD MSTORE PUSH2 0x1514 ADD MSTORE PUSH1 0x0 DUP2 DUP2 PUSH2 0x410 ADD MSTORE DUP2 DUP2 PUSH2 0x9C5 ADD MSTORE PUSH2 0x111C ADD MSTORE PUSH1 0x0 DUP2 DUP2 PUSH2 0x434 ADD MSTORE PUSH2 0x488 ADD MSTORE PUSH2 0x2D91 PUSH1 0x0 RETURN INVALID PUSH1 0x80 PUSH1 0x40 MSTORE CALLVALUE DUP1 ISZERO PUSH2 0x10 JUMPI PUSH1 0x0 DUP1 REVERT JUMPDEST POP PUSH1 0x4 CALLDATASIZE LT PUSH2 0x137 JUMPI PUSH1 0x0 CALLDATALOAD PUSH1 0xE0 SHR DUP1 PUSH4 0x7FB5D19D GT PUSH2 0xB8 JUMPI DUP1 PUSH4 0xAD178361 GT PUSH2 0x7C JUMPI DUP1 PUSH4 0xAD178361 EQ PUSH2 0x2F8 JUMPI DUP1 PUSH4 0xC15CE4D7 EQ PUSH2 0x316 JUMPI DUP1 PUSH4 0xC3F909D4 EQ PUSH2 0x332 JUMPI DUP1 PUSH4 0xF2FDE38B EQ PUSH2 0x357 JUMPI DUP1 PUSH4 0xF3FEF3A3 EQ PUSH2 0x373 JUMPI DUP1 PUSH4 0xFC2A88C3 EQ PUSH2 0x38F JUMPI PUSH2 0x137 JUMP JUMPDEST DUP1 PUSH4 0x7FB5D19D EQ PUSH2 0x266 JUMPI DUP1 PUSH4 0x8DA5CB5B EQ PUSH2 0x296 JUMPI DUP1 PUSH4 0xA3907D71 EQ PUSH2 0x2B4 JUMPI DUP1 PUSH4 0xA4C0ED36 EQ PUSH2 0x2BE JUMPI DUP1 PUSH4 0xA608A1E1 EQ PUSH2 0x2DA JUMPI PUSH2 0x137 JUMP JUMPDEST DUP1 PUSH4 0x3B2BCBF1 GT PUSH2 0xFF JUMPI DUP1 PUSH4 0x3B2BCBF1 EQ PUSH2 0x1BC JUMPI DUP1 PUSH4 0x4306D354 EQ PUSH2 0x1DA JUMPI DUP1 PUSH4 0x48BAA1C5 EQ PUSH2 0x20A JUMPI DUP1 PUSH4 0x57A8070A EQ PUSH2 0x23E JUMPI DUP1 PUSH4 0x79BA5097 EQ PUSH2 0x25C JUMPI PUSH2 0x137 JUMP JUMPDEST DUP1 PUSH4 0x30932BB EQ PUSH2 0x13C JUMPI DUP1 PUSH4 0x181F5A77 EQ PUSH2 0x15A JUMPI DUP1 PUSH4 0x1B6B6D23 EQ PUSH2 0x178 JUMPI DUP1 PUSH4 0x1FE543E3 EQ PUSH2 0x196 JUMPI DUP1 PUSH4 0x2F2770DB EQ PUSH2 0x1B2 JUMPI JUMPDEST PUSH1 0x0 DUP1 REVERT JUMPDEST PUSH2 0x144 PUSH2 0x3AD JUMP JUMPDEST PUSH1 0x40 MLOAD PUSH2 0x151 SWAP2 SWAP1 PUSH2 0x262E JUMP JUMPDEST PUSH1 0x40 MLOAD DUP1 SWAP2 SUB SWAP1 RETURN JUMPDEST PUSH2 0x162 PUSH2 0x3D1 JUMP JUMPDEST PUSH1 0x40 MLOAD PUSH2 0x16F SWAP2 SWAP1 PUSH2 0x2481 JUMP JUMPDEST PUSH1 0x40 MLOAD DUP1 SWAP2 SUB SWAP1 RETURN JUMPDEST PUSH2 0x180 PUSH2 0x40E JUMP JUMPDEST PUSH1 0x40 MLOAD PUSH2 0x18D SWAP2 SWAP1 PUSH2 0x23E8 JUMP JUMPDEST PUSH1 0x40 MLOAD DUP1 SWAP2 SUB SWAP1 RETURN JUMPDEST PUSH2 0x1B0 PUSH1 0x4 DUP1 CALLDATASIZE SUB DUP2 ADD SWAP1 PUSH2 0x1AB SWAP2 SWAP1 PUSH2 0x1CD8 JUMP JUMPDEST PUSH2 0x432 JUMP JUMPDEST STOP JUMPDEST PUSH2 0x1BA PUSH2 0x4F2 JUMP JUMPDEST STOP JUMPDEST PUSH2 0x1C4 PUSH2 0x517 JUMP JUMPDEST PUSH1 0x40 MLOAD PUSH2 0x1D1 SWAP2 SWAP1 PUSH2 0x23CD JUMP JUMPDEST PUSH1 0x40 MLOAD DUP1 SWAP2 SUB SWAP1 RETURN JUMPDEST PUSH2 0x1F4 PUSH1 0x4 DUP1 CALLDATASIZE SUB DUP2 ADD SWAP1 PUSH2 0x1EF SWAP2 SWAP1 PUSH2 0x1D34 JUMP JUMPDEST PUSH2 0x53B JUMP JUMPDEST PUSH1 0x40 MLOAD PUSH2 0x201 SWAP2 SWAP1 PUSH2 0x25E3 JUMP JUMPDEST PUSH1 0x40 MLOAD DUP1 SWAP2 SUB SWAP1 RETURN JUMPDEST PUSH2 0x224 PUSH1 0x4 DUP1 CALLDATASIZE SUB DUP2 ADD SWAP1 PUSH2 0x21F SWAP2 SWAP1 PUSH2 0x1C7E JUMP JUMPDEST PUSH2 0x601 JUMP JUMPDEST PUSH1 0x40 MLOAD PUSH2 0x235 SWAP6 SWAP5 SWAP4 SWAP3 SWAP2 SWAP1 PUSH2 0x22F1 JUMP JUMPDEST PUSH1 0x40 MLOAD DUP1 SWAP2 SUB SWAP1 RETURN JUMPDEST PUSH2 0x246 PUSH2 0x667 JUMP JUMPDEST PUSH1 0x40 MLOAD PUSH2 0x253 SWAP2 SWAP1 PUSH2 0x2344 JUMP JUMPDEST PUSH1 0x40 MLOAD DUP1 SWAP2 SUB SWAP1 RETURN JUMPDEST PUSH2 0x264 PUSH2 0x67A JUMP JUMPDEST STOP JUMPDEST PUSH2 0x280 PUSH1 0x4 DUP1 CALLDATASIZE SUB DUP2 ADD SWAP1 PUSH2 0x27B SWAP2 SWAP1 PUSH2 0x1DB4 JUMP JUMPDEST PUSH2 0x80F JUMP JUMPDEST PUSH1 0x40 MLOAD PUSH2 0x28D SWAP2 SWAP1 PUSH2 0x25E3 JUMP JUMPDEST PUSH1 0x40 MLOAD DUP1 SWAP2 SUB SWAP1 RETURN JUMPDEST PUSH2 0x29E PUSH2 0x8D6 JUMP JUMPDEST PUSH1 0x40 MLOAD PUSH2 0x2AB SWAP2 SWAP1 PUSH2 0x2284 JUMP JUMPDEST PUSH1 0x40 MLOAD DUP1 SWAP2 SUB SWAP1 RETURN JUMPDEST PUSH2 0x2BC PUSH2 0x8FF JUMP JUMPDEST STOP JUMPDEST PUSH2 0x2D8 PUSH1 0x4 DUP1 CALLDATASIZE SUB DUP2 ADD SWAP1 PUSH2 0x2D3 SWAP2 SWAP1 PUSH2 0x1B49 JUMP JUMPDEST PUSH2 0x924 JUMP JUMPDEST STOP JUMPDEST PUSH2 0x2E2 PUSH2 0xD31 JUMP JUMPDEST PUSH1 0x40 MLOAD PUSH2 0x2EF SWAP2 SWAP1 PUSH2 0x2344 JUMP JUMPDEST PUSH1 0x40 MLOAD DUP1 SWAP2 SUB SWAP1 RETURN JUMPDEST PUSH2 0x300 PUSH2 0xD44 JUMP JUMPDEST PUSH1 0x40 MLOAD PUSH2 0x30D SWAP2 SWAP1 PUSH2 0x23B2 JUMP JUMPDEST PUSH1 0x40 MLOAD DUP1 SWAP2 SUB SWAP1 RETURN JUMPDEST PUSH2 0x330 PUSH1 0x4 DUP1 CALLDATASIZE SUB DUP2 ADD SWAP1 PUSH2 0x32B SWAP2 SWAP1 PUSH2 0x1EBE JUMP JUMPDEST PUSH2 0xD68 JUMP JUMPDEST STOP JUMPDEST PUSH2 0x33A PUSH2 0x1066 JUMP JUMPDEST PUSH1 0x40 MLOAD PUSH2 0x34E SWAP9 SWAP8 SWAP7 SWAP6 SWAP5 SWAP4 SWAP3 SWAP2 SWAP1 PUSH2 0x2403 JUMP JUMPDEST PUSH1 0x40 MLOAD DUP1 SWAP2 SUB SWAP1 RETURN JUMPDEST PUSH2 0x371 PUSH1 0x4 DUP1 CALLDATASIZE SUB DUP2 ADD SWAP1 PUSH2 0x36C SWAP2 SWAP1 PUSH2 0x1ADC JUMP JUMPDEST PUSH2 0x10FE JUMP JUMPDEST STOP JUMPDEST PUSH2 0x38D PUSH1 0x4 DUP1 CALLDATASIZE SUB DUP2 ADD SWAP1 PUSH2 0x388 SWAP2 SWAP1 PUSH2 0x1B09 JUMP JUMPDEST PUSH2 0x1112 JUMP JUMPDEST STOP JUMPDEST PUSH2 0x397 PUSH2 0x11CC JUMP JUMPDEST PUSH1 0x40 MLOAD PUSH2 0x3A4 SWAP2 SWAP1 PUSH2 0x25E3 JUMP JUMPDEST PUSH1 0x40 MLOAD DUP1 SWAP2 SUB SWAP1 RETURN JUMPDEST PUSH32 0x0 DUP2 JUMP JUMPDEST PUSH1 0x60 PUSH1 0x40 MLOAD DUP1 PUSH1 0x40 ADD PUSH1 0x40 MSTORE DUP1 PUSH1 0x12 DUP2 MSTORE PUSH1 0x20 ADD PUSH32 0x56524656325772617070657220312E302E300000000000000000000000000000 DUP2 MSTORE POP SWAP1 POP SWAP1 JUMP JUMPDEST PUSH32 0x0 DUP2 JUMP JUMPDEST PUSH32 0x0 PUSH20 0xFFFFFFFFFFFFFFFFFFFFFFFFFFFFFFFFFFFFFFFF AND CALLER PUSH20 0xFFFFFFFFFFFFFFFFFFFFFFFFFFFFFFFFFFFFFFFF AND EQ PUSH2 0x4E4 JUMPI CALLER PUSH32 0x0 PUSH1 0x40 MLOAD PUSH32 0x1CF993F400000000000000000000000000000000000000000000000000000000 DUP2 MSTORE PUSH1 0x4 ADD PUSH2 0x4DB SWAP3 SWAP2 SWAP1 PUSH2 0x229F JUMP JUMPDEST PUSH1 0x40 MLOAD DUP1 SWAP2 SUB SWAP1 REVERT JUMPDEST PUSH2 0x4EE DUP3 DUP3 PUSH2 0x11D2 JUMP JUMPDEST POP POP JUMP JUMPDEST PUSH2 0x4FA PUSH2 0x145E JUMP JUMPDEST PUSH1 0x1 PUSH1 0x3 PUSH1 0x1 PUSH2 0x100 EXP DUP2 SLOAD DUP2 PUSH1 0xFF MUL NOT AND SWAP1 DUP4 ISZERO ISZERO MUL OR SWAP1 SSTORE POP JUMP JUMPDEST PUSH32 0x0 DUP2 JUMP JUMPDEST PUSH1 0x0 PUSH1 0x3 PUSH1 0x0 SWAP1 SLOAD SWAP1 PUSH2 0x100 EXP SWAP1 DIV PUSH1 0xFF AND PUSH2 0x58C JUMPI PUSH1 0x40 MLOAD PUSH32 0x8C379A000000000000000000000000000000000000000000000000000000000 DUP2 MSTORE PUSH1 0x4 ADD PUSH2 0x583 SWAP1 PUSH2 0x24C3 JUMP JUMPDEST PUSH1 0x40 MLOAD DUP1 SWAP2 SUB SWAP1 REVERT JUMPDEST PUSH1 0x3 PUSH1 0x1 SWAP1 SLOAD SWAP1 PUSH2 0x100 EXP SWAP1 DIV PUSH1 0xFF AND ISZERO PUSH2 0x5DC JUMPI PUSH1 0x40 MLOAD PUSH32 0x8C379A000000000000000000000000000000000000000000000000000000000 DUP2 MSTORE PUSH1 0x4 ADD PUSH2 0x5D3 SWAP1 PUSH2 0x25C3 JUMP JUMPDEST PUSH1 0x40 MLOAD DUP1 SWAP2 SUB SWAP1 REVERT JUMPDEST PUSH1 0x0 PUSH2 0x5E6 PUSH2 0x14EE JUMP JUMPDEST SWAP1 POP PUSH2 0x5F9 DUP4 PUSH4 0xFFFFFFFF AND GASPRICE DUP4 PUSH2 0x1648 JUMP JUMPDEST SWAP2 POP POP SWAP2 SWAP1 POP JUMP JUMPDEST PUSH1 0x8 PUSH1 0x20 MSTORE DUP1 PUSH1 0x0 MSTORE PUSH1 0x40 PUSH1 0x0 KECCAK256 PUSH1 0x0 SWAP2 POP SWAP1 POP DUP1 PUSH1 0x0 ADD PUSH1 0x0 SWAP1 SLOAD SWAP1 PUSH2 0x100 EXP SWAP1 DIV PUSH20 0xFFFFFFFFFFFFFFFFFFFFFFFFFFFFFFFFFFFFFFFF AND SWAP1 DUP1 PUSH1 0x0 ADD PUSH1 0x14 SWAP1 SLOAD SWAP1 PUSH2 0x100 EXP SWAP1 DIV PUSH4 0xFFFFFFFF AND SWAP1 DUP1 PUSH1 0x1 ADD SLOAD SWAP1 DUP1 PUSH1 0x2 ADD SLOAD SWAP1 DUP1 PUSH1 0x3 ADD SLOAD SWAP1 POP DUP6 JUMP JUMPDEST PUSH1 0x3 PUSH1 0x0 SWAP1 SLOAD SWAP1 PUSH2 0x100 EXP SWAP1 DIV PUSH1 0xFF AND DUP2 JUMP JUMPDEST PUSH1 0x1 PUSH1 0x0 SWAP1 SLOAD SWAP1 PUSH2 0x100 EXP SWAP1 DIV PUSH20 0xFFFFFFFFFFFFFFFFFFFFFFFFFFFFFFFFFFFFFFFF AND PUSH20 0xFFFFFFFFFFFFFFFFFFFFFFFFFFFFFFFFFFFFFFFF AND CALLER PUSH20 0xFFFFFFFFFFFFFFFFFFFFFFFFFFFFFFFFFFFFFFFF AND EQ PUSH2 0x70A JUMPI PUSH1 0x40 MLOAD PUSH32 0x8C379A000000000000000000000000000000000000000000000000000000000 DUP2 MSTORE PUSH1 0x4 ADD PUSH2 0x701 SWAP1 PUSH2 0x24E3 JUMP JUMPDEST PUSH1 0x40 MLOAD DUP1 SWAP2 SUB SWAP1 REVERT JUMPDEST PUSH1 0x0 DUP1 PUSH1 0x0 SWAP1 SLOAD SWAP1 PUSH2 0x100 EXP SWAP1 DIV PUSH20 0xFFFFFFFFFFFFFFFFFFFFFFFFFFFFFFFFFFFFFFFF AND SWAP1 POP CALLER PUSH1 0x0 DUP1 PUSH2 0x100 EXP DUP2 SLOAD DUP2 PUSH20 0xFFFFFFFFFFFFFFFFFFFFFFFFFFFFFFFFFFFFFFFF MUL NOT AND SWAP1 DUP4 PUSH20 0xFFFFFFFFFFFFFFFFFFFFFFFFFFFFFFFFFFFFFFFF AND MUL OR SWAP1 SSTORE POP PUSH1 0x0 PUSH1 0x1 PUSH1 0x0 PUSH2 0x100 EXP DUP2 SLOAD DUP2 PUSH20 0xFFFFFFFFFFFFFFFFFFFFFFFFFFFFFFFFFFFFFFFF MUL NOT AND SWAP1 DUP4 PUSH20 0xFFFFFFFFFFFFFFFFFFFFFFFFFFFFFFFFFFFFFFFF AND MUL OR SWAP1 SSTORE POP CALLER PUSH20 0xFFFFFFFFFFFFFFFFFFFFFFFFFFFFFFFFFFFFFFFF AND DUP2 PUSH20 0xFFFFFFFFFFFFFFFFFFFFFFFFFFFFFFFFFFFFFFFF AND PUSH32 0x8BE0079C531659141344CD1FD0A4F28419497F9722A3DAAFE3B4186F6B6457E0 PUSH1 0x40 MLOAD PUSH1 0x40 MLOAD DUP1 SWAP2 SUB SWAP1 LOG3 POP JUMP JUMPDEST PUSH1 0x0 PUSH1 0x3 PUSH1 0x0 SWAP1 SLOAD SWAP1 PUSH2 0x100 EXP SWAP1 DIV PUSH1 0xFF AND PUSH2 0x860 JUMPI PUSH1 0x40 MLOAD PUSH32 0x8C379A000000000000000000000000000000000000000000000000000000000 DUP2 MSTORE PUSH1 0x4 ADD PUSH2 0x857 SWAP1 PUSH2 0x24C3 JUMP JUMPDEST PUSH1 0x40 MLOAD DUP1 SWAP2 SUB SWAP1 REVERT JUMPDEST PUSH1 0x3 PUSH1 0x1 SWAP1 SLOAD SWAP1 PUSH2 0x100 EXP SWAP1 DIV PUSH1 0xFF AND ISZERO PUSH2 0x8B0 JUMPI PUSH1 0x40 MLOAD PUSH32 0x8C379A000000000000000000000000000000000000000000000000000000000 DUP2 MSTORE PUSH1 0x4 ADD PUSH2 0x8A7 SWAP1 PUSH2 0x25C3 JUMP JUMPDEST PUSH1 0x40 MLOAD DUP1 SWAP2 SUB SWAP1 REVERT JUMPDEST PUSH1 0x0 PUSH2 0x8BA PUSH2 0x14EE JUMP JUMPDEST SWAP1 POP PUSH2 0x8CD DUP5 PUSH4 0xFFFFFFFF AND DUP5 DUP4 PUSH2 0x1648 JUMP JUMPDEST SWAP2 POP POP SWAP3 SWAP2 POP POP JUMP JUMPDEST PUSH1 0x0 DUP1 PUSH1 0x0 SWAP1 SLOAD SWAP1 PUSH2 0x100 EXP SWAP1 DIV PUSH20 0xFFFFFFFFFFFFFFFFFFFFFFFFFFFFFFFFFFFFFFFF AND SWAP1 POP SWAP1 JUMP JUMPDEST PUSH2 0x907 PUSH2 0x145E JUMP JUMPDEST PUSH1 0x0 PUSH1 0x3 PUSH1 0x1 PUSH2 0x100 EXP DUP2 SLOAD DUP2 PUSH1 0xFF MUL NOT AND SWAP1 DUP4 ISZERO ISZERO MUL OR SWAP1 SSTORE POP JUMP JUMPDEST PUSH1 0x3 PUSH1 0x0 SWAP1 SLOAD SWAP1 PUSH2 0x100 EXP SWAP1 DIV PUSH1 0xFF AND PUSH2 0x973 JUMPI PUSH1 0x40 MLOAD PUSH32 0x8C379A000000000000000000000000000000000000000000000000000000000 DUP2 MSTORE PUSH1 0x4 ADD PUSH2 0x96A SWAP1 PUSH2 0x24C3 JUMP JUMPDEST PUSH1 0x40 MLOAD DUP1 SWAP2 SUB SWAP1 REVERT JUMPDEST PUSH1 0x3 PUSH1 0x1 SWAP1 SLOAD SWAP1 PUSH2 0x100 EXP SWAP1 DIV PUSH1 0xFF AND ISZERO PUSH2 0x9C3 JUMPI PUSH1 0x40 MLOAD PUSH32 0x8C379A000000000000000000000000000000000000000000000000000000000 DUP2 MSTORE PUSH1 0x4 ADD PUSH2 0x9BA SWAP1 PUSH2 0x25C3 JUMP JUMPDEST PUSH1 0x40 MLOAD DUP1 SWAP2 SUB SWAP1 REVERT JUMPDEST PUSH32 0x0 PUSH20 0xFFFFFFFFFFFFFFFFFFFFFFFFFFFFFFFFFFFFFFFF AND CALLER PUSH20 0xFFFFFFFFFFFFFFFFFFFFFFFFFFFFFFFFFFFFFFFF AND EQ PUSH2 0xA51 JUMPI PUSH1 0x40 MLOAD PUSH32 0x8C379A000000000000000000000000000000000000000000000000000000000 DUP2 MSTORE PUSH1 0x4 ADD PUSH2 0xA48 SWAP1 PUSH2 0x2583 JUMP JUMPDEST PUSH1 0x40 MLOAD DUP1 SWAP2 SUB SWAP1 REVERT JUMPDEST PUSH1 0x0 DUP1 PUSH1 0x0 DUP5 DUP5 DUP2 ADD SWAP1 PUSH2 0xA65 SWAP2 SWAP1 PUSH2 0x1D61 JUMP JUMPDEST SWAP3 POP SWAP3 POP SWAP3 POP PUSH1 0x0 PUSH2 0xA76 DUP5 PUSH2 0x173B JUMP JUMPDEST SWAP1 POP PUSH1 0x0 PUSH2 0xA82 PUSH2 0x14EE JUMP JUMPDEST SWAP1 POP PUSH1 0x0 PUSH2 0xA97 DUP7 PUSH4 0xFFFFFFFF AND GASPRICE DUP5 PUSH2 0x1648 JUMP JUMPDEST SWAP1 POP DUP1 DUP10 LT ISZERO PUSH2 0xADC JUMPI PUSH1 0x40 MLOAD PUSH32 0x8C379A000000000000000000000000000000000000000000000000000000000 DUP2 MSTORE PUSH1 0x4 ADD PUSH2 0xAD3 SWAP1 PUSH2 0x2543 JUMP JUMPDEST PUSH1 0x40 MLOAD DUP1 SWAP2 SUB SWAP1 REVERT JUMPDEST PUSH1 0x7 PUSH1 0x0 SWAP1 SLOAD SWAP1 PUSH2 0x100 EXP SWAP1 DIV PUSH1 0xFF AND PUSH1 0xFF AND DUP5 PUSH4 0xFFFFFFFF AND GT ISZERO PUSH2 0xB37 JUMPI PUSH1 0x40 MLOAD PUSH32 0x8C379A000000000000000000000000000000000000000000000000000000000 DUP2 MSTORE PUSH1 0x4 ADD PUSH2 0xB2E SWAP1 PUSH2 0x25A3 JUMP JUMPDEST PUSH1 0x40 MLOAD DUP1 SWAP2 SUB SWAP1 REVERT JUMPDEST PUSH1 0x0 PUSH32 0x0 PUSH20 0xFFFFFFFFFFFFFFFFFFFFFFFFFFFFFFFFFFFFFFFF AND PUSH4 0x5D3B1D30 PUSH1 0x6 SLOAD PUSH32 0x0 DUP10 PUSH1 0x5 PUSH1 0x8 SWAP1 SLOAD SWAP1 PUSH2 0x100 EXP SWAP1 DIV PUSH4 0xFFFFFFFF AND DUP10 DUP14 PUSH2 0xBB9 SWAP2 SWAP1 PUSH2 0x2745 JUMP JUMPDEST PUSH2 0xBC3 SWAP2 SWAP1 PUSH2 0x2745 JUMP JUMPDEST DUP11 PUSH1 0x40 MLOAD DUP7 PUSH4 0xFFFFFFFF AND PUSH1 0xE0 SHL DUP2 MSTORE PUSH1 0x4 ADD PUSH2 0xBE4 SWAP6 SWAP5 SWAP4 SWAP3 SWAP2 SWAP1 PUSH2 0x235F JUMP JUMPDEST PUSH1 0x20 PUSH1 0x40 MLOAD DUP1 DUP4 SUB DUP2 PUSH1 0x0 DUP8 DUP1 EXTCODESIZE ISZERO DUP1 ISZERO PUSH2 0xBFE JUMPI PUSH1 0x0 DUP1 REVERT JUMPDEST POP GAS CALL ISZERO DUP1 ISZERO PUSH2 0xC12 JUMPI RETURNDATASIZE PUSH1 0x0 DUP1 RETURNDATACOPY RETURNDATASIZE PUSH1 0x0 REVERT JUMPDEST POP POP POP POP PUSH1 0x40 MLOAD RETURNDATASIZE PUSH1 0x1F NOT PUSH1 0x1F DUP3 ADD AND DUP3 ADD DUP1 PUSH1 0x40 MSTORE POP DUP2 ADD SWAP1 PUSH2 0xC36 SWAP2 SWAP1 PUSH2 0x1CAB JUMP JUMPDEST SWAP1 POP PUSH1 0x40 MLOAD DUP1 PUSH1 0xA0 ADD PUSH1 0x40 MSTORE DUP1 DUP13 PUSH20 0xFFFFFFFFFFFFFFFFFFFFFFFFFFFFFFFFFFFFFFFF AND DUP2 MSTORE PUSH1 0x20 ADD DUP9 PUSH4 0xFFFFFFFF AND DUP2 MSTORE PUSH1 0x20 ADD GASPRICE DUP2 MSTORE PUSH1 0x20 ADD DUP5 DUP2 MSTORE PUSH1 0x20 ADD DUP12 DUP2 MSTORE POP PUSH1 0x8 PUSH1 0x0 DUP4 DUP2 MSTORE PUSH1 0x20 ADD SWAP1 DUP2 MSTORE PUSH1 0x20 ADD PUSH1 0x0 KECCAK256 PUSH1 0x0 DUP3 ADD MLOAD DUP2 PUSH1 0x0 ADD PUSH1 0x0 PUSH2 0x100 EXP DUP2 SLOAD DUP2 PUSH20 0xFFFFFFFFFFFFFFFFFFFFFFFFFFFFFFFFFFFFFFFF MUL NOT AND SWAP1 DUP4 PUSH20 0xFFFFFFFFFFFFFFFFFFFFFFFFFFFFFFFFFFFFFFFF AND MUL OR SWAP1 SSTORE POP PUSH1 0x20 DUP3 ADD MLOAD DUP2 PUSH1 0x0 ADD PUSH1 0x14 PUSH2 0x100 EXP DUP2 SLOAD DUP2 PUSH4 0xFFFFFFFF MUL NOT AND SWAP1 DUP4 PUSH4 0xFFFFFFFF AND MUL OR SWAP1 SSTORE POP PUSH1 0x40 DUP3 ADD MLOAD DUP2 PUSH1 0x1 ADD SSTORE PUSH1 0x60 DUP3 ADD MLOAD DUP2 PUSH1 0x2 ADD SSTORE PUSH1 0x80 DUP3 ADD MLOAD DUP2 PUSH1 0x3 ADD SSTORE SWAP1 POP POP DUP1 PUSH1 0x2 DUP2 SWAP1 SSTORE POP POP POP POP POP POP POP POP POP POP POP POP JUMP JUMPDEST PUSH1 0x3 PUSH1 0x1 SWAP1 SLOAD SWAP1 PUSH2 0x100 EXP SWAP1 DIV PUSH1 0xFF AND DUP2 JUMP JUMPDEST PUSH32 0x0 DUP2 JUMP JUMPDEST PUSH2 0xD70 PUSH2 0x145E JUMP JUMPDEST DUP5 PUSH1 0x5 PUSH1 0x8 PUSH2 0x100 EXP DUP2 SLOAD DUP2 PUSH4 0xFFFFFFFF MUL NOT AND SWAP1 DUP4 PUSH4 0xFFFFFFFF AND MUL OR SWAP1 SSTORE POP DUP4 PUSH1 0x5 PUSH1 0xC PUSH2 0x100 EXP DUP2 SLOAD DUP2 PUSH4 0xFFFFFFFF MUL NOT AND SWAP1 DUP4 PUSH4 0xFFFFFFFF AND MUL OR SWAP1 SSTORE POP DUP3 PUSH1 0x5 PUSH1 0x10 PUSH2 0x100 EXP DUP2 SLOAD DUP2 PUSH1 0xFF MUL NOT AND SWAP1 DUP4 PUSH1 0xFF AND MUL OR SWAP1 SSTORE POP DUP2 PUSH1 0x6 DUP2 SWAP1 SSTORE POP DUP1 PUSH1 0x7 PUSH1 0x0 PUSH2 0x100 EXP DUP2 SLOAD DUP2 PUSH1 0xFF MUL NOT AND SWAP1 DUP4 PUSH1 0xFF AND MUL OR SWAP1 SSTORE POP PUSH1 0x1 PUSH1 0x3 PUSH1 0x0 PUSH2 0x100 EXP DUP2 SLOAD DUP2 PUSH1 0xFF MUL NOT AND SWAP1 DUP4 ISZERO ISZERO MUL OR SWAP1 SSTORE POP PUSH32 0x0 PUSH20 0xFFFFFFFFFFFFFFFFFFFFFFFFFFFFFFFFFFFFFFFF AND PUSH4 0xC3F909D4 PUSH1 0x40 MLOAD DUP2 PUSH4 0xFFFFFFFF AND PUSH1 0xE0 SHL DUP2 MSTORE PUSH1 0x4 ADD PUSH1 0x80 PUSH1 0x40 MLOAD DUP1 DUP4 SUB DUP2 DUP7 DUP1 EXTCODESIZE ISZERO DUP1 ISZERO PUSH2 0xE70 JUMPI PUSH1 0x0 DUP1 REVERT JUMPDEST POP GAS STATICCALL ISZERO DUP1 ISZERO PUSH2 0xE84 JUMPI RETURNDATASIZE PUSH1 0x0 DUP1 RETURNDATACOPY RETURNDATASIZE PUSH1 0x0 REVERT JUMPDEST POP POP POP POP PUSH1 0x40 MLOAD RETURNDATASIZE PUSH1 0x1F NOT PUSH1 0x1F DUP3 ADD AND DUP3 ADD DUP1 PUSH1 0x40 MSTORE POP DUP2 ADD SWAP1 PUSH2 0xEA8 SWAP2 SWAP1 PUSH2 0x1C17 JUMP JUMPDEST SWAP1 SWAP2 SWAP3 POP SWAP1 SWAP2 POP POP PUSH1 0x5 PUSH1 0x0 DUP3 SWAP2 SWAP1 PUSH2 0x100 EXP DUP2 SLOAD DUP2 PUSH4 0xFFFFFFFF MUL NOT AND SWAP1 DUP4 PUSH4 0xFFFFFFFF AND MUL OR SWAP1 SSTORE POP POP PUSH32 0x0 PUSH20 0xFFFFFFFFFFFFFFFFFFFFFFFFFFFFFFFFFFFFFFFF AND PUSH4 0x356DAC71 PUSH1 0x40 MLOAD DUP2 PUSH4 0xFFFFFFFF AND PUSH1 0xE0 SHL DUP2 MSTORE PUSH1 0x4 ADD PUSH1 0x20 PUSH1 0x40 MLOAD DUP1 DUP4 SUB DUP2 DUP7 DUP1 EXTCODESIZE ISZERO DUP1 ISZERO PUSH2 0xF3A JUMPI PUSH1 0x0 DUP1 REVERT JUMPDEST POP GAS STATICCALL ISZERO DUP1 ISZERO PUSH2 0xF4E JUMPI RETURNDATASIZE PUSH1 0x0 DUP1 RETURNDATACOPY RETURNDATASIZE PUSH1 0x0 REVERT JUMPDEST POP POP POP POP PUSH1 0x40 MLOAD RETURNDATASIZE PUSH1 0x1F NOT PUSH1 0x1F DUP3 ADD AND DUP3 ADD DUP1 PUSH1 0x40 MSTORE POP DUP2 ADD SWAP1 PUSH2 0xF72 SWAP2 SWAP1 PUSH2 0x1BEA JUMP JUMPDEST PUSH1 0x4 DUP2 SWAP1 SSTORE POP PUSH32 0x0 PUSH20 0xFFFFFFFFFFFFFFFFFFFFFFFFFFFFFFFFFFFFFFFF AND PUSH4 0x5FBBC0D2 PUSH1 0x40 MLOAD DUP2 PUSH4 0xFFFFFFFF AND PUSH1 0xE0 SHL DUP2 MSTORE PUSH1 0x4 ADD PUSH2 0x120 PUSH1 0x40 MLOAD DUP1 DUP4 SUB DUP2 DUP7 DUP1 EXTCODESIZE ISZERO DUP1 ISZERO PUSH2 0xFDF JUMPI PUSH1 0x0 DUP1 REVERT JUMPDEST POP GAS STATICCALL ISZERO DUP1 ISZERO PUSH2 0xFF3 JUMPI RETURNDATASIZE PUSH1 0x0 DUP1 RETURNDATACOPY RETURNDATASIZE PUSH1 0x0 REVERT JUMPDEST POP POP POP POP PUSH1 0x40 MLOAD RETURNDATASIZE PUSH1 0x1F NOT PUSH1 0x1F DUP3 ADD AND DUP3 ADD DUP1 PUSH1 0x40 MSTORE POP DUP2 ADD SWAP1 PUSH2 0x1017 SWAP2 SWAP1 PUSH2 0x1DF4 JUMP JUMPDEST SWAP1 SWAP2 SWAP3 SWAP4 SWAP5 SWAP6 SWAP7 POP SWAP1 SWAP2 SWAP3 SWAP4 SWAP5 SWAP6 POP SWAP1 SWAP2 SWAP3 SWAP4 SWAP5 POP SWAP1 SWAP2 SWAP3 SWAP4 POP SWAP1 SWAP2 SWAP3 POP SWAP1 SWAP2 POP SWAP1 POP POP PUSH1 0x5 PUSH1 0x4 DUP3 SWAP2 SWAP1 PUSH2 0x100 EXP DUP2 SLOAD DUP2 PUSH4 0xFFFFFFFF MUL NOT AND SWAP1 DUP4 PUSH4 0xFFFFFFFF AND MUL OR SWAP1 SSTORE POP POP POP POP POP POP POP JUMP JUMPDEST PUSH1 0x0 DUP1 PUSH1 0x0 DUP1 PUSH1 0x0 DUP1 PUSH1 0x0 DUP1 PUSH1 0x4 SLOAD PUSH1 0x5 PUSH1 0x0 SWAP1 SLOAD SWAP1 PUSH2 0x100 EXP SWAP1 DIV PUSH4 0xFFFFFFFF AND PUSH1 0x5 PUSH1 0x4 SWAP1 SLOAD SWAP1 PUSH2 0x100 EXP SWAP1 DIV PUSH4 0xFFFFFFFF AND PUSH1 0x5 PUSH1 0x8 SWAP1 SLOAD SWAP1 PUSH2 0x100 EXP SWAP1 DIV PUSH4 0xFFFFFFFF AND PUSH1 0x5 PUSH1 0xC SWAP1 SLOAD SWAP1 PUSH2 0x100 EXP SWAP1 DIV PUSH4 0xFFFFFFFF AND PUSH1 0x5 PUSH1 0x10 SWAP1 SLOAD SWAP1 PUSH2 0x100 EXP SWAP1 DIV PUSH1 0xFF AND PUSH1 0x6 SLOAD PUSH1 0x7 PUSH1 0x0 SWAP1 SLOAD SWAP1 PUSH2 0x100 EXP SWAP1 DIV PUSH1 0xFF AND SWAP8 POP SWAP8 POP SWAP8 POP SWAP8 POP SWAP8 POP SWAP8 POP SWAP8 POP SWAP8 POP SWAP1 SWAP2 SWAP3 SWAP4 SWAP5 SWAP6 SWAP7 SWAP8 JUMP JUMPDEST PUSH2 0x1106 PUSH2 0x145E JUMP JUMPDEST PUSH2 0x110F DUP2 PUSH2 0x175D JUMP JUMPDEST POP JUMP JUMPDEST PUSH2 0x111A PUSH2 0x145E JUMP JUMPDEST PUSH32 0x0 PUSH20 0xFFFFFFFFFFFFFFFFFFFFFFFFFFFFFFFFFFFFFFFF AND PUSH4 0xA9059CBB DUP4 DUP4 PUSH1 0x40 MLOAD DUP4 PUSH4 0xFFFFFFFF AND PUSH1 0xE0 SHL DUP2 MSTORE PUSH1 0x4 ADD PUSH2 0x1175 SWAP3 SWAP2 SWAP1 PUSH2 0x22C8 JUMP JUMPDEST PUSH1 0x20 PUSH1 0x40 MLOAD DUP1 DUP4 SUB DUP2 PUSH1 0x0 DUP8 DUP1 EXTCODESIZE ISZERO DUP1 ISZERO PUSH2 0x118F JUMPI PUSH1 0x0 DUP1 REVERT JUMPDEST POP GAS CALL ISZERO DUP1 ISZERO PUSH2 0x11A3 JUMPI RETURNDATASIZE PUSH1 0x0 DUP1 RETURNDATACOPY RETURNDATASIZE PUSH1 0x0 REVERT JUMPDEST POP POP POP POP PUSH1 0x40 MLOAD RETURNDATASIZE PUSH1 0x1F NOT PUSH1 0x1F DUP3 ADD AND DUP3 ADD DUP1 PUSH1 0x40 MSTORE POP DUP2 ADD SWAP1 PUSH2 0x11C7 SWAP2 SWAP1 PUSH2 0x1BBD JUMP JUMPDEST POP POP POP JUMP JUMPDEST PUSH1 0x2 SLOAD DUP2 JUMP JUMPDEST PUSH1 0x0 PUSH1 0x8 PUSH1 0x0 DUP5 DUP2 MSTORE PUSH1 0x20 ADD SWAP1 DUP2 MSTORE PUSH1 0x20 ADD PUSH1 0x0 KECCAK256 PUSH1 0x40 MLOAD DUP1 PUSH1 0xA0 ADD PUSH1 0x40 MSTORE SWAP1 DUP2 PUSH1 0x0 DUP3 ADD PUSH1 0x0 SWAP1 SLOAD SWAP1 PUSH2 0x100 EXP SWAP1 DIV PUSH20 0xFFFFFFFFFFFFFFFFFFFFFFFFFFFFFFFFFFFFFFFF AND PUSH20 0xFFFFFFFFFFFFFFFFFFFFFFFFFFFFFFFFFFFFFFFF AND PUSH20 0xFFFFFFFFFFFFFFFFFFFFFFFFFFFFFFFFFFFFFFFF AND DUP2 MSTORE PUSH1 0x20 ADD PUSH1 0x0 DUP3 ADD PUSH1 0x14 SWAP1 SLOAD SWAP1 PUSH2 0x100 EXP SWAP1 DIV PUSH4 0xFFFFFFFF AND PUSH4 0xFFFFFFFF AND PUSH4 0xFFFFFFFF AND DUP2 MSTORE PUSH1 0x20 ADD PUSH1 0x1 DUP3 ADD SLOAD DUP2 MSTORE PUSH1 0x20 ADD PUSH1 0x2 DUP3 ADD SLOAD DUP2 MSTORE PUSH1 0x20 ADD PUSH1 0x3 DUP3 ADD SLOAD DUP2 MSTORE POP POP SWAP1 POP PUSH1 0x8 PUSH1 0x0 DUP5 DUP2 MSTORE PUSH1 0x20 ADD SWAP1 DUP2 MSTORE PUSH1 0x20 ADD PUSH1 0x0 KECCAK256 PUSH1 0x0 DUP1 DUP3 ADD PUSH1 0x0 PUSH2 0x100 EXP DUP2 SLOAD SWAP1 PUSH20 0xFFFFFFFFFFFFFFFFFFFFFFFFFFFFFFFFFFFFFFFF MUL NOT AND SWAP1 SSTORE PUSH1 0x0 DUP3 ADD PUSH1 0x14 PUSH2 0x100 EXP DUP2 SLOAD SWAP1 PUSH4 0xFFFFFFFF MUL NOT AND SWAP1 SSTORE PUSH1 0x1 DUP3 ADD PUSH1 0x0 SWAP1 SSTORE PUSH1 0x2 DUP3 ADD PUSH1 0x0 SWAP1 SSTORE PUSH1 0x3 DUP3 ADD PUSH1 0x0 SWAP1 SSTORE POP POP PUSH1 0x0 PUSH20 0xFFFFFFFFFFFFFFFFFFFFFFFFFFFFFFFFFFFFFFFF AND DUP2 PUSH1 0x0 ADD MLOAD PUSH20 0xFFFFFFFFFFFFFFFFFFFFFFFFFFFFFFFFFFFFFFFF AND EQ ISZERO PUSH2 0x136E JUMPI PUSH1 0x40 MLOAD PUSH32 0x8C379A000000000000000000000000000000000000000000000000000000000 DUP2 MSTORE PUSH1 0x4 ADD PUSH2 0x1365 SWAP1 PUSH2 0x24A3 JUMP JUMPDEST PUSH1 0x40 MLOAD DUP1 SWAP2 SUB SWAP1 REVERT JUMPDEST PUSH1 0x0 DUP1 PUSH4 0x1FE543E3 PUSH1 0xE0 SHL DUP6 DUP6 PUSH1 0x40 MLOAD PUSH1 0x24 ADD PUSH2 0x138C SWAP3 SWAP2 SWAP1 PUSH2 0x25FE JUMP JUMPDEST PUSH1 0x40 MLOAD PUSH1 0x20 DUP2 DUP4 SUB SUB DUP2 MSTORE SWAP1 PUSH1 0x40 MSTORE SWAP1 PUSH28 0xFFFFFFFFFFFFFFFFFFFFFFFFFFFFFFFFFFFFFFFFFFFFFFFFFFFFFFFF NOT AND PUSH1 0x20 DUP3 ADD DUP1 MLOAD PUSH28 0xFFFFFFFFFFFFFFFFFFFFFFFFFFFFFFFFFFFFFFFFFFFFFFFFFFFFFFFF DUP4 DUP2 DUP4 AND OR DUP4 MSTORE POP POP POP POP SWAP1 POP PUSH1 0x0 PUSH2 0x1406 DUP5 PUSH1 0x20 ADD MLOAD PUSH4 0xFFFFFFFF AND DUP6 PUSH1 0x0 ADD MLOAD DUP5 PUSH2 0x188A JUMP JUMPDEST SWAP1 POP DUP1 PUSH2 0x1456 JUMPI DUP4 PUSH1 0x0 ADD MLOAD PUSH20 0xFFFFFFFFFFFFFFFFFFFFFFFFFFFFFFFFFFFFFFFF AND DUP7 PUSH32 0xC551B83C151F2D1C7EEB938AC59008E0409F1C1DC1E2F112449D4D79B4589022 PUSH1 0x40 MLOAD PUSH1 0x40 MLOAD DUP1 SWAP2 SUB SWAP1 LOG3 JUMPDEST POP POP POP POP POP POP JUMP JUMPDEST PUSH1 0x0 DUP1 SLOAD SWAP1 PUSH2 0x100 EXP SWAP1 DIV PUSH20 0xFFFFFFFFFFFFFFFFFFFFFFFFFFFFFFFFFFFFFFFF AND PUSH20 0xFFFFFFFFFFFFFFFFFFFFFFFFFFFFFFFFFFFFFFFF AND CALLER PUSH20 0xFFFFFFFFFFFFFFFFFFFFFFFFFFFFFFFFFFFFFFFF AND EQ PUSH2 0x14EC JUMPI PUSH1 0x40 MLOAD PUSH32 0x8C379A000000000000000000000000000000000000000000000000000000000 DUP2 MSTORE PUSH1 0x4 ADD PUSH2 0x14E3 SWAP1 PUSH2 0x2503 JUMP JUMPDEST PUSH1 0x40 MLOAD DUP1 SWAP2 SUB SWAP1 REVERT JUMPDEST JUMP JUMPDEST PUSH1 0x0 DUP1 PUSH1 0x0 PUSH1 0x5 PUSH1 0x0 SWAP1 SLOAD SWAP1 PUSH2 0x100 EXP SWAP1 DIV PUSH4 0xFFFFFFFF AND PUSH4 0xFFFFFFFF AND GT SWAP1 POP PUSH1 0x0 DUP1 PUSH32 0x0 PUSH20 0xFFFFFFFFFFFFFFFFFFFFFFFFFFFFFFFFFFFFFFFF AND PUSH4 0xFEAF968C PUSH1 0x40 MLOAD DUP2 PUSH4 0xFFFFFFFF AND PUSH1 0xE0 SHL DUP2 MSTORE PUSH1 0x4 ADD PUSH1 0xA0 PUSH1 0x40 MLOAD DUP1 DUP4 SUB DUP2 DUP7 DUP1 EXTCODESIZE ISZERO DUP1 ISZERO PUSH2 0x1578 JUMPI PUSH1 0x0 DUP1 REVERT JUMPDEST POP GAS STATICCALL ISZERO DUP1 ISZERO PUSH2 0x158C JUMPI RETURNDATASIZE PUSH1 0x0 DUP1 RETURNDATACOPY RETURNDATASIZE PUSH1 0x0 REVERT JUMPDEST POP POP POP POP PUSH1 0x40 MLOAD RETURNDATASIZE PUSH1 0x1F NOT PUSH1 0x1F DUP3 ADD AND DUP3 ADD DUP1 PUSH1 0x40 MSTORE POP DUP2 ADD SWAP1 PUSH2 0x15B0 SWAP2 SWAP1 PUSH2 0x1F39 JUMP JUMPDEST SWAP1 SWAP2 SWAP3 SWAP4 POP SWAP1 SWAP2 POP POP DUP1 SWAP4 POP DUP2 SWAP3 POP POP POP DUP3 DUP1 ISZERO PUSH2 0x15F0 JUMPI POP DUP2 TIMESTAMP PUSH2 0x15D5 SWAP2 SWAP1 PUSH2 0x2872 JUMP JUMPDEST PUSH1 0x5 PUSH1 0x0 SWAP1 SLOAD SWAP1 PUSH2 0x100 EXP SWAP1 DIV PUSH4 0xFFFFFFFF AND PUSH4 0xFFFFFFFF AND LT JUMPDEST ISZERO PUSH2 0x15FB JUMPI PUSH1 0x4 SLOAD SWAP1 POP JUMPDEST PUSH1 0x0 DUP2 SLT ISZERO PUSH2 0x163F JUMPI PUSH1 0x40 MLOAD PUSH32 0x8C379A000000000000000000000000000000000000000000000000000000000 DUP2 MSTORE PUSH1 0x4 ADD PUSH2 0x1636 SWAP1 PUSH2 0x2523 JUMP JUMPDEST PUSH1 0x40 MLOAD DUP1 SWAP2 SUB SWAP1 REVERT JUMPDEST DUP1 SWAP4 POP POP POP POP SWAP1 JUMP JUMPDEST PUSH1 0x0 DUP1 DUP3 PUSH1 0x5 PUSH1 0xC SWAP1 SLOAD SWAP1 PUSH2 0x100 EXP SWAP1 DIV PUSH4 0xFFFFFFFF AND PUSH4 0xFFFFFFFF AND PUSH1 0x5 PUSH1 0x8 SWAP1 SLOAD SWAP1 PUSH2 0x100 EXP SWAP1 DIV PUSH4 0xFFFFFFFF AND PUSH4 0xFFFFFFFF AND DUP8 PUSH2 0x1689 SWAP2 SWAP1 PUSH2 0x26EF JUMP JUMPDEST PUSH2 0x1693 SWAP2 SWAP1 PUSH2 0x26EF JUMP JUMPDEST DUP6 PUSH8 0xDE0B6B3A7640000 PUSH2 0x16A7 SWAP2 SWAP1 PUSH2 0x2818 JUMP JUMPDEST PUSH2 0x16B1 SWAP2 SWAP1 PUSH2 0x2818 JUMP JUMPDEST PUSH2 0x16BB SWAP2 SWAP1 PUSH2 0x27B6 JUMP JUMPDEST SWAP1 POP PUSH1 0x0 PUSH1 0x64 DUP1 PUSH1 0x5 PUSH1 0x10 SWAP1 SLOAD SWAP1 PUSH2 0x100 EXP SWAP1 DIV PUSH1 0xFF AND PUSH2 0x16DC SWAP2 SWAP1 PUSH2 0x277F JUMP JUMPDEST PUSH1 0xFF AND DUP4 PUSH2 0x16EA SWAP2 SWAP1 PUSH2 0x2818 JUMP JUMPDEST PUSH2 0x16F4 SWAP2 SWAP1 PUSH2 0x27B6 JUMP JUMPDEST SWAP1 POP PUSH1 0x0 PUSH1 0x5 PUSH1 0x4 SWAP1 SLOAD SWAP1 PUSH2 0x100 EXP SWAP1 DIV PUSH4 0xFFFFFFFF AND PUSH4 0xFFFFFFFF AND PUSH5 0xE8D4A51000 PUSH2 0x1721 SWAP2 SWAP1 PUSH2 0x2818 JUMP JUMPDEST DUP3 PUSH2 0x172C SWAP2 SWAP1 PUSH2 0x26EF JUMP JUMPDEST SWAP1 POP DUP1 SWAP4 POP POP POP POP SWAP4 SWAP3 POP POP POP JUMP JUMPDEST PUSH1 0x0 PUSH1 0x1 PUSH1 0x3F DUP4 PUSH2 0x174C SWAP2 SWAP1 PUSH2 0x27E7 JUMP JUMPDEST PUSH2 0x1756 SWAP2 SWAP1 PUSH2 0x2745 JUMP JUMPDEST SWAP1 POP SWAP2 SWAP1 POP JUMP JUMPDEST CALLER PUSH20 0xFFFFFFFFFFFFFFFFFFFFFFFFFFFFFFFFFFFFFFFF AND DUP2 PUSH20 0xFFFFFFFFFFFFFFFFFFFFFFFFFFFFFFFFFFFFFFFF AND EQ ISZERO PUSH2 0x17CC JUMPI PUSH1 0x40 MLOAD PUSH32 0x8C379A000000000000000000000000000000000000000000000000000000000 DUP2 MSTORE PUSH1 0x4 ADD PUSH2 0x17C3 SWAP1 PUSH2 0x2563 JUMP JUMPDEST PUSH1 0x40 MLOAD DUP1 SWAP2 SUB SWAP1 REVERT JUMPDEST DUP1 PUSH1 0x1 PUSH1 0x0 PUSH2 0x100 EXP DUP2 SLOAD DUP2 PUSH20 0xFFFFFFFFFFFFFFFFFFFFFFFFFFFFFFFFFFFFFFFF MUL NOT AND SWAP1 DUP4 PUSH20 0xFFFFFFFFFFFFFFFFFFFFFFFFFFFFFFFFFFFFFFFF AND MUL OR SWAP1 SSTORE POP DUP1 PUSH20 0xFFFFFFFFFFFFFFFFFFFFFFFFFFFFFFFFFFFFFFFF AND PUSH1 0x0 DUP1 SLOAD SWAP1 PUSH2 0x100 EXP SWAP1 DIV PUSH20 0xFFFFFFFFFFFFFFFFFFFFFFFFFFFFFFFFFFFFFFFF AND PUSH20 0xFFFFFFFFFFFFFFFFFFFFFFFFFFFFFFFFFFFFFFFF AND PUSH32 0xED8889F560326EB138920D842192F0EB3DD22B4F139C87A2C57538E05BAE1278 PUSH1 0x40 MLOAD PUSH1 0x40 MLOAD DUP1 SWAP2 SUB SWAP1 LOG3 POP JUMP JUMPDEST PUSH1 0x0 GAS PUSH2 0x1388 DUP2 LT ISZERO PUSH2 0x189C JUMPI PUSH1 0x0 DUP1 REVERT JUMPDEST PUSH2 0x1388 DUP2 SUB SWAP1 POP DUP5 PUSH1 0x40 DUP3 DIV DUP3 SUB GT PUSH2 0x18B4 JUMPI PUSH1 0x0 DUP1 REVERT JUMPDEST DUP4 EXTCODESIZE PUSH2 0x18BF JUMPI PUSH1 0x0 DUP1 REVERT JUMPDEST PUSH1 0x0 DUP1 DUP5 MLOAD PUSH1 0x20 DUP7 ADD PUSH1 0x0 DUP9 DUP11 CALL SWAP2 POP POP SWAP4 SWAP3 POP POP POP JUMP JUMPDEST PUSH1 0x0 PUSH2 0x18EA PUSH2 0x18E5 DUP5 PUSH2 0x266E JUMP JUMPDEST PUSH2 0x2649 JUMP JUMPDEST SWAP1 POP DUP1 DUP4 DUP3 MSTORE PUSH1 0x20 DUP3 ADD SWAP1 POP DUP3 DUP6 PUSH1 0x20 DUP7 MUL DUP3 ADD GT ISZERO PUSH2 0x190D JUMPI PUSH2 0x190C PUSH2 0x2ABB JUMP JUMPDEST JUMPDEST PUSH1 0x0 JUMPDEST DUP6 DUP2 LT ISZERO PUSH2 0x193D JUMPI DUP2 PUSH2 0x1923 DUP9 DUP3 PUSH2 0x1A5E JUMP JUMPDEST DUP5 MSTORE PUSH1 0x20 DUP5 ADD SWAP4 POP PUSH1 0x20 DUP4 ADD SWAP3 POP POP PUSH1 0x1 DUP2 ADD SWAP1 POP PUSH2 0x1910 JUMP JUMPDEST POP POP POP SWAP4 SWAP3 POP POP POP JUMP JUMPDEST PUSH1 0x0 DUP2 CALLDATALOAD SWAP1 POP PUSH2 0x1956 DUP2 PUSH2 0x2C75 JUMP JUMPDEST SWAP3 SWAP2 POP POP JUMP JUMPDEST PUSH1 0x0 DUP3 PUSH1 0x1F DUP4 ADD SLT PUSH2 0x1971 JUMPI PUSH2 0x1970 PUSH2 0x2AB6 JUMP JUMPDEST JUMPDEST DUP2 CALLDATALOAD PUSH2 0x1981 DUP5 DUP3 PUSH1 0x20 DUP7 ADD PUSH2 0x18D7 JUMP JUMPDEST SWAP2 POP POP SWAP3 SWAP2 POP POP JUMP JUMPDEST PUSH1 0x0 DUP2 MLOAD SWAP1 POP PUSH2 0x1999 DUP2 PUSH2 0x2C8C JUMP JUMPDEST SWAP3 SWAP2 POP POP JUMP JUMPDEST PUSH1 0x0 DUP2 CALLDATALOAD SWAP1 POP PUSH2 0x19AE DUP2 PUSH2 0x2CA3 JUMP JUMPDEST SWAP3 SWAP2 POP POP JUMP JUMPDEST PUSH1 0x0 DUP1 DUP4 PUSH1 0x1F DUP5 ADD SLT PUSH2 0x19CA JUMPI PUSH2 0x19C9 PUSH2 0x2AB6 JUMP JUMPDEST JUMPDEST DUP3 CALLDATALOAD SWAP1 POP PUSH8 0xFFFFFFFFFFFFFFFF DUP2 GT ISZERO PUSH2 0x19E7 JUMPI PUSH2 0x19E6 PUSH2 0x2AB1 JUMP JUMPDEST JUMPDEST PUSH1 0x20 DUP4 ADD SWAP2 POP DUP4 PUSH1 0x1 DUP3 MUL DUP4 ADD GT ISZERO PUSH2 0x1A03 JUMPI PUSH2 0x1A02 PUSH2 0x2ABB JUMP JUMPDEST JUMPDEST SWAP3 POP SWAP3 SWAP1 POP JUMP JUMPDEST PUSH1 0x0 DUP2 MLOAD SWAP1 POP PUSH2 0x1A19 DUP2 PUSH2 0x2CBA JUMP JUMPDEST SWAP3 SWAP2 POP POP JUMP JUMPDEST PUSH1 0x0 DUP2 CALLDATALOAD SWAP1 POP PUSH2 0x1A2E DUP2 PUSH2 0x2CD1 JUMP JUMPDEST SWAP3 SWAP2 POP POP JUMP JUMPDEST PUSH1 0x0 DUP2 MLOAD SWAP1 POP PUSH2 0x1A43 DUP2 PUSH2 0x2CD1 JUMP JUMPDEST SWAP3 SWAP2 POP POP JUMP JUMPDEST PUSH1 0x0 DUP2 MLOAD SWAP1 POP PUSH2 0x1A58 DUP2 PUSH2 0x2CE8 JUMP JUMPDEST SWAP3 SWAP2 POP POP JUMP JUMPDEST PUSH1 0x0 DUP2 CALLDATALOAD SWAP1 POP PUSH2 0x1A6D DUP2 PUSH2 0x2CFF JUMP JUMPDEST SWAP3 SWAP2 POP POP JUMP JUMPDEST PUSH1 0x0 DUP2 MLOAD SWAP1 POP PUSH2 0x1A82 DUP2 PUSH2 0x2CFF JUMP JUMPDEST SWAP3 SWAP2 POP POP JUMP JUMPDEST PUSH1 0x0 DUP2 CALLDATALOAD SWAP1 POP PUSH2 0x1A97 DUP2 PUSH2 0x2D16 JUMP JUMPDEST SWAP3 SWAP2 POP POP JUMP JUMPDEST PUSH1 0x0 DUP2 MLOAD SWAP1 POP PUSH2 0x1AAC DUP2 PUSH2 0x2D16 JUMP JUMPDEST SWAP3 SWAP2 POP POP JUMP JUMPDEST PUSH1 0x0 DUP2 CALLDATALOAD SWAP1 POP PUSH2 0x1AC1 DUP2 PUSH2 0x2D2D JUMP JUMPDEST SWAP3 SWAP2 POP POP JUMP JUMPDEST PUSH1 0x0 DUP2 MLOAD SWAP1 POP PUSH2 0x1AD6 DUP2 PUSH2 0x2D44 JUMP JUMPDEST SWAP3 SWAP2 POP POP JUMP JUMPDEST PUSH1 0x0 PUSH1 0x20 DUP3 DUP5 SUB SLT ISZERO PUSH2 0x1AF2 JUMPI PUSH2 0x1AF1 PUSH2 0x2AC5 JUMP JUMPDEST JUMPDEST PUSH1 0x0 PUSH2 0x1B00 DUP5 DUP3 DUP6 ADD PUSH2 0x1947 JUMP JUMPDEST SWAP2 POP POP SWAP3 SWAP2 POP POP JUMP JUMPDEST PUSH1 0x0 DUP1 PUSH1 0x40 DUP4 DUP6 SUB SLT ISZERO PUSH2 0x1B20 JUMPI PUSH2 0x1B1F PUSH2 0x2AC5 JUMP JUMPDEST JUMPDEST PUSH1 0x0 PUSH2 0x1B2E DUP6 DUP3 DUP7 ADD PUSH2 0x1947 JUMP JUMPDEST SWAP3 POP POP PUSH1 0x20 PUSH2 0x1B3F DUP6 DUP3 DUP7 ADD PUSH2 0x1A5E JUMP JUMPDEST SWAP2 POP POP SWAP3 POP SWAP3 SWAP1 POP JUMP JUMPDEST PUSH1 0x0 DUP1 PUSH1 0x0 DUP1 PUSH1 0x60 DUP6 DUP8 SUB SLT ISZERO PUSH2 0x1B63 JUMPI PUSH2 0x1B62 PUSH2 0x2AC5 JUMP JUMPDEST JUMPDEST PUSH1 0x0 PUSH2 0x1B71 DUP8 DUP3 DUP9 ADD PUSH2 0x1947 JUMP JUMPDEST SWAP5 POP POP PUSH1 0x20 PUSH2 0x1B82 DUP8 DUP3 DUP9 ADD PUSH2 0x1A5E JUMP JUMPDEST SWAP4 POP POP PUSH1 0x40 DUP6 ADD CALLDATALOAD PUSH8 0xFFFFFFFFFFFFFFFF DUP2 GT ISZERO PUSH2 0x1BA3 JUMPI PUSH2 0x1BA2 PUSH2 0x2AC0 JUMP JUMPDEST JUMPDEST PUSH2 0x1BAF DUP8 DUP3 DUP9 ADD PUSH2 0x19B4 JUMP JUMPDEST SWAP3 POP SWAP3 POP POP SWAP3 SWAP6 SWAP2 SWAP5 POP SWAP3 POP JUMP JUMPDEST PUSH1 0x0 PUSH1 0x20 DUP3 DUP5 SUB SLT ISZERO PUSH2 0x1BD3 JUMPI PUSH2 0x1BD2 PUSH2 0x2AC5 JUMP JUMPDEST JUMPDEST PUSH1 0x0 PUSH2 0x1BE1 DUP5 DUP3 DUP6 ADD PUSH2 0x198A JUMP JUMPDEST SWAP2 POP POP SWAP3 SWAP2 POP POP JUMP JUMPDEST PUSH1 0x0 PUSH1 0x20 DUP3 DUP5 SUB SLT ISZERO PUSH2 0x1C00 JUMPI PUSH2 0x1BFF PUSH2 0x2AC5 JUMP JUMPDEST JUMPDEST PUSH1 0x0 PUSH2 0x1C0E DUP5 DUP3 DUP6 ADD PUSH2 0x1A0A JUMP JUMPDEST SWAP2 POP POP SWAP3 SWAP2 POP POP JUMP JUMPDEST PUSH1 0x0 DUP1 PUSH1 0x0 DUP1 PUSH1 0x80 DUP6 DUP8 SUB SLT ISZERO PUSH2 0x1C31 JUMPI PUSH2 0x1C30 PUSH2 0x2AC5 JUMP JUMPDEST JUMPDEST PUSH1 0x0 PUSH2 0x1C3F DUP8 DUP3 DUP9 ADD PUSH2 0x1A34 JUMP JUMPDEST SWAP5 POP POP PUSH1 0x20 PUSH2 0x1C50 DUP8 DUP3 DUP9 ADD PUSH2 0x1A9D JUMP JUMPDEST SWAP4 POP POP PUSH1 0x40 PUSH2 0x1C61 DUP8 DUP3 DUP9 ADD PUSH2 0x1A9D JUMP JUMPDEST SWAP3 POP POP PUSH1 0x60 PUSH2 0x1C72 DUP8 DUP3 DUP9 ADD PUSH2 0x1A9D JUMP JUMPDEST SWAP2 POP POP SWAP3 SWAP6 SWAP2 SWAP5 POP SWAP3 POP JUMP JUMPDEST PUSH1 0x0 PUSH1 0x20 DUP3 DUP5 SUB SLT ISZERO PUSH2 0x1C94 JUMPI PUSH2 0x1C93 PUSH2 0x2AC5 JUMP JUMPDEST JUMPDEST PUSH1 0x0 PUSH2 0x1CA2 DUP5 DUP3 DUP6 ADD PUSH2 0x1A5E JUMP JUMPDEST SWAP2 POP POP SWAP3 SWAP2 POP POP JUMP JUMPDEST PUSH1 0x0 PUSH1 0x20 DUP3 DUP5 SUB SLT ISZERO PUSH2 0x1CC1 JUMPI PUSH2 0x1CC0 PUSH2 0x2AC5 JUMP JUMPDEST JUMPDEST PUSH1 0x0 PUSH2 0x1CCF DUP5 DUP3 DUP6 ADD PUSH2 0x1A73 JUMP JUMPDEST SWAP2 POP POP SWAP3 SWAP2 POP POP JUMP JUMPDEST PUSH1 0x0 DUP1 PUSH1 0x40 DUP4 DUP6 SUB SLT ISZERO PUSH2 0x1CEF JUMPI PUSH2 0x1CEE PUSH2 0x2AC5 JUMP JUMPDEST JUMPDEST PUSH1 0x0 PUSH2 0x1CFD DUP6 DUP3 DUP7 ADD PUSH2 0x1A5E JUMP JUMPDEST SWAP3 POP POP PUSH1 0x20 DUP4 ADD CALLDATALOAD PUSH8 0xFFFFFFFFFFFFFFFF DUP2 GT ISZERO PUSH2 0x1D1E JUMPI PUSH2 0x1D1D PUSH2 0x2AC0 JUMP JUMPDEST JUMPDEST PUSH2 0x1D2A DUP6 DUP3 DUP7 ADD PUSH2 0x195C JUMP JUMPDEST SWAP2 POP POP SWAP3 POP SWAP3 SWAP1 POP JUMP JUMPDEST PUSH1 0x0 PUSH1 0x20 DUP3 DUP5 SUB SLT ISZERO PUSH2 0x1D4A JUMPI PUSH2 0x1D49 PUSH2 0x2AC5 JUMP JUMPDEST JUMPDEST PUSH1 0x0 PUSH2 0x1D58 DUP5 DUP3 DUP6 ADD PUSH2 0x1A88 JUMP JUMPDEST SWAP2 POP POP SWAP3 SWAP2 POP POP JUMP JUMPDEST PUSH1 0x0 DUP1 PUSH1 0x0 PUSH1 0x60 DUP5 DUP7 SUB SLT ISZERO PUSH2 0x1D7A JUMPI PUSH2 0x1D79 PUSH2 0x2AC5 JUMP JUMPDEST JUMPDEST PUSH1 0x0 PUSH2 0x1D88 DUP7 DUP3 DUP8 ADD PUSH2 0x1A88 JUMP JUMPDEST SWAP4 POP POP PUSH1 0x20 PUSH2 0x1D99 DUP7 DUP3 DUP8 ADD PUSH2 0x1A1F JUMP JUMPDEST SWAP3 POP POP PUSH1 0x40 PUSH2 0x1DAA DUP7 DUP3 DUP8 ADD PUSH2 0x1A88 JUMP JUMPDEST SWAP2 POP POP SWAP3 POP SWAP3 POP SWAP3 JUMP JUMPDEST PUSH1 0x0 DUP1 PUSH1 0x40 DUP4 DUP6 SUB SLT ISZERO PUSH2 0x1DCB JUMPI PUSH2 0x1DCA PUSH2 0x2AC5 JUMP JUMPDEST JUMPDEST PUSH1 0x0 PUSH2 0x1DD9 DUP6 DUP3 DUP7 ADD PUSH2 0x1A88 JUMP JUMPDEST SWAP3 POP POP PUSH1 0x20 PUSH2 0x1DEA DUP6 DUP3 DUP7 ADD PUSH2 0x1A5E JUMP JUMPDEST SWAP2 POP POP SWAP3 POP SWAP3 SWAP1 POP JUMP JUMPDEST PUSH1 0x0 DUP1 PUSH1 0x0 DUP1 PUSH1 0x0 DUP1 PUSH1 0x0 DUP1 PUSH1 0x0 PUSH2 0x120 DUP11 DUP13 SUB SLT ISZERO PUSH2 0x1E17 JUMPI PUSH2 0x1E16 PUSH2 0x2AC5 JUMP JUMPDEST JUMPDEST PUSH1 0x0 PUSH2 0x1E25 DUP13 DUP3 DUP14 ADD PUSH2 0x1A9D JUMP JUMPDEST SWAP10 POP POP PUSH1 0x20 PUSH2 0x1E36 DUP13 DUP3 DUP14 ADD PUSH2 0x1A9D JUMP JUMPDEST SWAP9 POP POP PUSH1 0x40 PUSH2 0x1E47 DUP13 DUP3 DUP14 ADD PUSH2 0x1A9D JUMP JUMPDEST SWAP8 POP POP PUSH1 0x60 PUSH2 0x1E58 DUP13 DUP3 DUP14 ADD PUSH2 0x1A9D JUMP JUMPDEST SWAP7 POP POP PUSH1 0x80 PUSH2 0x1E69 DUP13 DUP3 DUP14 ADD PUSH2 0x1A9D JUMP JUMPDEST SWAP6 POP POP PUSH1 0xA0 PUSH2 0x1E7A DUP13 DUP3 DUP14 ADD PUSH2 0x1A49 JUMP JUMPDEST SWAP5 POP POP PUSH1 0xC0 PUSH2 0x1E8B DUP13 DUP3 DUP14 ADD PUSH2 0x1A49 JUMP JUMPDEST SWAP4 POP POP PUSH1 0xE0 PUSH2 0x1E9C DUP13 DUP3 DUP14 ADD PUSH2 0x1A49 JUMP JUMPDEST SWAP3 POP POP PUSH2 0x100 PUSH2 0x1EAE DUP13 DUP3 DUP14 ADD PUSH2 0x1A49 JUMP JUMPDEST SWAP2 POP POP SWAP3 SWAP6 SWAP9 POP SWAP3 SWAP6 SWAP9 POP SWAP3 SWAP6 SWAP9 JUMP JUMPDEST PUSH1 0x0 DUP1 PUSH1 0x0 DUP1 PUSH1 0x0 PUSH1 0xA0 DUP7 DUP9 SUB SLT ISZERO PUSH2 0x1EDA JUMPI PUSH2 0x1ED9 PUSH2 0x2AC5 JUMP JUMPDEST JUMPDEST PUSH1 0x0 PUSH2 0x1EE8 DUP9 DUP3 DUP10 ADD PUSH2 0x1A88 JUMP JUMPDEST SWAP6 POP POP PUSH1 0x20 PUSH2 0x1EF9 DUP9 DUP3 DUP10 ADD PUSH2 0x1A88 JUMP JUMPDEST SWAP5 POP POP PUSH1 0x40 PUSH2 0x1F0A DUP9 DUP3 DUP10 ADD PUSH2 0x1AB2 JUMP JUMPDEST SWAP4 POP POP PUSH1 0x60 PUSH2 0x1F1B DUP9 DUP3 DUP10 ADD PUSH2 0x199F JUMP JUMPDEST SWAP3 POP POP PUSH1 0x80 PUSH2 0x1F2C DUP9 DUP3 DUP10 ADD PUSH2 0x1AB2 JUMP JUMPDEST SWAP2 POP POP SWAP3 SWAP6 POP SWAP3 SWAP6 SWAP1 SWAP4 POP JUMP JUMPDEST PUSH1 0x0 DUP1 PUSH1 0x0 DUP1 PUSH1 0x0 PUSH1 0xA0 DUP7 DUP9 SUB SLT ISZERO PUSH2 0x1F55 JUMPI PUSH2 0x1F54 PUSH2 0x2AC5 JUMP JUMPDEST JUMPDEST PUSH1 0x0 PUSH2 0x1F63 DUP9 DUP3 DUP10 ADD PUSH2 0x1AC7 JUMP JUMPDEST SWAP6 POP POP PUSH1 0x20 PUSH2 0x1F74 DUP9 DUP3 DUP10 ADD PUSH2 0x1A0A JUMP JUMPDEST SWAP5 POP POP PUSH1 0x40 PUSH2 0x1F85 DUP9 DUP3 DUP10 ADD PUSH2 0x1A73 JUMP JUMPDEST SWAP4 POP POP PUSH1 0x60 PUSH2 0x1F96 DUP9 DUP3 DUP10 ADD PUSH2 0x1A73 JUMP JUMPDEST SWAP3 POP POP PUSH1 0x80 PUSH2 0x1FA7 DUP9 DUP3 DUP10 ADD PUSH2 0x1AC7 JUMP JUMPDEST SWAP2 POP POP SWAP3 SWAP6 POP SWAP3 SWAP6 SWAP1 SWAP4 POP JUMP JUMPDEST PUSH1 0x0 PUSH2 0x1FC0 DUP4 DUP4 PUSH2 0x2239 JUMP JUMPDEST PUSH1 0x20 DUP4 ADD SWAP1 POP SWAP3 SWAP2 POP POP JUMP JUMPDEST PUSH2 0x1FD5 DUP2 PUSH2 0x28A6 JUMP JUMPDEST DUP3 MSTORE POP POP JUMP JUMPDEST PUSH1 0x0 PUSH2 0x1FE6 DUP3 PUSH2 0x26AA JUMP JUMPDEST PUSH2 0x1FF0 DUP2 DUP6 PUSH2 0x26CD JUMP JUMPDEST SWAP4 POP PUSH2 0x1FFB DUP4 PUSH2 0x269A JUMP JUMPDEST DUP1 PUSH1 0x0 JUMPDEST DUP4 DUP2 LT ISZERO PUSH2 0x202C JUMPI DUP2 MLOAD PUSH2 0x2013 DUP9 DUP3 PUSH2 0x1FB4 JUMP JUMPDEST SWAP8 POP PUSH2 0x201E DUP4 PUSH2 0x26C0 JUMP JUMPDEST SWAP3 POP POP PUSH1 0x1 DUP2 ADD SWAP1 POP PUSH2 0x1FFF JUMP JUMPDEST POP DUP6 SWAP4 POP POP POP POP SWAP3 SWAP2 POP POP JUMP JUMPDEST PUSH2 0x2042 DUP2 PUSH2 0x28B8 JUMP JUMPDEST DUP3 MSTORE POP POP JUMP JUMPDEST PUSH2 0x2051 DUP2 PUSH2 0x28C4 JUMP JUMPDEST DUP3 MSTORE POP POP JUMP JUMPDEST PUSH2 0x2060 DUP2 PUSH2 0x2966 JUMP JUMPDEST DUP3 MSTORE POP POP JUMP JUMPDEST PUSH2 0x206F DUP2 PUSH2 0x2978 JUMP JUMPDEST DUP3 MSTORE POP POP JUMP JUMPDEST PUSH2 0x207E DUP2 PUSH2 0x298A JUMP JUMPDEST DUP3 MSTORE POP POP JUMP JUMPDEST PUSH2 0x208D DUP2 PUSH2 0x28CE JUMP JUMPDEST DUP3 MSTORE POP POP JUMP JUMPDEST PUSH1 0x0 PUSH2 0x209E DUP3 PUSH2 0x26B5 JUMP JUMPDEST PUSH2 0x20A8 DUP2 DUP6 PUSH2 0x26DE JUMP JUMPDEST SWAP4 POP PUSH2 0x20B8 DUP2 DUP6 PUSH1 0x20 DUP7 ADD PUSH2 0x29C0 JUMP JUMPDEST PUSH2 0x20C1 DUP2 PUSH2 0x2ACA JUMP JUMPDEST DUP5 ADD SWAP2 POP POP SWAP3 SWAP2 POP POP JUMP JUMPDEST PUSH1 0x0 PUSH2 0x20D9 PUSH1 0x11 DUP4 PUSH2 0x26DE JUMP JUMPDEST SWAP2 POP PUSH2 0x20E4 DUP3 PUSH2 0x2ADB JUMP JUMPDEST PUSH1 0x20 DUP3 ADD SWAP1 POP SWAP2 SWAP1 POP JUMP JUMPDEST PUSH1 0x0 PUSH2 0x20FC PUSH1 0x19 DUP4 PUSH2 0x26DE JUMP JUMPDEST SWAP2 POP PUSH2 0x2107 DUP3 PUSH2 0x2B04 JUMP JUMPDEST PUSH1 0x20 DUP3 ADD SWAP1 POP SWAP2 SWAP1 POP JUMP JUMPDEST PUSH1 0x0 PUSH2 0x211F PUSH1 0x16 DUP4 PUSH2 0x26DE JUMP JUMPDEST SWAP2 POP PUSH2 0x212A DUP3 PUSH2 0x2B2D JUMP JUMPDEST PUSH1 0x20 DUP3 ADD SWAP1 POP SWAP2 SWAP1 POP JUMP JUMPDEST PUSH1 0x0 PUSH2 0x2142 PUSH1 0x16 DUP4 PUSH2 0x26DE JUMP JUMPDEST SWAP2 POP PUSH2 0x214D DUP3 PUSH2 0x2B56 JUMP JUMPDEST PUSH1 0x20 DUP3 ADD SWAP1 POP SWAP2 SWAP1 POP JUMP JUMPDEST PUSH1 0x0 PUSH2 0x2165 PUSH1 0x16 DUP4 PUSH2 0x26DE JUMP JUMPDEST SWAP2 POP PUSH2 0x2170 DUP3 PUSH2 0x2B7F JUMP JUMPDEST PUSH1 0x20 DUP3 ADD SWAP1 POP SWAP2 SWAP1 POP JUMP JUMPDEST PUSH1 0x0 PUSH2 0x2188 PUSH1 0xB DUP4 PUSH2 0x26DE JUMP JUMPDEST SWAP2 POP PUSH2 0x2193 DUP3 PUSH2 0x2BA8 JUMP JUMPDEST PUSH1 0x20 DUP3 ADD SWAP1 POP SWAP2 SWAP1 POP JUMP JUMPDEST PUSH1 0x0 PUSH2 0x21AB PUSH1 0x17 DUP4 PUSH2 0x26DE JUMP JUMPDEST SWAP2 POP PUSH2 0x21B6 DUP3 PUSH2 0x2BD1 JUMP JUMPDEST PUSH1 0x20 DUP3 ADD SWAP1 POP SWAP2 SWAP1 POP JUMP JUMPDEST PUSH1 0x0 PUSH2 0x21CE PUSH1 0x17 DUP4 PUSH2 0x26DE JUMP JUMPDEST SWAP2 POP PUSH2 0x21D9 DUP3 PUSH2 0x2BFA JUMP JUMPDEST PUSH1 0x20 DUP3 ADD SWAP1 POP SWAP2 SWAP1 POP JUMP JUMPDEST PUSH1 0x0 PUSH2 0x21F1 PUSH1 0x11 DUP4 PUSH2 0x26DE JUMP JUMPDEST SWAP2 POP PUSH2 0x21FC DUP3 PUSH2 0x2C23 JUMP JUMPDEST PUSH1 0x20 DUP3 ADD SWAP1 POP SWAP2 SWAP1 POP JUMP JUMPDEST PUSH1 0x0 PUSH2 0x2214 PUSH1 0x13 DUP4 PUSH2 0x26DE JUMP JUMPDEST SWAP2 POP PUSH2 0x221F DUP3 PUSH2 0x2C4C JUMP JUMPDEST PUSH1 0x20 DUP3 ADD SWAP1 POP SWAP2 SWAP1 POP JUMP JUMPDEST PUSH2 0x2233 DUP2 PUSH2 0x28D8 JUMP JUMPDEST DUP3 MSTORE POP POP JUMP JUMPDEST PUSH2 0x2242 DUP2 PUSH2 0x2915 JUMP JUMPDEST DUP3 MSTORE POP POP JUMP JUMPDEST PUSH2 0x2251 DUP2 PUSH2 0x2915 JUMP JUMPDEST DUP3 MSTORE POP POP JUMP JUMPDEST PUSH2 0x2260 DUP2 PUSH2 0x291F JUMP JUMPDEST DUP3 MSTORE POP POP JUMP JUMPDEST PUSH2 0x226F DUP2 PUSH2 0x292F JUMP JUMPDEST DUP3 MSTORE POP POP JUMP JUMPDEST PUSH2 0x227E DUP2 PUSH2 0x2943 JUMP JUMPDEST DUP3 MSTORE POP POP JUMP JUMPDEST PUSH1 0x0 PUSH1 0x20 DUP3 ADD SWAP1 POP PUSH2 0x2299 PUSH1 0x0 DUP4 ADD DUP5 PUSH2 0x1FCC JUMP JUMPDEST SWAP3 SWAP2 POP POP JUMP JUMPDEST PUSH1 0x0 PUSH1 0x40 DUP3 ADD SWAP1 POP PUSH2 0x22B4 PUSH1 0x0 DUP4 ADD DUP6 PUSH2 0x1FCC JUMP JUMPDEST PUSH2 0x22C1 PUSH1 0x20 DUP4 ADD DUP5 PUSH2 0x1FCC JUMP JUMPDEST SWAP4 SWAP3 POP POP POP JUMP JUMPDEST PUSH1 0x0 PUSH1 0x40 DUP3 ADD SWAP1 POP PUSH2 0x22DD PUSH1 0x0 DUP4 ADD DUP6 PUSH2 0x1FCC JUMP JUMPDEST PUSH2 0x22EA PUSH1 0x20 DUP4 ADD DUP5 PUSH2 0x2248 JUMP JUMPDEST SWAP4 SWAP3 POP POP POP JUMP JUMPDEST PUSH1 0x0 PUSH1 0xA0 DUP3 ADD SWAP1 POP PUSH2 0x2306 PUSH1 0x0 DUP4 ADD DUP9 PUSH2 0x1FCC JUMP JUMPDEST PUSH2 0x2313 PUSH1 0x20 DUP4 ADD DUP8 PUSH2 0x2257 JUMP JUMPDEST PUSH2 0x2320 PUSH1 0x40 DUP4 ADD DUP7 PUSH2 0x2248 JUMP JUMPDEST PUSH2 0x232D PUSH1 0x60 DUP4 ADD DUP6 PUSH2 0x2084 JUMP JUMPDEST PUSH2 0x233A PUSH1 0x80 DUP4 ADD DUP5 PUSH2 0x2248 JUMP JUMPDEST SWAP7 SWAP6 POP POP POP POP POP POP JUMP JUMPDEST PUSH1 0x0 PUSH1 0x20 DUP3 ADD SWAP1 POP PUSH2 0x2359 PUSH1 0x0 DUP4 ADD DUP5 PUSH2 0x2039 JUMP JUMPDEST SWAP3 SWAP2 POP POP JUMP JUMPDEST PUSH1 0x0 PUSH1 0xA0 DUP3 ADD SWAP1 POP PUSH2 0x2374 PUSH1 0x0 DUP4 ADD DUP9 PUSH2 0x2048 JUMP JUMPDEST PUSH2 0x2381 PUSH1 0x20 DUP4 ADD DUP8 PUSH2 0x2266 JUMP JUMPDEST PUSH2 0x238E PUSH1 0x40 DUP4 ADD DUP7 PUSH2 0x222A JUMP JUMPDEST PUSH2 0x239B PUSH1 0x60 DUP4 ADD DUP6 PUSH2 0x2257 JUMP JUMPDEST PUSH2 0x23A8 PUSH1 0x80 DUP4 ADD DUP5 PUSH2 0x2257 JUMP JUMPDEST SWAP7 SWAP6 POP POP POP POP POP POP JUMP JUMPDEST PUSH1 0x0 PUSH1 0x20 DUP3 ADD SWAP1 POP PUSH2 0x23C7 PUSH1 0x0 DUP4 ADD DUP5 PUSH2 0x2057 JUMP JUMPDEST SWAP3 SWAP2 POP POP JUMP JUMPDEST PUSH1 0x0 PUSH1 0x20 DUP3 ADD SWAP1 POP PUSH2 0x23E2 PUSH1 0x0 DUP4 ADD DUP5 PUSH2 0x2066 JUMP JUMPDEST SWAP3 SWAP2 POP POP JUMP JUMPDEST PUSH1 0x0 PUSH1 0x20 DUP3 ADD SWAP1 POP PUSH2 0x23FD PUSH1 0x0 DUP4 ADD DUP5 PUSH2 0x2075 JUMP JUMPDEST SWAP3 SWAP2 POP POP JUMP JUMPDEST PUSH1 0x0 PUSH2 0x100 DUP3 ADD SWAP1 POP PUSH2 0x2419 PUSH1 0x0 DUP4 ADD DUP12 PUSH2 0x2084 JUMP JUMPDEST PUSH2 0x2426 PUSH1 0x20 DUP4 ADD DUP11 PUSH2 0x2257 JUMP JUMPDEST PUSH2 0x2433 PUSH1 0x40 DUP4 ADD DUP10 PUSH2 0x2257 JUMP JUMPDEST PUSH2 0x2440 PUSH1 0x60 DUP4 ADD DUP9 PUSH2 0x2257 JUMP JUMPDEST PUSH2 0x244D PUSH1 0x80 DUP4 ADD DUP8 PUSH2 0x2257 JUMP JUMPDEST PUSH2 0x245A PUSH1 0xA0 DUP4 ADD DUP7 PUSH2 0x2275 JUMP JUMPDEST PUSH2 0x2467 PUSH1 0xC0 DUP4 ADD DUP6 PUSH2 0x2048 JUMP JUMPDEST PUSH2 0x2474 PUSH1 0xE0 DUP4 ADD DUP5 PUSH2 0x2275 JUMP JUMPDEST SWAP10 SWAP9 POP POP POP POP POP POP POP POP POP JUMP JUMPDEST PUSH1 0x0 PUSH1 0x20 DUP3 ADD SWAP1 POP DUP2 DUP2 SUB PUSH1 0x0 DUP4 ADD MSTORE PUSH2 0x249B DUP2 DUP5 PUSH2 0x2093 JUMP JUMPDEST SWAP1 POP SWAP3 SWAP2 POP POP JUMP JUMPDEST PUSH1 0x0 PUSH1 0x20 DUP3 ADD SWAP1 POP DUP2 DUP2 SUB PUSH1 0x0 DUP4 ADD MSTORE PUSH2 0x24BC DUP2 PUSH2 0x20CC JUMP JUMPDEST SWAP1 POP SWAP2 SWAP1 POP JUMP JUMPDEST PUSH1 0x0 PUSH1 0x20 DUP3 ADD SWAP1 POP DUP2 DUP2 SUB PUSH1 0x0 DUP4 ADD MSTORE PUSH2 0x24DC DUP2 PUSH2 0x20EF JUMP JUMPDEST SWAP1 POP SWAP2 SWAP1 POP JUMP JUMPDEST PUSH1 0x0 PUSH1 0x20 DUP3 ADD SWAP1 POP DUP2 DUP2 SUB PUSH1 0x0 DUP4 ADD MSTORE PUSH2 0x24FC DUP2 PUSH2 0x2112 JUMP JUMPDEST SWAP1 POP SWAP2 SWAP1 POP JUMP JUMPDEST PUSH1 0x0 PUSH1 0x20 DUP3 ADD SWAP1 POP DUP2 DUP2 SUB PUSH1 0x0 DUP4 ADD MSTORE PUSH2 0x251C DUP2 PUSH2 0x2135 JUMP JUMPDEST SWAP1 POP SWAP2 SWAP1 POP JUMP JUMPDEST PUSH1 0x0 PUSH1 0x20 DUP3 ADD SWAP1 POP DUP2 DUP2 SUB PUSH1 0x0 DUP4 ADD MSTORE PUSH2 0x253C DUP2 PUSH2 0x2158 JUMP JUMPDEST SWAP1 POP SWAP2 SWAP1 POP JUMP JUMPDEST PUSH1 0x0 PUSH1 0x20 DUP3 ADD SWAP1 POP DUP2 DUP2 SUB PUSH1 0x0 DUP4 ADD MSTORE PUSH2 0x255C DUP2 PUSH2 0x217B JUMP JUMPDEST SWAP1 POP SWAP2 SWAP1 POP JUMP JUMPDEST PUSH1 0x0 PUSH1 0x20 DUP3 ADD SWAP1 POP DUP2 DUP2 SUB PUSH1 0x0 DUP4 ADD MSTORE PUSH2 0x257C DUP2 PUSH2 0x219E JUMP JUMPDEST SWAP1 POP SWAP2 SWAP1 POP JUMP JUMPDEST PUSH1 0x0 PUSH1 0x20 DUP3 ADD SWAP1 POP DUP2 DUP2 SUB PUSH1 0x0 DUP4 ADD MSTORE PUSH2 0x259C DUP2 PUSH2 0x21C1 JUMP JUMPDEST SWAP1 POP SWAP2 SWAP1 POP JUMP JUMPDEST PUSH1 0x0 PUSH1 0x20 DUP3 ADD SWAP1 POP DUP2 DUP2 SUB PUSH1 0x0 DUP4 ADD MSTORE PUSH2 0x25BC DUP2 PUSH2 0x21E4 JUMP JUMPDEST SWAP1 POP SWAP2 SWAP1 POP JUMP JUMPDEST PUSH1 0x0 PUSH1 0x20 DUP3 ADD SWAP1 POP DUP2 DUP2 SUB PUSH1 0x0 DUP4 ADD MSTORE PUSH2 0x25DC DUP2 PUSH2 0x2207 JUMP JUMPDEST SWAP1 POP SWAP2 SWAP1 POP JUMP JUMPDEST PUSH1 0x0 PUSH1 0x20 DUP3 ADD SWAP1 POP PUSH2 0x25F8 PUSH1 0x0 DUP4 ADD DUP5 PUSH2 0x2248 JUMP JUMPDEST SWAP3 SWAP2 POP POP JUMP JUMPDEST PUSH1 0x0 PUSH1 0x40 DUP3 ADD SWAP1 POP PUSH2 0x2613 PUSH1 0x0 DUP4 ADD DUP6 PUSH2 0x2248 JUMP JUMPDEST DUP2 DUP2 SUB PUSH1 0x20 DUP4 ADD MSTORE PUSH2 0x2625 DUP2 DUP5 PUSH2 0x1FDB JUMP JUMPDEST SWAP1 POP SWAP4 SWAP3 POP POP POP JUMP JUMPDEST PUSH1 0x0 PUSH1 0x20 DUP3 ADD SWAP1 POP PUSH2 0x2643 PUSH1 0x0 DUP4 ADD DUP5 PUSH2 0x2266 JUMP JUMPDEST SWAP3 SWAP2 POP POP JUMP JUMPDEST PUSH1 0x0 PUSH2 0x2653 PUSH2 0x2664 JUMP JUMPDEST SWAP1 POP PUSH2 0x265F DUP3 DUP3 PUSH2 0x29F3 JUMP JUMPDEST SWAP2 SWAP1 POP JUMP JUMPDEST PUSH1 0x0 PUSH1 0x40 MLOAD SWAP1 POP SWAP1 JUMP JUMPDEST PUSH1 0x0 PUSH8 0xFFFFFFFFFFFFFFFF DUP3 GT ISZERO PUSH2 0x2689 JUMPI PUSH2 0x2688 PUSH2 0x2A82 JUMP JUMPDEST JUMPDEST PUSH1 0x20 DUP3 MUL SWAP1 POP PUSH1 0x20 DUP2 ADD SWAP1 POP SWAP2 SWAP1 POP JUMP JUMPDEST PUSH1 0x0 DUP2 SWAP1 POP PUSH1 0x20 DUP3 ADD SWAP1 POP SWAP2 SWAP1 POP JUMP JUMPDEST PUSH1 0x0 DUP2 MLOAD SWAP1 POP SWAP2 SWAP1 POP JUMP JUMPDEST PUSH1 0x0 DUP2 MLOAD SWAP1 POP SWAP2 SWAP1 POP JUMP JUMPDEST PUSH1 0x0 PUSH1 0x20 DUP3 ADD SWAP1 POP SWAP2 SWAP1 POP JUMP JUMPDEST PUSH1 0x0 DUP3 DUP3 MSTORE PUSH1 0x20 DUP3 ADD SWAP1 POP SWAP3 SWAP2 POP POP JUMP JUMPDEST PUSH1 0x0 DUP3 DUP3 MSTORE PUSH1 0x20 DUP3 ADD SWAP1 POP SWAP3 SWAP2 POP POP JUMP JUMPDEST PUSH1 0x0 PUSH2 0x26FA DUP3 PUSH2 0x2915 JUMP JUMPDEST SWAP2 POP PUSH2 0x2705 DUP4 PUSH2 0x2915 JUMP JUMPDEST SWAP3 POP DUP3 PUSH32 0xFFFFFFFFFFFFFFFFFFFFFFFFFFFFFFFFFFFFFFFFFFFFFFFFFFFFFFFFFFFFFFFF SUB DUP3 GT ISZERO PUSH2 0x273A JUMPI PUSH2 0x2739 PUSH2 0x2A24 JUMP JUMPDEST JUMPDEST DUP3 DUP3 ADD SWAP1 POP SWAP3 SWAP2 POP POP JUMP JUMPDEST PUSH1 0x0 PUSH2 0x2750 DUP3 PUSH2 0x291F JUMP JUMPDEST SWAP2 POP PUSH2 0x275B DUP4 PUSH2 0x291F JUMP JUMPDEST SWAP3 POP DUP3 PUSH4 0xFFFFFFFF SUB DUP3 GT ISZERO PUSH2 0x2774 JUMPI PUSH2 0x2773 PUSH2 0x2A24 JUMP JUMPDEST JUMPDEST DUP3 DUP3 ADD SWAP1 POP SWAP3 SWAP2 POP POP JUMP JUMPDEST PUSH1 0x0 PUSH2 0x278A DUP3 PUSH2 0x2943 JUMP JUMPDEST SWAP2 POP PUSH2 0x2795 DUP4 PUSH2 0x2943 JUMP JUMPDEST SWAP3 POP DUP3 PUSH1 0xFF SUB DUP3 GT ISZERO PUSH2 0x27AB JUMPI PUSH2 0x27AA PUSH2 0x2A24 JUMP JUMPDEST JUMPDEST DUP3 DUP3 ADD SWAP1 POP SWAP3 SWAP2 POP POP JUMP JUMPDEST PUSH1 0x0 PUSH2 0x27C1 DUP3 PUSH2 0x2915 JUMP JUMPDEST SWAP2 POP PUSH2 0x27CC DUP4 PUSH2 0x2915 JUMP JUMPDEST SWAP3 POP DUP3 PUSH2 0x27DC JUMPI PUSH2 0x27DB PUSH2 0x2A53 JUMP JUMPDEST JUMPDEST DUP3 DUP3 DIV SWAP1 POP SWAP3 SWAP2 POP POP JUMP JUMPDEST PUSH1 0x0 PUSH2 0x27F2 DUP3 PUSH2 0x291F JUMP JUMPDEST SWAP2 POP PUSH2 0x27FD DUP4 PUSH2 0x291F JUMP JUMPDEST SWAP3 POP DUP3 PUSH2 0x280D JUMPI PUSH2 0x280C PUSH2 0x2A53 JUMP JUMPDEST JUMPDEST DUP3 DUP3 DIV SWAP1 POP SWAP3 SWAP2 POP POP JUMP JUMPDEST PUSH1 0x0 PUSH2 0x2823 DUP3 PUSH2 0x2915 JUMP JUMPDEST SWAP2 POP PUSH2 0x282E DUP4 PUSH2 0x2915 JUMP JUMPDEST SWAP3 POP DUP2 PUSH32 0xFFFFFFFFFFFFFFFFFFFFFFFFFFFFFFFFFFFFFFFFFFFFFFFFFFFFFFFFFFFFFFFF DIV DUP4 GT DUP3 ISZERO ISZERO AND ISZERO PUSH2 0x2867 JUMPI PUSH2 0x2866 PUSH2 0x2A24 JUMP JUMPDEST JUMPDEST DUP3 DUP3 MUL SWAP1 POP SWAP3 SWAP2 POP POP JUMP JUMPDEST PUSH1 0x0 PUSH2 0x287D DUP3 PUSH2 0x2915 JUMP JUMPDEST SWAP2 POP PUSH2 0x2888 DUP4 PUSH2 0x2915 JUMP JUMPDEST SWAP3 POP DUP3 DUP3 LT ISZERO PUSH2 0x289B JUMPI PUSH2 0x289A PUSH2 0x2A24 JUMP JUMPDEST JUMPDEST DUP3 DUP3 SUB SWAP1 POP SWAP3 SWAP2 POP POP JUMP JUMPDEST PUSH1 0x0 PUSH2 0x28B1 DUP3 PUSH2 0x28E6 JUMP JUMPDEST SWAP1 POP SWAP2 SWAP1 POP JUMP JUMPDEST PUSH1 0x0 DUP2 ISZERO ISZERO SWAP1 POP SWAP2 SWAP1 POP JUMP JUMPDEST PUSH1 0x0 DUP2 SWAP1 POP SWAP2 SWAP1 POP JUMP JUMPDEST PUSH1 0x0 DUP2 SWAP1 POP SWAP2 SWAP1 POP JUMP JUMPDEST PUSH1 0x0 PUSH2 0xFFFF DUP3 AND SWAP1 POP SWAP2 SWAP1 POP JUMP JUMPDEST PUSH1 0x0 PUSH20 0xFFFFFFFFFFFFFFFFFFFFFFFFFFFFFFFFFFFFFFFF DUP3 AND SWAP1 POP SWAP2 SWAP1 POP JUMP JUMPDEST PUSH1 0x0 PUSH3 0xFFFFFF DUP3 AND SWAP1 POP SWAP2 SWAP1 POP JUMP JUMPDEST PUSH1 0x0 DUP2 SWAP1 POP SWAP2 SWAP1 POP JUMP JUMPDEST PUSH1 0x0 PUSH4 0xFFFFFFFF DUP3 AND SWAP1 POP SWAP2 SWAP1 POP JUMP JUMPDEST PUSH1 0x0 PUSH8 0xFFFFFFFFFFFFFFFF DUP3 AND SWAP1 POP SWAP2 SWAP1 POP JUMP JUMPDEST PUSH1 0x0 PUSH1 0xFF DUP3 AND SWAP1 POP SWAP2 SWAP1 POP JUMP JUMPDEST PUSH1 0x0 PUSH10 0xFFFFFFFFFFFFFFFFFFFF DUP3 AND SWAP1 POP SWAP2 SWAP1 POP JUMP JUMPDEST PUSH1 0x0 PUSH2 0x2971 DUP3 PUSH2 0x299C JUMP JUMPDEST SWAP1 POP SWAP2 SWAP1 POP JUMP JUMPDEST PUSH1 0x0 PUSH2 0x2983 DUP3 PUSH2 0x299C JUMP JUMPDEST SWAP1 POP SWAP2 SWAP1 POP JUMP JUMPDEST PUSH1 0x0 PUSH2 0x2995 DUP3 PUSH2 0x299C JUMP JUMPDEST SWAP1 POP SWAP2 SWAP1 POP JUMP JUMPDEST PUSH1 0x0 PUSH2 0x29A7 DUP3 PUSH2 0x29AE JUMP JUMPDEST SWAP1 POP SWAP2 SWAP1 POP JUMP JUMPDEST PUSH1 0x0 PUSH2 0x29B9 DUP3 PUSH2 0x28E6 JUMP JUMPDEST SWAP1 POP SWAP2 SWAP1 POP JUMP JUMPDEST PUSH1 0x0 JUMPDEST DUP4 DUP2 LT ISZERO PUSH2 0x29DE JUMPI DUP1 DUP3 ADD MLOAD DUP2 DUP5 ADD MSTORE PUSH1 0x20 DUP2 ADD SWAP1 POP PUSH2 0x29C3 JUMP JUMPDEST DUP4 DUP2 GT ISZERO PUSH2 0x29ED JUMPI PUSH1 0x0 DUP5 DUP5 ADD MSTORE JUMPDEST POP POP POP POP JUMP JUMPDEST PUSH2 0x29FC DUP3 PUSH2 0x2ACA JUMP JUMPDEST DUP2 ADD DUP2 DUP2 LT PUSH8 0xFFFFFFFFFFFFFFFF DUP3 GT OR ISZERO PUSH2 0x2A1B JUMPI PUSH2 0x2A1A PUSH2 0x2A82 JUMP JUMPDEST JUMPDEST DUP1 PUSH1 0x40 MSTORE POP POP POP JUMP JUMPDEST PUSH32 0x4E487B7100000000000000000000000000000000000000000000000000000000 PUSH1 0x0 MSTORE PUSH1 0x11 PUSH1 0x4 MSTORE PUSH1 0x24 PUSH1 0x0 REVERT JUMPDEST PUSH32 0x4E487B7100000000000000000000000000000000000000000000000000000000 PUSH1 0x0 MSTORE PUSH1 0x12 PUSH1 0x4 MSTORE PUSH1 0x24 PUSH1 0x0 REVERT JUMPDEST PUSH32 0x4E487B7100000000000000000000000000000000000000000000000000000000 PUSH1 0x0 MSTORE PUSH1 0x41 PUSH1 0x4 MSTORE PUSH1 0x24 PUSH1 0x0 REVERT JUMPDEST PUSH1 0x0 DUP1 REVERT JUMPDEST PUSH1 0x0 DUP1 REVERT JUMPDEST PUSH1 0x0 DUP1 REVERT JUMPDEST PUSH1 0x0 DUP1 REVERT JUMPDEST PUSH1 0x0 DUP1 REVERT JUMPDEST PUSH1 0x0 PUSH1 0x1F NOT PUSH1 0x1F DUP4 ADD AND SWAP1 POP SWAP2 SWAP1 POP JUMP JUMPDEST PUSH32 0x72657175657374206E6F7420666F756E64000000000000000000000000000000 PUSH1 0x0 DUP3 ADD MSTORE POP JUMP JUMPDEST PUSH32 0x77726170706572206973206E6F7420636F6E6669677572656400000000000000 PUSH1 0x0 DUP3 ADD MSTORE POP JUMP JUMPDEST PUSH32 0x4D7573742062652070726F706F736564206F776E657200000000000000000000 PUSH1 0x0 DUP3 ADD MSTORE POP JUMP JUMPDEST PUSH32 0x4F6E6C792063616C6C61626C65206279206F776E657200000000000000000000 PUSH1 0x0 DUP3 ADD MSTORE POP JUMP JUMPDEST PUSH32 0x496E76616C6964204C494E4B2077656920707269636500000000000000000000 PUSH1 0x0 DUP3 ADD MSTORE POP JUMP JUMPDEST PUSH32 0x66656520746F6F206C6F77000000000000000000000000000000000000000000 PUSH1 0x0 DUP3 ADD MSTORE POP JUMP JUMPDEST PUSH32 0x43616E6E6F74207472616E7366657220746F2073656C66000000000000000000 PUSH1 0x0 DUP3 ADD MSTORE POP JUMP JUMPDEST PUSH32 0x6F6E6C792063616C6C61626C652066726F6D204C494E4B000000000000000000 PUSH1 0x0 DUP3 ADD MSTORE POP JUMP JUMPDEST PUSH32 0x6E756D576F72647320746F6F2068696768000000000000000000000000000000 PUSH1 0x0 DUP3 ADD MSTORE POP JUMP JUMPDEST PUSH32 0x777261707065722069732064697361626C656400000000000000000000000000 PUSH1 0x0 DUP3 ADD MSTORE POP JUMP JUMPDEST PUSH2 0x2C7E DUP2 PUSH2 0x28A6 JUMP JUMPDEST DUP2 EQ PUSH2 0x2C89 JUMPI PUSH1 0x0 DUP1 REVERT JUMPDEST POP JUMP JUMPDEST PUSH2 0x2C95 DUP2 PUSH2 0x28B8 JUMP JUMPDEST DUP2 EQ PUSH2 0x2CA0 JUMPI PUSH1 0x0 DUP1 REVERT JUMPDEST POP JUMP JUMPDEST PUSH2 0x2CAC DUP2 PUSH2 0x28C4 JUMP JUMPDEST DUP2 EQ PUSH2 0x2CB7 JUMPI PUSH1 0x0 DUP1 REVERT JUMPDEST POP JUMP JUMPDEST PUSH2 0x2CC3 DUP2 PUSH2 0x28CE JUMP JUMPDEST DUP2 EQ PUSH2 0x2CCE JUMPI PUSH1 0x0 DUP1 REVERT JUMPDEST POP JUMP JUMPDEST PUSH2 0x2CDA DUP2 PUSH2 0x28D8 JUMP JUMPDEST DUP2 EQ PUSH2 0x2CE5 JUMPI PUSH1 0x0 DUP1 REVERT JUMPDEST POP JUMP JUMPDEST PUSH2 0x2CF1 DUP2 PUSH2 0x2906 JUMP JUMPDEST DUP2 EQ PUSH2 0x2CFC JUMPI PUSH1 0x0 DUP1 REVERT JUMPDEST POP JUMP JUMPDEST PUSH2 0x2D08 DUP2 PUSH2 0x2915 JUMP JUMPDEST DUP2 EQ PUSH2 0x2D13 JUMPI PUSH1 0x0 DUP1 REVERT JUMPDEST POP JUMP JUMPDEST PUSH2 0x2D1F DUP2 PUSH2 0x291F JUMP JUMPDEST DUP2 EQ PUSH2 0x2D2A JUMPI PUSH1 0x0 DUP1 REVERT JUMPDEST POP JUMP JUMPDEST PUSH2 0x2D36 DUP2 PUSH2 0x2943 JUMP JUMPDEST DUP2 EQ PUSH2 0x2D41 JUMPI PUSH1 0x0 DUP1 REVERT JUMPDEST POP JUMP JUMPDEST PUSH2 0x2D4D DUP2 PUSH2 0x2950 JUMP JUMPDEST DUP2 EQ PUSH2 0x2D58 JUMPI PUSH1 0x0 DUP1 REVERT JUMPDEST POP JUMP INVALID LOG2 PUSH5 0x6970667358 0x22 SLT KECCAK256 SELFDESTRUCT 0xA8 EXTCODESIZE PUSH23 0xEBBDAC90A97E8DF40491B0CCF326BAA2A2414E79FA7A84 0xBF 0xB8 0x2C EQ DUP10 PUSH5 0x736F6C6343 STOP ADDMOD SMOD STOP CALLER "},"methodIdentifiers":{"COORDINATOR()":"3b2bcbf1","LINK()":"1b6b6d23","LINK_ETH_FEED()":"ad178361","SUBSCRIPTION_ID()":"030932bb","acceptOwnership()":"79ba5097","calculateRequestPrice(uint32)":"4306d354","disable()":"2f2770db","enable()":"a3907d71","estimateRequestPrice(uint32,uint256)":"7fb5d19d","getConfig()":"c3f909d4","lastRequestId()":"fc2a88c3","onTokenTransfer(address,uint256,bytes)":"a4c0ed36","owner()":"8da5cb5b","rawFulfillRandomWords(uint256,uint256[])":"1fe543e3","s_callbacks(uint256)":"48baa1c5","s_configured()":"57a8070a","s_disabled()":"a608a1e1","setConfig(uint32,uint32,uint8,bytes32,uint8)":"c15ce4d7","transferOwnership(address)":"f2fde38b","typeAndVersion()":"181f5a77","withdraw(address,uint256)":"f3fef3a3"}}}}}