{
  "_format": "hh-sol-artifact-1",
  "contractName": "VRFV2Wrapper",
  "sourceName": "@chainlink/contracts/src/v0.8/VRFV2Wrapper.sol",
  "abi": [
    {
      "inputs": [
        {
          "internalType": "address",
          "name": "_link",
          "type": "address"
        },
        {
          "internalType": "address",
          "name": "_linkEthFeed",
          "type": "address"
        },
        {
          "internalType": "address",
          "name": "_coordinator",
          "type": "address"
        }
      ],
      "stateMutability": "nonpayable",
      "type": "constructor"
    },
    {
      "inputs": [
        {
          "internalType": "address",
          "name": "have",
          "type": "address"
        },
        {
          "internalType": "address",
          "name": "want",
          "type": "address"
        }
      ],
      "name": "OnlyCoordinatorCanFulfill",
      "type": "error"
    },
    {
      "anonymous": false,
      "inputs": [
        {
          "indexed": true,
          "internalType": "address",
          "name": "from",
          "type": "address"
        },
        {
          "indexed": true,
          "internalType": "address",
          "name": "to",
          "type": "address"
        }
      ],
      "name": "OwnershipTransferRequested",
      "type": "event"
    },
    {
      "anonymous": false,
      "inputs": [
        {
          "indexed": true,
          "internalType": "address",
          "name": "from",
          "type": "address"
        },
        {
          "indexed": true,
          "internalType": "address",
          "name": "to",
          "type": "address"
        }
      ],
      "name": "OwnershipTransferred",
      "type": "event"
    },
    {
      "anonymous": false,
      "inputs": [
        {
          "indexed": true,
          "internalType": "uint256",
          "name": "requestId",
          "type": "uint256"
        },
        {
          "indexed": true,
          "internalType": "address",
          "name": "consumer",
          "type": "address"
        }
      ],
      "name": "WrapperFulfillmentFailed",
      "type": "event"
    },
    {
      "inputs": [],
      "name": "COORDINATOR",
      "outputs": [
        {
          "internalType": "contract ExtendedVRFCoordinatorV2Interface",
          "name": "",
          "type": "address"
        }
      ],
      "stateMutability": "view",
      "type": "function"
    },
    {
      "inputs": [],
      "name": "LINK",
      "outputs": [
        {
          "internalType": "contract LinkTokenInterface",
          "name": "",
          "type": "address"
        }
      ],
      "stateMutability": "view",
      "type": "function"
    },
    {
      "inputs": [],
      "name": "LINK_ETH_FEED",
      "outputs": [
        {
          "internalType": "contract AggregatorV3Interface",
          "name": "",
          "type": "address"
        }
      ],
      "stateMutability": "view",
      "type": "function"
    },
    {
      "inputs": [],
      "name": "SUBSCRIPTION_ID",
      "outputs": [
        {
          "internalType": "uint64",
          "name": "",
          "type": "uint64"
        }
      ],
      "stateMutability": "view",
      "type": "function"
    },
    {
      "inputs": [],
      "name": "acceptOwnership",
      "outputs": [],
      "stateMutability": "nonpayable",
      "type": "function"
    },
    {
      "inputs": [
        {
          "internalType": "uint32",
          "name": "_callbackGasLimit",
          "type": "uint32"
        }
      ],
      "name": "calculateRequestPrice",
      "outputs": [
        {
          "internalType": "uint256",
          "name": "",
          "type": "uint256"
        }
      ],
      "stateMutability": "view",
      "type": "function"
    },
    {
      "inputs": [],
      "name": "disable",
      "outputs": [],
      "stateMutability": "nonpayable",
      "type": "function"
    },
    {
      "inputs": [],
      "name": "enable",
      "outputs": [],
      "stateMutability": "nonpayable",
      "type": "function"
    },
    {
      "inputs": [
        {
          "internalType": "uint32",
          "name": "_callbackGasLimit",
          "type": "uint32"
        },
        {
          "internalType": "uint256",
          "name": "_requestGasPriceWei",
          "type": "uint256"
        }
      ],
      "name": "estimateRequestPrice",
      "outputs": [
        {
          "internalType": "uint256",
          "name": "",
          "type": "uint256"
        }
      ],
      "stateMutability": "view",
      "type": "function"
    },
    {
      "inputs": [],
      "name": "getConfig",
      "outputs": [
        {
          "internalType": "int256",
          "name": "fallbackWeiPerUnitLink",
          "type": "int256"
        },
        {
          "internalType": "uint32",
          "name": "stalenessSeconds",
          "type": "uint32"
        },
        {
          "internalType": "uint32",
          "name": "fulfillmentFlatFeeLinkPPM",
          "type": "uint32"
        },
        {
          "internalType": "uint32",
          "name": "wrapperGasOverhead",
          "type": "uint32"
        },
        {
          "internalType": "uint32",
          "name": "coordinatorGasOverhead",
          "type": "uint32"
        },
        {
          "internalType": "uint8",
          "name": "wrapperPremiumPercentage",
          "type": "uint8"
        },
        {
          "internalType": "bytes32",
          "name": "keyHash",
          "type": "bytes32"
        },
        {
          "internalType": "uint8",
          "name": "maxNumWords",
          "type": "uint8"
        }
      ],
      "stateMutability": "view",
      "type": "function"
    },
    {
      "inputs": [],
      "name": "lastRequestId",
      "outputs": [
        {
          "internalType": "uint256",
          "name": "",
          "type": "uint256"
        }
      ],
      "stateMutability": "view",
      "type": "function"
    },
    {
      "inputs": [
        {
          "internalType": "address",
          "name": "_sender",
          "type": "address"
        },
        {
          "internalType": "uint256",
          "name": "_amount",
          "type": "uint256"
        },
        {
          "internalType": "bytes",
          "name": "_data",
          "type": "bytes"
        }
      ],
      "name": "onTokenTransfer",
      "outputs": [],
      "stateMutability": "nonpayable",
      "type": "function"
    },
    {
      "inputs": [],
      "name": "owner",
      "outputs": [
        {
          "internalType": "address",
          "name": "",
          "type": "address"
        }
      ],
      "stateMutability": "view",
      "type": "function"
    },
    {
      "inputs": [
        {
          "internalType": "uint256",
          "name": "requestId",
          "type": "uint256"
        },
        {
          "internalType": "uint256[]",
          "name": "randomWords",
          "type": "uint256[]"
        }
      ],
      "name": "rawFulfillRandomWords",
      "outputs": [],
      "stateMutability": "nonpayable",
      "type": "function"
    },
    {
      "inputs": [
        {
          "internalType": "uint256",
          "name": "",
          "type": "uint256"
        }
      ],
      "name": "s_callbacks",
      "outputs": [
        {
          "internalType": "address",
          "name": "callbackAddress",
          "type": "address"
        },
        {
          "internalType": "uint32",
          "name": "callbackGasLimit",
          "type": "uint32"
        },
        {
          "internalType": "uint256",
          "name": "requestGasPrice",
          "type": "uint256"
        },
        {
          "internalType": "int256",
          "name": "requestWeiPerUnitLink",
          "type": "int256"
        },
        {
          "internalType": "uint256",
          "name": "juelsPaid",
          "type": "uint256"
        }
      ],
      "stateMutability": "view",
      "type": "function"
    },
    {
      "inputs": [],
      "name": "s_configured",
      "outputs": [
        {
          "internalType": "bool",
          "name": "",
          "type": "bool"
        }
      ],
      "stateMutability": "view",
      "type": "function"
    },
    {
      "inputs": [],
      "name": "s_disabled",
      "outputs": [
        {
          "internalType": "bool",
          "name": "",
          "type": "bool"
        }
      ],
      "stateMutability": "view",
      "type": "function"
    },
    {
      "inputs": [
        {
          "internalType": "uint32",
          "name": "_wrapperGasOverhead",
          "type": "uint32"
        },
        {
          "internalType": "uint32",
          "name": "_coordinatorGasOverhead",
          "type": "uint32"
        },
        {
          "internalType": "uint8",
          "name": "_wrapperPremiumPercentage",
          "type": "uint8"
        },
        {
          "internalType": "bytes32",
          "name": "_keyHash",
          "type": "bytes32"
        },
        {
          "internalType": "uint8",
          "name": "_maxNumWords",
          "type": "uint8"
        }
      ],
      "name": "setConfig",
      "outputs": [],
      "stateMutability": "nonpayable",
      "type": "function"
    },
    {
      "inputs": [
        {
          "internalType": "address",
          "name": "to",
          "type": "address"
        }
      ],
      "name": "transferOwnership",
      "outputs": [],
      "stateMutability": "nonpayable",
      "type": "function"
    },
    {
      "inputs": [],
      "name": "typeAndVersion",
      "outputs": [
        {
          "internalType": "string",
          "name": "",
          "type": "string"
        }
      ],
      "stateMutability": "pure",
      "type": "function"
    },
    {
      "inputs": [
        {
          "internalType": "address",
          "name": "_recipient",
          "type": "address"
        },
        {
          "internalType": "uint256",
          "name": "_amount",
          "type": "uint256"
        }
      ],
      "name": "withdraw",
      "outputs": [],
      "stateMutability": "nonpayable",
      "type": "function"
    }
  ],
  "bytecode": "0x6101206040523480156200001257600080fd5b506040516200350e3803806200350e833981810160405281019062000038919062000497565b80338060008073ffffffffffffffffffffffffffffffffffffffff168273ffffffffffffffffffffffffffffffffffffffff161415620000af576040517f08c379a0000000000000000000000000000000000000000000000000000000008152600401620000a69062000595565b60405180910390fd5b816000806101000a81548173ffffffffffffffffffffffffffffffffffffffff021916908373ffffffffffffffffffffffffffffffffffffffff160217905550600073ffffffffffffffffffffffffffffffffffffffff168173ffffffffffffffffffffffffffffffffffffffff1614620001365762000135816200033960201b60201c565b5b5050508073ffffffffffffffffffffffffffffffffffffffff1660808173ffffffffffffffffffffffffffffffffffffffff1660601b81525050508273ffffffffffffffffffffffffffffffffffffffff1660a08173ffffffffffffffffffffffffffffffffffffffff1660601b815250508173ffffffffffffffffffffffffffffffffffffffff1660c08173ffffffffffffffffffffffffffffffffffffffff1660601b815250508073ffffffffffffffffffffffffffffffffffffffff1660e08173ffffffffffffffffffffffffffffffffffffffff1660601b8152505060008173ffffffffffffffffffffffffffffffffffffffff1663a21a23e46040518163ffffffff1660e01b8152600401602060405180830381600087803b1580156200026157600080fd5b505af115801562000276573d6000803e3d6000fd5b505050506040513d601f19601f820116820180604052508101906200029c9190620004f3565b90508067ffffffffffffffff166101008167ffffffffffffffff1660c01b815250508173ffffffffffffffffffffffffffffffffffffffff16637341c10c82306040518363ffffffff1660e01b8152600401620002fb929190620005d9565b600060405180830381600087803b1580156200031657600080fd5b505af11580156200032b573d6000803e3d6000fd5b5050505050505050620006ea565b3373ffffffffffffffffffffffffffffffffffffffff168173ffffffffffffffffffffffffffffffffffffffff161415620003ab576040517f08c379a0000000000000000000000000000000000000000000000000000000008152600401620003a290620005b7565b60405180910390fd5b80600160006101000a81548173ffffffffffffffffffffffffffffffffffffffff021916908373ffffffffffffffffffffffffffffffffffffffff1602179055508073ffffffffffffffffffffffffffffffffffffffff1660008054906101000a900473ffffffffffffffffffffffffffffffffffffffff1673ffffffffffffffffffffffffffffffffffffffff167fed8889f560326eb138920d842192f0eb3dd22b4f139c87a2c57538e05bae127860405160405180910390a350565b6000815190506200047a81620006b6565b92915050565b6000815190506200049181620006d0565b92915050565b600080600060608486031215620004b357620004b26200065f565b5b6000620004c38682870162000469565b9350506020620004d68682870162000469565b9250506040620004e98682870162000469565b9150509250925092565b6000602082840312156200050c576200050b6200065f565b5b60006200051c8482850162000480565b91505092915050565b620005308162000617565b82525050565b60006200054560188362000606565b9150620005528262000664565b602082019050919050565b60006200056c60178362000606565b915062000579826200068d565b602082019050919050565b6200058f816200064b565b82525050565b60006020820190508181036000830152620005b08162000536565b9050919050565b60006020820190508181036000830152620005d2816200055d565b9050919050565b6000604082019050620005f0600083018562000584565b620005ff602083018462000525565b9392505050565b600082825260208201905092915050565b600062000624826200062b565b9050919050565b600073ffffffffffffffffffffffffffffffffffffffff82169050919050565b600067ffffffffffffffff82169050919050565b600080fd5b7f43616e6e6f7420736574206f776e657220746f207a65726f0000000000000000600082015250565b7f43616e6e6f74207472616e7366657220746f2073656c66000000000000000000600082015250565b620006c18162000617565b8114620006cd57600080fd5b50565b620006db816200064b565b8114620006e757600080fd5b50565b60805160601c60a05160601c60c05160601c60e05160601c6101005160c01c612d916200077d600039600081816103af0152610b7a01526000818161051901528181610b3b01528181610e0c01528181610ed60152610f7a015260008181610d460152611514015260008181610410015281816109c5015261111c01526000818161043401526104880152612d916000f3fe608060405234801561001057600080fd5b50600436106101375760003560e01c80637fb5d19d116100b8578063ad1783611161007c578063ad178361146102f8578063c15ce4d714610316578063c3f909d414610332578063f2fde38b14610357578063f3fef3a314610373578063fc2a88c31461038f57610137565b80637fb5d19d146102665780638da5cb5b14610296578063a3907d71146102b4578063a4c0ed36146102be578063a608a1e1146102da57610137565b80633b2bcbf1116100ff5780633b2bcbf1146101bc5780634306d354146101da57806348baa1c51461020a57806357a8070a1461023e57806379ba50971461025c57610137565b8063030932bb1461013c578063181f5a771461015a5780631b6b6d23146101785780631fe543e3146101965780632f2770db146101b2575b600080fd5b6101446103ad565b604051610151919061262e565b60405180910390f35b6101626103d1565b60405161016f9190612481565b60405180910390f35b61018061040e565b60405161018d91906123e8565b60405180910390f35b6101b060048036038101906101ab9190611cd8565b610432565b005b6101ba6104f2565b005b6101c4610517565b6040516101d191906123cd565b60405180910390f35b6101f460048036038101906101ef9190611d34565b61053b565b60405161020191906125e3565b60405180910390f35b610224600480360381019061021f9190611c7e565b610601565b6040516102359594939291906122f1565b60405180910390f35b610246610667565b6040516102539190612344565b60405180910390f35b61026461067a565b005b610280600480360381019061027b9190611db4565b61080f565b60405161028d91906125e3565b60405180910390f35b61029e6108d6565b6040516102ab9190612284565b60405180910390f35b6102bc6108ff565b005b6102d860048036038101906102d39190611b49565b610924565b005b6102e2610d31565b6040516102ef9190612344565b60405180910390f35b610300610d44565b60405161030d91906123b2565b60405180910390f35b610330600480360381019061032b9190611ebe565b610d68565b005b61033a611066565b60405161034e989796959493929190612403565b60405180910390f35b610371600480360381019061036c9190611adc565b6110fe565b005b61038d60048036038101906103889190611b09565b611112565b005b6103976111cc565b6040516103a491906125e3565b60405180910390f35b7f000000000000000000000000000000000000000000000000000000000000000081565b60606040518060400160405280601281526020017f56524656325772617070657220312e302e300000000000000000000000000000815250905090565b7f000000000000000000000000000000000000000000000000000000000000000081565b7f000000000000000000000000000000000000000000000000000000000000000073ffffffffffffffffffffffffffffffffffffffff163373ffffffffffffffffffffffffffffffffffffffff16146104e457337f00000000000000000000000000000000000000000000000000000000000000006040517f1cf993f40000000000000000000000000000000000000000000000000000000081526004016104db92919061229f565b60405180910390fd5b6104ee82826111d2565b5050565b6104fa61145e565b6001600360016101000a81548160ff021916908315150217905550565b7f000000000000000000000000000000000000000000000000000000000000000081565b6000600360009054906101000a900460ff1661058c576040517f08c379a0000000000000000000000000000000000000000000000000000000008152600401610583906124c3565b60405180910390fd5b600360019054906101000a900460ff16156105dc576040517f08c379a00000000000000000000000000000000000000000000000000000000081526004016105d3906125c3565b60405180910390fd5b60006105e66114ee565b90506105f98363ffffffff163a83611648565b915050919050565b60086020528060005260406000206000915090508060000160009054906101000a900473ffffffffffffffffffffffffffffffffffffffff16908060000160149054906101000a900463ffffffff16908060010154908060020154908060030154905085565b600360009054906101000a900460ff1681565b600160009054906101000a900473ffffffffffffffffffffffffffffffffffffffff1673ffffffffffffffffffffffffffffffffffffffff163373ffffffffffffffffffffffffffffffffffffffff161461070a576040517f08c379a0000000000000000000000000000000000000000000000000000000008152600401610701906124e3565b60405180910390fd5b60008060009054906101000a900473ffffffffffffffffffffffffffffffffffffffff169050336000806101000a81548173ffffffffffffffffffffffffffffffffffffffff021916908373ffffffffffffffffffffffffffffffffffffffff1602179055506000600160006101000a81548173ffffffffffffffffffffffffffffffffffffffff021916908373ffffffffffffffffffffffffffffffffffffffff1602179055503373ffffffffffffffffffffffffffffffffffffffff168173ffffffffffffffffffffffffffffffffffffffff167f8be0079c531659141344cd1fd0a4f28419497f9722a3daafe3b4186f6b6457e060405160405180910390a350565b6000600360009054906101000a900460ff16610860576040517f08c379a0000000000000000000000000000000000000000000000000000000008152600401610857906124c3565b60405180910390fd5b600360019054906101000a900460ff16156108b0576040517f08c379a00000000000000000000000000000000000000000000000000000000081526004016108a7906125c3565b60405180910390fd5b60006108ba6114ee565b90506108cd8463ffffffff168483611648565b91505092915050565b60008060009054906101000a900473ffffffffffffffffffffffffffffffffffffffff16905090565b61090761145e565b6000600360016101000a81548160ff021916908315150217905550565b600360009054906101000a900460ff16610973576040517f08c379a000000000000000000000000000000000000000000000000000000000815260040161096a906124c3565b60405180910390fd5b600360019054906101000a900460ff16156109c3576040517f08c379a00000000000000000000000000000000000000000000000000000000081526004016109ba906125c3565b60405180910390fd5b7f000000000000000000000000000000000000000000000000000000000000000073ffffffffffffffffffffffffffffffffffffffff163373ffffffffffffffffffffffffffffffffffffffff1614610a51576040517f08c379a0000000000000000000000000000000000000000000000000000000008152600401610a4890612583565b60405180910390fd5b60008060008484810190610a659190611d61565b9250925092506000610a768461173b565b90506000610a826114ee565b90506000610a978663ffffffff163a84611648565b905080891015610adc576040517f08c379a0000000000000000000000000000000000000000000000000000000008152600401610ad390612543565b60405180910390fd5b600760009054906101000a900460ff1660ff168463ffffffff161115610b37576040517f08c379a0000000000000000000000000000000000000000000000000000000008152600401610b2e906125a3565b60405180910390fd5b60007f000000000000000000000000000000000000000000000000000000000000000073ffffffffffffffffffffffffffffffffffffffff16635d3b1d306006547f000000000000000000000000000000000000000000000000000000000000000089600560089054906101000a900463ffffffff16898d610bb99190612745565b610bc39190612745565b8a6040518663ffffffff1660e01b8152600401610be495949392919061235f565b602060405180830381600087803b158015610bfe57600080fd5b505af1158015610c12573d6000803e3d6000fd5b505050506040513d601f19601f82011682018060405250810190610c369190611cab565b90506040518060a001604052808c73ffffffffffffffffffffffffffffffffffffffff1681526020018863ffffffff1681526020013a81526020018481526020018b8152506008600083815260200190815260200160002060008201518160000160006101000a81548173ffffffffffffffffffffffffffffffffffffffff021916908373ffffffffffffffffffffffffffffffffffffffff16021790555060208201518160000160146101000a81548163ffffffff021916908363ffffffff160217905550604082015181600101556060820151816002015560808201518160030155905050806002819055505050505050505050505050565b600360019054906101000a900460ff1681565b7f000000000000000000000000000000000000000000000000000000000000000081565b610d7061145e565b84600560086101000a81548163ffffffff021916908363ffffffff160217905550836005600c6101000a81548163ffffffff021916908363ffffffff16021790555082600560106101000a81548160ff021916908360ff1602179055508160068190555080600760006101000a81548160ff021916908360ff1602179055506001600360006101000a81548160ff0219169083151502179055507f000000000000000000000000000000000000000000000000000000000000000073ffffffffffffffffffffffffffffffffffffffff1663c3f909d46040518163ffffffff1660e01b815260040160806040518083038186803b158015610e7057600080fd5b505afa158015610e84573d6000803e3d6000fd5b505050506040513d601f19601f82011682018060405250810190610ea89190611c17565b9091925090915050600560008291906101000a81548163ffffffff021916908363ffffffff160217905550507f000000000000000000000000000000000000000000000000000000000000000073ffffffffffffffffffffffffffffffffffffffff1663356dac716040518163ffffffff1660e01b815260040160206040518083038186803b158015610f3a57600080fd5b505afa158015610f4e573d6000803e3d6000fd5b505050506040513d601f19601f82011682018060405250810190610f729190611bea565b6004819055507f000000000000000000000000000000000000000000000000000000000000000073ffffffffffffffffffffffffffffffffffffffff16635fbbc0d26040518163ffffffff1660e01b81526004016101206040518083038186803b158015610fdf57600080fd5b505afa158015610ff3573d6000803e3d6000fd5b505050506040513d601f19601f820116820180604052508101906110179190611df4565b909192939495965090919293949550909192939450909192935090919250909150905050600560048291906101000a81548163ffffffff021916908363ffffffff160217905550505050505050565b600080600080600080600080600454600560009054906101000a900463ffffffff16600560049054906101000a900463ffffffff16600560089054906101000a900463ffffffff166005600c9054906101000a900463ffffffff16600560109054906101000a900460ff16600654600760009054906101000a900460ff16975097509750975097509750975097509091929394959697565b61110661145e565b61110f8161175d565b50565b61111a61145e565b7f000000000000000000000000000000000000000000000000000000000000000073ffffffffffffffffffffffffffffffffffffffff1663a9059cbb83836040518363ffffffff1660e01b81526004016111759291906122c8565b602060405180830381600087803b15801561118f57600080fd5b505af11580156111a3573d6000803e3d6000fd5b505050506040513d601f19601f820116820180604052508101906111c79190611bbd565b505050565b60025481565b6000600860008481526020019081526020016000206040518060a00160405290816000820160009054906101000a900473ffffffffffffffffffffffffffffffffffffffff1673ffffffffffffffffffffffffffffffffffffffff1673ffffffffffffffffffffffffffffffffffffffff1681526020016000820160149054906101000a900463ffffffff1663ffffffff1663ffffffff1681526020016001820154815260200160028201548152602001600382015481525050905060086000848152602001908152602001600020600080820160006101000a81549073ffffffffffffffffffffffffffffffffffffffff02191690556000820160146101000a81549063ffffffff02191690556001820160009055600282016000905560038201600090555050600073ffffffffffffffffffffffffffffffffffffffff16816000015173ffffffffffffffffffffffffffffffffffffffff16141561136e576040517f08c379a0000000000000000000000000000000000000000000000000000000008152600401611365906124a3565b60405180910390fd5b600080631fe543e360e01b858560405160240161138c9291906125fe565b604051602081830303815290604052907bffffffffffffffffffffffffffffffffffffffffffffffffffffffff19166020820180517bffffffffffffffffffffffffffffffffffffffffffffffffffffffff838183161783525050505090506000611406846020015163ffffffff1685600001518461188a565b90508061145657836000015173ffffffffffffffffffffffffffffffffffffffff16867fc551b83c151f2d1c7eeb938ac59008e0409f1c1dc1e2f112449d4d79b458902260405160405180910390a35b505050505050565b60008054906101000a900473ffffffffffffffffffffffffffffffffffffffff1673ffffffffffffffffffffffffffffffffffffffff163373ffffffffffffffffffffffffffffffffffffffff16146114ec576040517f08c379a00000000000000000000000000000000000000000000000000000000081526004016114e390612503565b60405180910390fd5b565b6000806000600560009054906101000a900463ffffffff1663ffffffff161190506000807f000000000000000000000000000000000000000000000000000000000000000073ffffffffffffffffffffffffffffffffffffffff1663feaf968c6040518163ffffffff1660e01b815260040160a06040518083038186803b15801561157857600080fd5b505afa15801561158c573d6000803e3d6000fd5b505050506040513d601f19601f820116820180604052508101906115b09190611f39565b90919293509091505080935081925050508280156115f0575081426115d59190612872565b600560009054906101000a900463ffffffff1663ffffffff16105b156115fb5760045490505b600081121561163f576040517f08c379a000000000000000000000000000000000000000000000000000000000815260040161163690612523565b60405180910390fd5b80935050505090565b600080826005600c9054906101000a900463ffffffff1663ffffffff16600560089054906101000a900463ffffffff1663ffffffff168761168991906126ef565b61169391906126ef565b85670de0b6b3a76400006116a79190612818565b6116b19190612818565b6116bb91906127b6565b90506000606480600560109054906101000a900460ff166116dc919061277f565b60ff16836116ea9190612818565b6116f491906127b6565b90506000600560049054906101000a900463ffffffff1663ffffffff1664e8d4a510006117219190612818565b8261172c91906126ef565b90508093505050509392505050565b60006001603f8361174c91906127e7565b6117569190612745565b9050919050565b3373ffffffffffffffffffffffffffffffffffffffff168173ffffffffffffffffffffffffffffffffffffffff1614156117cc576040517f08c379a00000000000000000000000000000000000000000000000000000000081526004016117c390612563565b60405180910390fd5b80600160006101000a81548173ffffffffffffffffffffffffffffffffffffffff021916908373ffffffffffffffffffffffffffffffffffffffff1602179055508073ffffffffffffffffffffffffffffffffffffffff1660008054906101000a900473ffffffffffffffffffffffffffffffffffffffff1673ffffffffffffffffffffffffffffffffffffffff167fed8889f560326eb138920d842192f0eb3dd22b4f139c87a2c57538e05bae127860405160405180910390a350565b60005a61138881101561189c57600080fd5b6113888103905084604082048203116118b457600080fd5b833b6118bf57600080fd5b6000808451602086016000888af19150509392505050565b60006118ea6118e58461266e565b612649565b9050808382526020820190508285602086028201111561190d5761190c612abb565b5b60005b8581101561193d57816119238882611a5e565b845260208401935060208301925050600181019050611910565b5050509392505050565b60008135905061195681612c75565b92915050565b600082601f83011261197157611970612ab6565b5b81356119818482602086016118d7565b91505092915050565b60008151905061199981612c8c565b92915050565b6000813590506119ae81612ca3565b92915050565b60008083601f8401126119ca576119c9612ab6565b5b8235905067ffffffffffffffff8111156119e7576119e6612ab1565b5b602083019150836001820283011115611a0357611a02612abb565b5b9250929050565b600081519050611a1981612cba565b92915050565b600081359050611a2e81612cd1565b92915050565b600081519050611a4381612cd1565b92915050565b600081519050611a5881612ce8565b92915050565b600081359050611a6d81612cff565b92915050565b600081519050611a8281612cff565b92915050565b600081359050611a9781612d16565b92915050565b600081519050611aac81612d16565b92915050565b600081359050611ac181612d2d565b92915050565b600081519050611ad681612d44565b92915050565b600060208284031215611af257611af1612ac5565b5b6000611b0084828501611947565b91505092915050565b60008060408385031215611b2057611b1f612ac5565b5b6000611b2e85828601611947565b9250506020611b3f85828601611a5e565b9150509250929050565b60008060008060608587031215611b6357611b62612ac5565b5b6000611b7187828801611947565b9450506020611b8287828801611a5e565b935050604085013567ffffffffffffffff811115611ba357611ba2612ac0565b5b611baf878288016119b4565b925092505092959194509250565b600060208284031215611bd357611bd2612ac5565b5b6000611be18482850161198a565b91505092915050565b600060208284031215611c0057611bff612ac5565b5b6000611c0e84828501611a0a565b91505092915050565b60008060008060808587031215611c3157611c30612ac5565b5b6000611c3f87828801611a34565b9450506020611c5087828801611a9d565b9350506040611c6187828801611a9d565b9250506060611c7287828801611a9d565b91505092959194509250565b600060208284031215611c9457611c93612ac5565b5b6000611ca284828501611a5e565b91505092915050565b600060208284031215611cc157611cc0612ac5565b5b6000611ccf84828501611a73565b91505092915050565b60008060408385031215611cef57611cee612ac5565b5b6000611cfd85828601611a5e565b925050602083013567ffffffffffffffff811115611d1e57611d1d612ac0565b5b611d2a8582860161195c565b9150509250929050565b600060208284031215611d4a57611d49612ac5565b5b6000611d5884828501611a88565b91505092915050565b600080600060608486031215611d7a57611d79612ac5565b5b6000611d8886828701611a88565b9350506020611d9986828701611a1f565b9250506040611daa86828701611a88565b9150509250925092565b60008060408385031215611dcb57611dca612ac5565b5b6000611dd985828601611a88565b9250506020611dea85828601611a5e565b9150509250929050565b60008060008060008060008060006101208a8c031215611e1757611e16612ac5565b5b6000611e258c828d01611a9d565b9950506020611e368c828d01611a9d565b9850506040611e478c828d01611a9d565b9750506060611e588c828d01611a9d565b9650506080611e698c828d01611a9d565b95505060a0611e7a8c828d01611a49565b94505060c0611e8b8c828d01611a49565b93505060e0611e9c8c828d01611a49565b925050610100611eae8c828d01611a49565b9150509295985092959850929598565b600080600080600060a08688031215611eda57611ed9612ac5565b5b6000611ee888828901611a88565b9550506020611ef988828901611a88565b9450506040611f0a88828901611ab2565b9350506060611f1b8882890161199f565b9250506080611f2c88828901611ab2565b9150509295509295909350565b600080600080600060a08688031215611f5557611f54612ac5565b5b6000611f6388828901611ac7565b9550506020611f7488828901611a0a565b9450506040611f8588828901611a73565b9350506060611f9688828901611a73565b9250506080611fa788828901611ac7565b9150509295509295909350565b6000611fc08383612239565b60208301905092915050565b611fd5816128a6565b82525050565b6000611fe6826126aa565b611ff081856126cd565b9350611ffb8361269a565b8060005b8381101561202c5781516120138882611fb4565b975061201e836126c0565b925050600181019050611fff565b5085935050505092915050565b612042816128b8565b82525050565b612051816128c4565b82525050565b61206081612966565b82525050565b61206f81612978565b82525050565b61207e8161298a565b82525050565b61208d816128ce565b82525050565b600061209e826126b5565b6120a881856126de565b93506120b88185602086016129c0565b6120c181612aca565b840191505092915050565b60006120d96011836126de565b91506120e482612adb565b602082019050919050565b60006120fc6019836126de565b915061210782612b04565b602082019050919050565b600061211f6016836126de565b915061212a82612b2d565b602082019050919050565b60006121426016836126de565b915061214d82612b56565b602082019050919050565b60006121656016836126de565b915061217082612b7f565b602082019050919050565b6000612188600b836126de565b915061219382612ba8565b602082019050919050565b60006121ab6017836126de565b91506121b682612bd1565b602082019050919050565b60006121ce6017836126de565b91506121d982612bfa565b602082019050919050565b60006121f16011836126de565b91506121fc82612c23565b602082019050919050565b60006122146013836126de565b915061221f82612c4c565b602082019050919050565b612233816128d8565b82525050565b61224281612915565b82525050565b61225181612915565b82525050565b6122608161291f565b82525050565b61226f8161292f565b82525050565b61227e81612943565b82525050565b60006020820190506122996000830184611fcc565b92915050565b60006040820190506122b46000830185611fcc565b6122c16020830184611fcc565b9392505050565b60006040820190506122dd6000830185611fcc565b6122ea6020830184612248565b9392505050565b600060a0820190506123066000830188611fcc565b6123136020830187612257565b6123206040830186612248565b61232d6060830185612084565b61233a6080830184612248565b9695505050505050565b60006020820190506123596000830184612039565b92915050565b600060a0820190506123746000830188612048565b6123816020830187612266565b61238e604083018661222a565b61239b6060830185612257565b6123a86080830184612257565b9695505050505050565b60006020820190506123c76000830184612057565b92915050565b60006020820190506123e26000830184612066565b92915050565b60006020820190506123fd6000830184612075565b92915050565b600061010082019050612419600083018b612084565b612426602083018a612257565b6124336040830189612257565b6124406060830188612257565b61244d6080830187612257565b61245a60a0830186612275565b61246760c0830185612048565b61247460e0830184612275565b9998505050505050505050565b6000602082019050818103600083015261249b8184612093565b905092915050565b600060208201905081810360008301526124bc816120cc565b9050919050565b600060208201905081810360008301526124dc816120ef565b9050919050565b600060208201905081810360008301526124fc81612112565b9050919050565b6000602082019050818103600083015261251c81612135565b9050919050565b6000602082019050818103600083015261253c81612158565b9050919050565b6000602082019050818103600083015261255c8161217b565b9050919050565b6000602082019050818103600083015261257c8161219e565b9050919050565b6000602082019050818103600083015261259c816121c1565b9050919050565b600060208201905081810360008301526125bc816121e4565b9050919050565b600060208201905081810360008301526125dc81612207565b9050919050565b60006020820190506125f86000830184612248565b92915050565b60006040820190506126136000830185612248565b81810360208301526126258184611fdb565b90509392505050565b60006020820190506126436000830184612266565b92915050565b6000612653612664565b905061265f82826129f3565b919050565b6000604051905090565b600067ffffffffffffffff82111561268957612688612a82565b5b602082029050602081019050919050565b6000819050602082019050919050565b600081519050919050565b600081519050919050565b6000602082019050919050565b600082825260208201905092915050565b600082825260208201905092915050565b60006126fa82612915565b915061270583612915565b9250827fffffffffffffffffffffffffffffffffffffffffffffffffffffffffffffffff0382111561273a57612739612a24565b5b828201905092915050565b60006127508261291f565b915061275b8361291f565b92508263ffffffff0382111561277457612773612a24565b5b828201905092915050565b600061278a82612943565b915061279583612943565b92508260ff038211156127ab576127aa612a24565b5b828201905092915050565b60006127c182612915565b91506127cc83612915565b9250826127dc576127db612a53565b5b828204905092915050565b60006127f28261291f565b91506127fd8361291f565b92508261280d5761280c612a53565b5b828204905092915050565b600061282382612915565b915061282e83612915565b9250817fffffffffffffffffffffffffffffffffffffffffffffffffffffffffffffffff048311821515161561286757612866612a24565b5b828202905092915050565b600061287d82612915565b915061288883612915565b92508282101561289b5761289a612a24565b5b828203905092915050565b60006128b1826128e6565b9050919050565b60008115159050919050565b6000819050919050565b6000819050919050565b600061ffff82169050919050565b600073ffffffffffffffffffffffffffffffffffffffff82169050919050565b600062ffffff82169050919050565b6000819050919050565b600063ffffffff82169050919050565b600067ffffffffffffffff82169050919050565b600060ff82169050919050565b600069ffffffffffffffffffff82169050919050565b60006129718261299c565b9050919050565b60006129838261299c565b9050919050565b60006129958261299c565b9050919050565b60006129a7826129ae565b9050919050565b60006129b9826128e6565b9050919050565b60005b838110156129de5780820151818401526020810190506129c3565b838111156129ed576000848401525b50505050565b6129fc82612aca565b810181811067ffffffffffffffff82111715612a1b57612a1a612a82565b5b80604052505050565b7f4e487b7100000000000000000000000000000000000000000000000000000000600052601160045260246000fd5b7f4e487b7100000000000000000000000000000000000000000000000000000000600052601260045260246000fd5b7f4e487b7100000000000000000000000000000000000000000000000000000000600052604160045260246000fd5b600080fd5b600080fd5b600080fd5b600080fd5b600080fd5b6000601f19601f8301169050919050565b7f72657175657374206e6f7420666f756e64000000000000000000000000000000600082015250565b7f77726170706572206973206e6f7420636f6e6669677572656400000000000000600082015250565b7f4d7573742062652070726f706f736564206f776e657200000000000000000000600082015250565b7f4f6e6c792063616c6c61626c65206279206f776e657200000000000000000000600082015250565b7f496e76616c6964204c494e4b2077656920707269636500000000000000000000600082015250565b7f66656520746f6f206c6f77000000000000000000000000000000000000000000600082015250565b7f43616e6e6f74207472616e7366657220746f2073656c66000000000000000000600082015250565b7f6f6e6c792063616c6c61626c652066726f6d204c494e4b000000000000000000600082015250565b7f6e756d576f72647320746f6f2068696768000000000000000000000000000000600082015250565b7f777261707065722069732064697361626c656400000000000000000000000000600082015250565b612c7e816128a6565b8114612c8957600080fd5b50565b612c95816128b8565b8114612ca057600080fd5b50565b612cac816128c4565b8114612cb757600080fd5b50565b612cc3816128ce565b8114612cce57600080fd5b50565b612cda816128d8565b8114612ce557600080fd5b50565b612cf181612906565b8114612cfc57600080fd5b50565b612d0881612915565b8114612d1357600080fd5b50565b612d1f8161291f565b8114612d2a57600080fd5b50565b612d3681612943565b8114612d4157600080fd5b50565b612d4d81612950565b8114612d5857600080fd5b5056fea2646970667358221220ffa83b76ebbdac90a97e8df40491b0ccf326baa2a2414e79fa7a84bfb82c148964736f6c63430008070033",
  "linkReferences": {},
  "deployedLinkReferences": {}
}