{
  "_format": "hh-sol-artifact-1",
  "contractName": "RandomNumberDirectFundingConsumerV2",
  "sourceName": "contracts/RandomNumberDirectFundingConsumerV2.sol",
  "abi": [
    {
      "inputs": [
        {
          "internalType": "address",
          "name": "_linkAddress",
          "type": "address"
        },
        {
          "internalType": "address",
          "name": "_wrapperAddress",
          "type": "address"
        }
      ],
      "stateMutability": "nonpayable",
      "type": "constructor"
    },
    {
      "inputs": [
        {
          "internalType": "uint256",
          "name": "balance",
          "type": "uint256"
        },
        {
          "internalType": "uint256",
          "name": "paid",
          "type": "uint256"
        }
      ],
      "name": "InsufficientFunds",
      "type": "error"
    },
    {
      "inputs": [
        {
          "internalType": "address",
          "name": "sender",
          "type": "address"
        },
        {
          "internalType": "address",
          "name": "receiver",
          "type": "address"
        },
        {
          "internalType": "uint256",
          "name": "amount",
          "type": "uint256"
        }
      ],
      "name": "LinkTransferError",
      "type": "error"
    },
    {
      "inputs": [
        {
          "internalType": "uint256",
          "name": "requestId",
          "type": "uint256"
        }
      ],
      "name": "RequestNotFound",
      "type": "error"
    },
    {
      "anonymous": false,
      "inputs": [
        {
          "indexed": true,
          "internalType": "address",
          "name": "from",
          "type": "address"
        },
        {
          "indexed": true,
          "internalType": "address",
          "name": "to",
          "type": "address"
        }
      ],
      "name": "OwnershipTransferRequested",
      "type": "event"
    },
    {
      "anonymous": false,
      "inputs": [
        {
          "indexed": true,
          "internalType": "address",
          "name": "from",
          "type": "address"
        },
        {
          "indexed": true,
          "internalType": "address",
          "name": "to",
          "type": "address"
        }
      ],
      "name": "OwnershipTransferred",
      "type": "event"
    },
    {
      "anonymous": false,
      "inputs": [
        {
          "indexed": false,
          "internalType": "uint256",
          "name": "requestId",
          "type": "uint256"
        },
        {
          "indexed": false,
          "internalType": "uint256[]",
          "name": "randomWords",
          "type": "uint256[]"
        },
        {
          "indexed": false,
          "internalType": "uint256",
          "name": "payment",
          "type": "uint256"
        }
      ],
      "name": "RequestFulfilled",
      "type": "event"
    },
    {
      "anonymous": false,
      "inputs": [
        {
          "indexed": false,
          "internalType": "uint256",
          "name": "requestId",
          "type": "uint256"
        },
        {
          "indexed": false,
          "internalType": "uint32",
          "name": "numWords",
          "type": "uint32"
        },
        {
          "indexed": false,
          "internalType": "uint256",
          "name": "paid",
          "type": "uint256"
        }
      ],
      "name": "RequestSent",
      "type": "event"
    },
    {
      "inputs": [],
      "name": "acceptOwnership",
      "outputs": [],
      "stateMutability": "nonpayable",
      "type": "function"
    },
    {
      "inputs": [],
      "name": "getNumberOfRequests",
      "outputs": [
        {
          "internalType": "uint256",
          "name": "",
          "type": "uint256"
        }
      ],
      "stateMutability": "view",
      "type": "function"
    },
    {
      "inputs": [
        {
          "internalType": "uint256",
          "name": "_requestId",
          "type": "uint256"
        }
      ],
      "name": "getRequestStatus",
      "outputs": [
        {
          "internalType": "uint256",
          "name": "paid",
          "type": "uint256"
        },
        {
          "internalType": "bool",
          "name": "fulfilled",
          "type": "bool"
        },
        {
          "internalType": "uint256[]",
          "name": "randomWords",
          "type": "uint256[]"
        }
      ],
      "stateMutability": "view",
      "type": "function"
    },
    {
      "inputs": [],
      "name": "lastRequestId",
      "outputs": [
        {
          "internalType": "uint256",
          "name": "",
          "type": "uint256"
        }
      ],
      "stateMutability": "view",
      "type": "function"
    },
    {
      "inputs": [],
      "name": "owner",
      "outputs": [
        {
          "internalType": "address",
          "name": "",
          "type": "address"
        }
      ],
      "stateMutability": "view",
      "type": "function"
    },
    {
      "inputs": [
        {
          "internalType": "uint256",
          "name": "_requestId",
          "type": "uint256"
        },
        {
          "internalType": "uint256[]",
          "name": "_randomWords",
          "type": "uint256[]"
        }
      ],
      "name": "rawFulfillRandomWords",
      "outputs": [],
      "stateMutability": "nonpayable",
      "type": "function"
    },
    {
      "inputs": [
        {
          "internalType": "uint256",
          "name": "",
          "type": "uint256"
        }
      ],
      "name": "requestIds",
      "outputs": [
        {
          "internalType": "uint256",
          "name": "",
          "type": "uint256"
        }
      ],
      "stateMutability": "view",
      "type": "function"
    },
    {
      "inputs": [
        {
          "internalType": "uint32",
          "name": "_callbackGasLimit",
          "type": "uint32"
        },
        {
          "internalType": "uint16",
          "name": "_requestConfirmations",
          "type": "uint16"
        },
        {
          "internalType": "uint32",
          "name": "_numWords",
          "type": "uint32"
        }
      ],
      "name": "requestRandomWords",
      "outputs": [
        {
          "internalType": "uint256",
          "name": "requestId",
          "type": "uint256"
        }
      ],
      "stateMutability": "nonpayable",
      "type": "function"
    },
    {
      "inputs": [
        {
          "internalType": "uint256",
          "name": "",
          "type": "uint256"
        }
      ],
      "name": "s_requests",
      "outputs": [
        {
          "internalType": "uint256",
          "name": "paid",
          "type": "uint256"
        },
        {
          "internalType": "bool",
          "name": "fulfilled",
          "type": "bool"
        }
      ],
      "stateMutability": "view",
      "type": "function"
    },
    {
      "inputs": [
        {
          "internalType": "address",
          "name": "to",
          "type": "address"
        }
      ],
      "name": "transferOwnership",
      "outputs": [],
      "stateMutability": "nonpayable",
      "type": "function"
    },
    {
      "inputs": [
        {
          "internalType": "address",
          "name": "_receiver",
          "type": "address"
        }
      ],
      "name": "withdrawLink",
      "outputs": [],
      "stateMutability": "nonpayable",
      "type": "function"
    }
  ],
  "bytecode": "0x60c06040523480156200001157600080fd5b5060405162001f6038038062001f608339818101604052810190620000379190620002f9565b3380600084848173ffffffffffffffffffffffffffffffffffffffff1660808173ffffffffffffffffffffffffffffffffffffffff1660601b815250508073ffffffffffffffffffffffffffffffffffffffff1660a08173ffffffffffffffffffffffffffffffffffffffff1660601b815250505050600073ffffffffffffffffffffffffffffffffffffffff168273ffffffffffffffffffffffffffffffffffffffff16141562000120576040517f08c379a000000000000000000000000000000000000000000000000000000000815260040162000117906200038e565b60405180910390fd5b816000806101000a81548173ffffffffffffffffffffffffffffffffffffffff021916908373ffffffffffffffffffffffffffffffffffffffff160217905550600073ffffffffffffffffffffffffffffffffffffffff168173ffffffffffffffffffffffffffffffffffffffff1614620001a757620001a681620001b260201b60201c565b5b505050505062000488565b3373ffffffffffffffffffffffffffffffffffffffff168173ffffffffffffffffffffffffffffffffffffffff16141562000224576040517f08c379a00000000000000000000000000000000000000000000000000000000081526004016200021b90620003b0565b60405180910390fd5b80600160006101000a81548173ffffffffffffffffffffffffffffffffffffffff021916908373ffffffffffffffffffffffffffffffffffffffff1602179055508073ffffffffffffffffffffffffffffffffffffffff1660008054906101000a900473ffffffffffffffffffffffffffffffffffffffff1673ffffffffffffffffffffffffffffffffffffffff167fed8889f560326eb138920d842192f0eb3dd22b4f139c87a2c57538e05bae127860405160405180910390a350565b600081519050620002f3816200046e565b92915050565b6000806040838503121562000313576200031262000417565b5b60006200032385828601620002e2565b92505060206200033685828601620002e2565b9150509250929050565b60006200034f601883620003d2565b91506200035c826200041c565b602082019050919050565b600062000376601783620003d2565b9150620003838262000445565b602082019050919050565b60006020820190508181036000830152620003a98162000340565b9050919050565b60006020820190508181036000830152620003cb8162000367565b9050919050565b600082825260208201905092915050565b6000620003f082620003f7565b9050919050565b600073ffffffffffffffffffffffffffffffffffffffff82169050919050565b600080fd5b7f43616e6e6f7420736574206f776e657220746f207a65726f0000000000000000600082015250565b7f43616e6e6f74207472616e7366657220746f2073656c66000000000000000000600082015250565b6200047981620003e3565b81146200048557600080fd5b50565b60805160601c60a05160601c611a74620004ec6000396000818161022b015281816102e001528181610cf801528181610d190152610e5701526000818161038d015281816107a3015281816107e0015281816109010152610cbc0152611a746000f3fe608060405234801561001057600080fd5b50600436106100a95760003560e01c806390e9ca7f1161007157806390e9ca7f14610152578063973884971461016e578063a168fa891461018c578063d8a4676f146101bd578063f2fde38b146101ef578063fc2a88c31461020b576100a9565b80631fe543e3146100ae5780634b494dc0146100ca57806379ba5097146100fa5780638796ba8c146101045780638da5cb5b14610134575b600080fd5b6100c860048036038101906100c39190611263565b610229565b005b6100e460048036038101906100df91906112bf565b6102c5565b6040516100f191906115e0565b60405180910390f35b6101026105b5565b005b61011e60048036038101906101199190611209565b61074a565b60405161012b91906115e0565b60405180910390f35b61013c61076e565b60405161014991906114a7565b60405180910390f35b61016c600480360381019061016791906111af565b610797565b005b6101766109ea565b60405161018391906115e0565b60405180910390f35b6101a660048036038101906101a19190611209565b6109f7565b6040516101b4929190611639565b60405180910390f35b6101d760048036038101906101d29190611209565b610a28565b6040516101e693929190611662565b60405180910390f35b610209600480360381019061020491906111af565b610b33565b005b610213610b47565b60405161022091906115e0565b60405180910390f35b7f000000000000000000000000000000000000000000000000000000000000000073ffffffffffffffffffffffffffffffffffffffff163373ffffffffffffffffffffffffffffffffffffffff16146102b7576040517f08c379a00000000000000000000000000000000000000000000000000000000081526004016102ae906115c0565b60405180910390fd5b6102c18282610b4d565b5050565b60006102cf610c28565b6102da848484610cb8565b905060007f000000000000000000000000000000000000000000000000000000000000000073ffffffffffffffffffffffffffffffffffffffff16634306d354866040518263ffffffff1660e01b81526004016103379190611700565b60206040518083038186803b15801561034f57600080fd5b505afa158015610363573d6000803e3d6000fd5b505050506040513d601f19601f820116820180604052508101906103879190611236565b905060007f000000000000000000000000000000000000000000000000000000000000000073ffffffffffffffffffffffffffffffffffffffff166370a08231306040518263ffffffff1660e01b81526004016103e491906114a7565b60206040518083038186803b1580156103fc57600080fd5b505afa158015610410573d6000803e3d6000fd5b505050506040513d601f19601f820116820180604052508101906104349190611236565b90508181101561047d5780826040517f03eb8b540000000000000000000000000000000000000000000000000000000081526004016104749291906116a0565b60405180910390fd5b6040518060600160405280838152602001600015158152602001600067ffffffffffffffff8111156104b2576104b16118d3565b5b6040519080825280602002602001820160405280156104e05781602001602082028036833780820191505090505b50815250600260008581526020019081526020016000206000820151816000015560208201518160010160006101000a81548160ff021916908315150217905550604082015181600201908051906020019061053d929190611029565b509050506003839080600181540180825580915050600190039060005260206000200160009091909190915055826004819055507f643b454d39972ed209afefa4a771c7a9057229bc7e6b66566f5be8441bf9b1e28385846040516105a4939291906116c9565b60405180910390a150509392505050565b600160009054906101000a900473ffffffffffffffffffffffffffffffffffffffff1673ffffffffffffffffffffffffffffffffffffffff163373ffffffffffffffffffffffffffffffffffffffff1614610645576040517f08c379a000000000000000000000000000000000000000000000000000000000815260040161063c90611560565b60405180910390fd5b60008060009054906101000a900473ffffffffffffffffffffffffffffffffffffffff169050336000806101000a81548173ffffffffffffffffffffffffffffffffffffffff021916908373ffffffffffffffffffffffffffffffffffffffff1602179055506000600160006101000a81548173ffffffffffffffffffffffffffffffffffffffff021916908373ffffffffffffffffffffffffffffffffffffffff1602179055503373ffffffffffffffffffffffffffffffffffffffff168173ffffffffffffffffffffffffffffffffffffffff167f8be0079c531659141344cd1fd0a4f28419497f9722a3daafe3b4186f6b6457e060405160405180910390a350565b6003818154811061075a57600080fd5b906000526020600020016000915090505481565b60008060009054906101000a900473ffffffffffffffffffffffffffffffffffffffff16905090565b61079f610c28565b60007f000000000000000000000000000000000000000000000000000000000000000073ffffffffffffffffffffffffffffffffffffffff1663a9059cbb837f000000000000000000000000000000000000000000000000000000000000000073ffffffffffffffffffffffffffffffffffffffff166370a08231306040518263ffffffff1660e01b815260040161083791906114a7565b60206040518083038186803b15801561084f57600080fd5b505afa158015610863573d6000803e3d6000fd5b505050506040513d601f19601f820116820180604052508101906108879190611236565b6040518363ffffffff1660e01b81526004016108a49291906114f9565b602060405180830381600087803b1580156108be57600080fd5b505af11580156108d2573d6000803e3d6000fd5b505050506040513d601f19601f820116820180604052508101906108f691906111dc565b9050806109e65733827f000000000000000000000000000000000000000000000000000000000000000073ffffffffffffffffffffffffffffffffffffffff166370a08231306040518263ffffffff1660e01b815260040161095891906114a7565b60206040518083038186803b15801561097057600080fd5b505afa158015610984573d6000803e3d6000fd5b505050506040513d601f19601f820116820180604052508101906109a89190611236565b6040517f5def27d70000000000000000000000000000000000000000000000000000000081526004016109dd939291906114c2565b60405180910390fd5b5050565b6000600380549050905090565b60026020528060005260406000206000915090508060000154908060010160009054906101000a900460ff16905082565b6000806060600060026000868152602001908152602001600020604051806060016040529081600082015481526020016001820160009054906101000a900460ff1615151515815260200160028201805480602002602001604051908101604052809291908181526020018280548015610ac157602002820191906000526020600020905b815481526020019060010190808311610aad575b5050505050815250509050600081600001511415610b1657846040517f4ec726c7000000000000000000000000000000000000000000000000000000008152600401610b0d91906115e0565b60405180910390fd5b806000015181602001518260400151935093509350509193909250565b610b3b610c28565b610b4481610efc565b50565b60045481565b6000600260008481526020019081526020016000209050600081600001541415610bae57826040517f4ec726c7000000000000000000000000000000000000000000000000000000008152600401610ba591906115e0565b60405180910390fd5b60018160010160006101000a81548160ff02191690831515021790555081816002019080519060200190610be3929190611029565b507f147eb1ff0c82f87f2b03e2c43f5a36488ff63ec6b730195fde4605f612f8db5183838360000154604051610c1b939291906115fb565b60405180910390a1505050565b60008054906101000a900473ffffffffffffffffffffffffffffffffffffffff1673ffffffffffffffffffffffffffffffffffffffff163373ffffffffffffffffffffffffffffffffffffffff1614610cb6576040517f08c379a0000000000000000000000000000000000000000000000000000000008152600401610cad90611580565b60405180910390fd5b565b60007f000000000000000000000000000000000000000000000000000000000000000073ffffffffffffffffffffffffffffffffffffffff16634000aea07f00000000000000000000000000000000000000000000000000000000000000007f000000000000000000000000000000000000000000000000000000000000000073ffffffffffffffffffffffffffffffffffffffff16634306d354886040518263ffffffff1660e01b8152600401610d709190611700565b60206040518083038186803b158015610d8857600080fd5b505afa158015610d9c573d6000803e3d6000fd5b505050506040513d601f19601f82011682018060405250810190610dc09190611236565b878787604051602001610dd59392919061171b565b6040516020818303038152906040526040518463ffffffff1660e01b8152600401610e0293929190611522565b602060405180830381600087803b158015610e1c57600080fd5b505af1158015610e30573d6000803e3d6000fd5b505050506040513d601f19601f82011682018060405250810190610e5491906111dc565b507f000000000000000000000000000000000000000000000000000000000000000073ffffffffffffffffffffffffffffffffffffffff1663fc2a88c36040518163ffffffff1660e01b815260040160206040518083038186803b158015610ebb57600080fd5b505afa158015610ecf573d6000803e3d6000fd5b505050506040513d601f19601f82011682018060405250810190610ef39190611236565b90509392505050565b3373ffffffffffffffffffffffffffffffffffffffff168173ffffffffffffffffffffffffffffffffffffffff161415610f6b576040517f08c379a0000000000000000000000000000000000000000000000000000000008152600401610f62906115a0565b60405180910390fd5b80600160006101000a81548173ffffffffffffffffffffffffffffffffffffffff021916908373ffffffffffffffffffffffffffffffffffffffff1602179055508073ffffffffffffffffffffffffffffffffffffffff1660008054906101000a900473ffffffffffffffffffffffffffffffffffffffff1673ffffffffffffffffffffffffffffffffffffffff167fed8889f560326eb138920d842192f0eb3dd22b4f139c87a2c57538e05bae127860405160405180910390a350565b828054828255906000526020600020908101928215611065579160200282015b82811115611064578251825591602001919060010190611049565b5b5090506110729190611076565b5090565b5b8082111561108f576000816000905550600101611077565b5090565b60006110a66110a184611777565b611752565b905080838252602082019050828560208602820111156110c9576110c8611907565b5b60005b858110156110f957816110df8882611170565b8452602084019350602083019250506001810190506110cc565b5050509392505050565b600081359050611112816119cb565b92915050565b600082601f83011261112d5761112c611902565b5b813561113d848260208601611093565b91505092915050565b600081519050611155816119e2565b92915050565b60008135905061116a816119f9565b92915050565b60008135905061117f81611a10565b92915050565b60008151905061119481611a10565b92915050565b6000813590506111a981611a27565b92915050565b6000602082840312156111c5576111c4611911565b5b60006111d384828501611103565b91505092915050565b6000602082840312156111f2576111f1611911565b5b600061120084828501611146565b91505092915050565b60006020828403121561121f5761121e611911565b5b600061122d84828501611170565b91505092915050565b60006020828403121561124c5761124b611911565b5b600061125a84828501611185565b91505092915050565b6000806040838503121561127a57611279611911565b5b600061128885828601611170565b925050602083013567ffffffffffffffff8111156112a9576112a861190c565b5b6112b585828601611118565b9150509250929050565b6000806000606084860312156112d8576112d7611911565b5b60006112e68682870161119a565b93505060206112f78682870161115b565b92505060406113088682870161119a565b9150509250925092565b600061131e838361147a565b60208301905092915050565b61133381611809565b82525050565b6000611344826117b3565b61134e81856117d6565b9350611359836117a3565b8060005b8381101561138a5781516113718882611312565b975061137c836117c9565b92505060018101905061135d565b5085935050505092915050565b6113a08161181b565b82525050565b60006113b1826117be565b6113bb81856117e7565b93506113cb81856020860161186f565b6113d481611916565b840191505092915050565b60006113ec6016836117f8565b91506113f782611927565b602082019050919050565b600061140f6016836117f8565b915061141a82611950565b602082019050919050565b60006114326017836117f8565b915061143d82611979565b602082019050919050565b6000611455601f836117f8565b9150611460826119a2565b602082019050919050565b61147481611827565b82525050565b61148381611855565b82525050565b61149281611855565b82525050565b6114a18161185f565b82525050565b60006020820190506114bc600083018461132a565b92915050565b60006060820190506114d7600083018661132a565b6114e4602083018561132a565b6114f16040830184611489565b949350505050565b600060408201905061150e600083018561132a565b61151b6020830184611489565b9392505050565b6000606082019050611537600083018661132a565b6115446020830185611489565b818103604083015261155681846113a6565b9050949350505050565b60006020820190508181036000830152611579816113df565b9050919050565b6000602082019050818103600083015261159981611402565b9050919050565b600060208201905081810360008301526115b981611425565b9050919050565b600060208201905081810360008301526115d981611448565b9050919050565b60006020820190506115f56000830184611489565b92915050565b60006060820190506116106000830186611489565b81810360208301526116228185611339565b90506116316040830184611489565b949350505050565b600060408201905061164e6000830185611489565b61165b6020830184611397565b9392505050565b60006060820190506116776000830186611489565b6116846020830185611397565b81810360408301526116968184611339565b9050949350505050565b60006040820190506116b56000830185611489565b6116c26020830184611489565b9392505050565b60006060820190506116de6000830186611489565b6116eb6020830185611498565b6116f86040830184611489565b949350505050565b60006020820190506117156000830184611498565b92915050565b60006060820190506117306000830186611498565b61173d602083018561146b565b61174a6040830184611498565b949350505050565b600061175c61176d565b905061176882826118a2565b919050565b6000604051905090565b600067ffffffffffffffff821115611792576117916118d3565b5b602082029050602081019050919050565b6000819050602082019050919050565b600081519050919050565b600081519050919050565b6000602082019050919050565b600082825260208201905092915050565b600082825260208201905092915050565b600082825260208201905092915050565b600061181482611835565b9050919050565b60008115159050919050565b600061ffff82169050919050565b600073ffffffffffffffffffffffffffffffffffffffff82169050919050565b6000819050919050565b600063ffffffff82169050919050565b60005b8381101561188d578082015181840152602081019050611872565b8381111561189c576000848401525b50505050565b6118ab82611916565b810181811067ffffffffffffffff821117156118ca576118c96118d3565b5b80604052505050565b7f4e487b7100000000000000000000000000000000000000000000000000000000600052604160045260246000fd5b600080fd5b600080fd5b600080fd5b600080fd5b6000601f19601f8301169050919050565b7f4d7573742062652070726f706f736564206f776e657200000000000000000000600082015250565b7f4f6e6c792063616c6c61626c65206279206f776e657200000000000000000000600082015250565b7f43616e6e6f74207472616e7366657220746f2073656c66000000000000000000600082015250565b7f6f6e6c792056524620563220777261707065722063616e2066756c66696c6c00600082015250565b6119d481611809565b81146119df57600080fd5b50565b6119eb8161181b565b81146119f657600080fd5b50565b611a0281611827565b8114611a0d57600080fd5b50565b611a1981611855565b8114611a2457600080fd5b50565b611a308161185f565b8114611a3b57600080fd5b5056fea26469706673582212202ae1568acad417de22c59ce8b41439677e1a2cae27d2c7bbb627d3b0137a244464736f6c63430008070033",
  "linkReferences": {},
  "deployedLinkReferences": {}
}